:020000022000DC
:1070000000FD0320C1950400E9950400EB95040000
:10701000ED950400EF950400F195040000000000D8
:10702000000000000000000000000000F3950400D4
:10703000F595040000000000F7950400F9950400A0
:10704000FB950400FB950400D57A0200FB95040033
:10705000FB950400FB950400B9A90200FB95040010
:10706000FB950400FB95040079790400FB9504006E
:10707000FB950400FB950400FB950400FB950400C0
:10708000FB950400018D0400B9130400FB95040076
:10709000E98D0400FB95040049B40200FB9504004F
:1070A000FB950400FB950400FB950400FB95040090
:1070B000FB950400FB9504000000000000000000A8
:1070C000FB950400FB950400FB950400FB95040070
:1070D000FB950400FB950400FB950400FB95040060
:1070E000FB950400FB950400FB95040000000000E4
:1070F00000000000FB95040000000000FB95040068
:10710000000000000000000000000000000000007F
:10711000000000000000000000000000000000006F
:10712000000000000000000000000000000000005F
:10713000000000000000000000000000000000004F
:10714000000000000000000000000000000000003F
:10715000000000000000000000000000000000002F
:10716000000000000000000000000000000000001F
:10717000000000000000000000000000000000000F
:1071800000000000000000000000000000000000FF
:1071900000000000000000000000000000000000EF
:1071A00000000000000000000000000000000000DF
:1071B00000000000000000000000000000000000CF
:1071C00000000000000000000000000000000000BF
:1071D00000000000000000000000000000000000AF
:1071E000000000000000000000000000000000009F
:1071F000000000000000000000000000000000008F
:107200000348044B834202D0034B03B11847704735
:10721000DC2E0020DC2E002000000000054806497E
:107220000B1AD90F01EBA301491002D0034B03B194
:1072300018477047DC2E0020DC2E002000000000E4
:1072400010B5064C237843B9FFF7DAFF044B13B1AE
:107250000448AFF300800123237010BDE02E00200E
:107260000000000020FC040008B5044B1BB10449D9
:107270000448AFF30080BDE80840CFE700000000FD
:10728000E42E002020FC0400A3F5803A704700BFE4
:10729000154B002B08BF114B9D46FFF7F5FF002152
:1072A0008B460F461148124A121A26F031F90C4B40
:1072B000002B00D098470B4B002B00D098470020A4
:1072C000002104000D000B4825F0F0FF26F022F805
:1072D0002000290000F066FA25F0EEFF000008000B
:1072E000000000000000000000FD0320E02E002050
:1072F0009C710020E1D2040041DF704770B5037833
:10730000093B88B00446042B65D8DFE803F0907D84
:10731000660303000379022B00F0D980042B40F0B0
:107320009580B44E3368590418D5B34B1B68032BB2
:1073300014DDB2482F2126F0F1FA002800F0C781B1
:107340002F21AE4826F0EAFA411CAD4BAD4AD3F8E6
:107350000435009204204F221BF0EEF8B4F81320FD
:10736000B4F809309A4273D1D4F80F20D4F805301C
:107370009A426DD1D4F81520D4F80B309A4267D2D6
:1073800004A903A814F01EFA002840F00681039B0C
:107390009D499E4A0B445D08B2EB530F336894BF7E
:1073A00005F6FF7502F6FF7525F47F655E0425F08E
:1073B0000F0504D5904B1B68032B00F3F880207950
:1073C0002A46611D13F028FE002840F0EB800021C2
:1073D0000F2003F011F908B070BD864B1B685B04E9
:1073E00004D5854B1B68032B00F398800F200021E8
:1073F00003F002F9207913F043FF0028EBD07F4A15
:10740000A92122F00BF9E6E77A4B1B685A0404D550
:10741000794B1B68032B00F3968000210F2003F0AB
:10742000EBF80121032003F0E7F808B070BD714BC1
:107430001B68590404D5704B1B68032B00F398801C
:107440000121052003F0D8F808B070BD012B20D031
:1074500004A813F03BFF0028BDD19DF81C305A1E34
:10746000012A02D9083B012BB5D8624B1B6858048E
:1074700004D5614B1B68032B00F3ED802079611D5F
:1074800013F032FE0028A6D05C4A952122F0C6F8FF
:10749000A1E7584B1B685B04DAD5574B1B68032BDD
:1074A000D6DD56482F2126F039FA002800F0048155
:1074B0002F21524826F032FA411C514B544AD3F83E
:1074C0000435009204205A221BF036F8C0E7494EDA
:1074D00033685A0418D5484B1B68032B14DD474802
:1074E0002F2126F01BFA002800F0DB802F214348D3
:1074F00026F014FA411C424B464AD3F80435009258
:10750000042055221BF018F8E27B63799A429FD140
:10751000227CA3799A42FFF433AF99E737482F21B1
:1075200026F0FCF900287FD02F21344826F0F6F908
:10753000411C334B384AD3F8043500920420A7226B
:107540001AF0FAFF52E72D482F2126F0E7F900281C
:1075500043D02F21294826F0E1F9411C284B2F4A1E
:10756000D3F8043500920420A1221AF0E5FF54E775
:1075700022482F2126F0D2F9002861D02F211F4860
:1075800026F0CCF9411C1E4B254AD3F80435009255
:1075900004209C221AF0D0FF52E7184A6A2122F0F8
:1075A0003DF8F4E6154A7D2122F038F80FE713483C
:1075B0002F2126F0B3F9002862D02F210F4826F0A2
:1075C000ADF9411C174A0E4B0420D3F80435CDE920
:1075D00000257B221AF0B0FFF1E608485C2126F076
:1075E0009DF9002859D05C21044826F097F9411CE8
:1075F000B4E700BF4C2E0020482E002084DB04009E
:1076000000100140D4DB040000700200D8FF040029
:1076100004DC0400ECDB040070DC040064DC040027
:1076200058DC04001CDC040039485C2126F076F9A3
:10763000002834D05C21364826F070F9411C78E7E8
:1076400033485C2126F06AF928B35C21304826F0E3
:1076500065F9411C97E72E482F2126F05FF9002895
:1076600042D02F212A4826F059F9411C294B2A4A99
:10767000D3F804350092042094221AF05DFFFDE651
:1076800023485C2126F04AF960B35C21204826F0AB
:1076900045F9411C96E71E4975E71D495EE71C49FF
:1076A00047E71B485C2126F039F940B35C211848B4
:1076B00026F034F9411C1EE715485C2126F02EF90E
:1076C000F8B15C21124826F029F9411CF5E6104872
:1076D0005C2126F023F9B0B15C210D4826F01EF99B
:1076E000411C32E60A496DE709485C2126F016F98B
:1076F00058B15C21064826F011F9411CB6E704494F
:10770000F9E60349D9E602491FE60149AEE700BFA1
:1077100084DB04000010014048DC04000378232BC4
:1077200000D0704700B51A4B1B685B0483B003D5CB
:10773000184B1B68032B09DC0322C8210F2002F021
:107740007BFF03B05DF804EB14F02CB812482F2136
:1077500026F0E4F870B12F210F4826F0DFF8411C25
:107760000E4B0F4AD3F8043500920420B4221AF0CD
:10777000E3FEE1E708485C2126F0D0F828B15C215F
:10778000054826F0CBF8411CEAE70349E8E700BFCB
:107790004C2E0020482E002084DB04000010014005
:1077A00080DC040000B58DB021F0B8FC002840F06A
:1077B0009580AE4DAE4C02F0ABFFAE4A04214CF2C8
:1077C00087001AF0A9FE2B685A0403D52368032BFF
:1077D00000F3F88003F086FC2422002103A825F0A2
:1077E00097FE0123072106228DF80C308DF80F102B
:1077F000A14BA2498DF8142003A8079313F0E4FECF
:10780000002845D00B2840F0F3802B685B043FD55F
:107810002368032B3CDD9A482F2126F07FF828B1FE
:1078200097482F2126F07AF801300BE094485C212C
:1078300026F074F8002800F0178191485C2126F0AA
:107840006DF801308F4B904AD3F804350092014611
:10785000CF2204201AF070FE2B68580418D5236834
:10786000032B15DD86482F2126F058F8002800F05C
:10787000F08083482F2126F051F80130814B834A54
:10788000D3F8043500920146D02204201AF054FEA9
:10789000002002F041FD002879D17D487D4B036036
:1078A00018F02AF82B68590429D4744B1B78002B44
:1078B00041D002F051FDE0B913F0CCFF03F0FCFA27
:1078C00013F0DAFE78B92B685B0402D52368032B2A
:1078D00062DCFFF711FDFFF70FFDFAE7684AE221CE
:1078E00021F09CFE65E7664A40F2071121F096FE02
:1078F000E9E7634A4FF4817121F090FEDCE72368E9
:10790000032BD2DD5E482F2126F008F8002800F076
:1079100093805B482F2126F001F80130594B5E4AD5
:10792000D3F8043500920146EC2204201AF004FE3C
:10793000524B1B7873B90023CDE90333CDE90533EE
:10794000564A0793564B03A8CDE9082302F0A0FD41
:10795000002852D12B685A04ABD52368032BA8DD2D
:1079600047482F2125F0DAFF002856D044482F2120
:1079700025F0D4FF0130434B4A4AD3F80435009236
:10798000014640F2011204201AF0D6FD91E73C4A6C
:10799000D92121F043FE80E739482F2125F0BEFF91
:1079A00080B337482F2125F0B9FF0130354B3E4ACF
:1079B000D3F804350092014640F2091204201AF06F
:1079C000BBFD86E72E482F2125F0A8FF002871D0A7
:1079D0002B482F2125F0A2FF01302A4B334AD3F840
:1079E000043500920146E62204201AF0A5FDF1E6D6
:1079F000234AD52121F012FE4AE7214AFD2121F038
:107A00000DFEA7E71E485C2125F088FF80B11C48C9
:107A10005C2125F083FF0130C8E719485C2125F07F
:107A20007DFF38B116485C2125F078FF0130A2E7D0
:107A30001348BBE712489EE711485C2125F06EFF12
:107A400028B10F485C2125F069FF013066E70C483A
:107A500064E70B485C2125F061FF48B308485C21CE
:107A600025F05CFF013009E70548EBE64C2E0020CD
:107A7000482E0020ED2404001D770200FC2E00207B
:107A800084DB040000100140C4DC040014DD0400A9
:107A9000002F0020FD72020050DD04006CDD0400A8
:107AA000BCDD040084DD0400A4DD04009CDC0400D3
:107AB0000748E3E606485C2125F030FF28B104487A
:107AC0005C2125F02BFF013087E7014885E700BFE7
:107AD00084DB04002DE9F041184E194D194C0027A4
:107AE0002B78326863B1E2B9164BD3F8081139B17B
:107AF000C3F80821D3F80811D3F808110029F7D1E9
:107B0000104BD3F81C2152B10F4A0021C3F81C11AD
:107B10001268D3F81C3112B1BDE8F0411047BDE83E
:107B2000F081D4F80831002BEAD0C4F80871D4F8F9
:107B30000831D4F81805C0B29047D1E7102F0020C3
:107B40000C2F002000200040142F002000283BD0E4
:107B5000002939D01D4A1E4B70B41E4D10604FF0E5
:107B6000A04229600C2003214025C2F820070626E8
:107B7000C2F81C07C2F818170820C2F80855C2F846
:107B8000141705250722C3F80C650121C3F8140555
:107B9000114CC3F810251148C3F808550422842558
:107BA000C3F86C15C3F82405C3F800250020C3F8FA
:107BB0000453C025C3F80801C3F81C01196084F8F8
:107BC0000253226070BC70470E207047102F0020B7
:107BD00000200040142F002000E100E000E0D70169
:107BE000014B1870704700BF0C2F002038B50D4CAA
:107BF00023780BB1012038BD0B4D0C48294615F0F8
:107C000087FF0028F6D12A68094B0A491579012215
:107C10002270C3F81C550A80C3F81C019A60012029
:107C200038BD00BF383100205433002044330020D9
:107C300000200040182F002070B51C4C237893B111
:107C40001B4D2968B1B11B4E0A793388501C834201
:107C50001AD0934206DC1944174A0979013333805C
:107C6000C2F81C1570BD7846114D13F07FFC2968D1
:107C70000029E8D1104A114B0120D060186821700A
:107C8000BDE8704019F060BA01330D48338015F03B
:107C9000CDFF0949094A002301202B60C860106804
:107CA0002370BDE8704019F04FBA00BF3831002092
:107CB00054330020182F0020002000401C2F0020EB
:107CC0004433002010B5124912484FF4027215F0E7
:107CD000F5FD114911484FF4027215F0EFFD1049FE
:107CE0001048FFF733FF78B90120FFF779FF0E4CFA
:107CF0000E490F4A0F48002323700B80138019F0A0
:107D000003FA0D4B186010BD784613F02FFCEBE71B
:107D10003C31002044330020242F00202C3100204F
:107D2000397C0200C17D0200383100203A31002048
:107D3000182F0020ED7B02001C2F002030B5421CC4
:107D400083B004460D46064892B201A915F044FEE0
:107D500018B9019B1A1D2A601C7103B030BD00BF09
:107D60004433002038B5044608B314F8023C012B14
:107D7000A4F1040502D0784613F0F8FB227834F819
:107D8000043C9A420FD819F049F90B4B186819F0C6
:107D9000DBF934F8042C0948294615F075FEBDE8D6
:107DA000384019F07FB9784613F0E0FBEBE77846EE
:107DB00013F0DCFBD9E700BF1C2F00204433002068
:107DC0002DE9F041304C238882B023B1013B238060
:107DD00002B0BDE8F0812D4E33880546B3B12C4C7E
:107DE0002168CA18013315710A799BB20132934296
:107DF0003380EDD1002BEBD00A882648002515F002
:107E000043FE256000F0D2FC3580E1E7DFF890808A
:107E1000B8F8007007B9471C012F07D91D4815F0A5
:107E200039FD874202D8B7F5807F10D90422013F7F
:107E3000194827800DEB020115F0CEFD0028C7D1AF
:107E40000198164B40F8043FFFF78CFFC0E7104C39
:107E5000104821463A4615F0BFFD78B9B8F8003011
:107E600013B933882168BCE733882168A8F800007B
:107E7000CA18013F013317719BB2B2E70020A8F87E
:107E80000070FFF7ADFEA3E7202F0020583300203D
:107E9000503300202C310020443300200384008420
:107EA0003A31002010B582B0044601A90B4815F004
:107EB0002FFE10B1002002B010BD0199204631F80C
:107EC000042B25F08BFA0199044815F0AFFE012030
:107ED000FFF786FE012002B010BD00BF2C3100204C
:107EE00070B50446084659B915461E4600F078FCA0
:107EF000334601462A462046BDE8704000F0A0BC4B
:107F000000F06EFC002301461A462046BDE8704092
:107F100000F096BC70B44678E2B10C46002303E052
:107F20009A4204F1080415D011F83350B54203F118
:107F30000103F5D163780278934204D2A17801332A
:107F40000B449A420DDD002330461A4670BC842152
:107F500000F076BC002330461A4670BC822100F047
:107F60006FBC636870BC184730B5ADF53F7D7D23AD
:107F700005460DF106024088ADF8063041A905F02E
:107F80006DFD044608B1092816D1BDF80630ADF8DC
:107F9000083041A95A000DF10A0025F01FFA2046C9
:107FA0006D7800F01DFC02AA0146FC23284600F073
:107FB00047FC0DF53F7D30BD6C7800F011FC0023CF
:107FC00001461A46204600F03BFC0DF53F7D30BDD2
:107FD00010B582B0416804460DF10602408805F0F4
:107FE0000BFDBDF80630ADF8043001460223607881
:107FF00001AAFFF775FF02B010BD00BF10B582B037
:10800000044601A9408805F0D7FC019B0093014676
:10801000042360786A46FFF763FF02B010BD00BF1B
:1080200010B582B0044601A9408805F0B9FC01AA48
:10803000014601236078FFF753FF02B010BD00BF77
:1080400010B582B0044601A9408805F09DFC01AA44
:10805000014601236078FFF743FF02B010BD00BF67
:1080600010B582B004460DF10601408805F080FC91
:10807000BDF80630ADF8043001460223607801AA4D
:10808000FFF72EFF02B010BD10B50446818840886E
:1080900005F042FC647800F0A3FB002301461A4679
:1080A0002046BDE8104000F0CBBB00BF10B582B049
:1080B000044601A9408805F019FC01AA01460123E4
:1080C0006078FFF70DFF02B010BD00BF10B5044689
:1080D0000179408805F0CCFB647800F081FB002337
:1080E00001461A462046BDE8104000F0A9BB00BF7B
:1080F00010B582B004460DF10601408805F070FB12
:10810000BDF80630ADF8043001460223607801AABC
:10811000FFF7E6FE02B010BD10B504468188408826
:1081200005F022FB647800F05BFB002301461A4651
:108130002046BDE8104000F083BB00BF30B5ADF570
:108140003F7D7D2305460DF106024088ADF80630DF
:1081500041A905F087FA044608B1092816D1BDF8EF
:108160000630ADF8083041A95A000DF10A0025F09B
:1081700035F920466D7800F033FB02AA0146FC2356
:10818000284600F05DFB0DF53F7D30BD6C7800F0BA
:1081900027FB002301461A46204600F051FB0DF54F
:1081A0003F7D30BD10B504468188408805F00EFA49
:1081B000647800F015FB002301461A462046BDE80E
:1081C000104000F03DBB00BF10B5044681884088D8
:1081D00005F0B4F9647800F003FB002301461A4669
:1081E0002046BDE8104000F02BBB00BF30B5ADF518
:1081F0003F7D7D2305460DF106024088ADF806302F
:1082000041A905F057F9044608B1092816D1BDF86F
:108210000630ADF8083041A95A000DF10A0025F0EA
:10822000DDF820466D7800F0DBFA02AA0146FC2357
:10823000284600F005FB0DF53F7D30BD6C7800F061
:10824000CFFA002301461A46204600F0F9FA0DF550
:108250003F7D30BD10B504468188408805F0DEF8CA
:10826000647800F0BDFA002301461A462046BDE8B6
:10827000104000F0E5BA00BF10B504468188408880
:1082800005F07AF8647800F0ABFA002301461A464C
:108290002046BDE8104000F0D3BA00BF10B582B050
:1082A000044601A90DF10502408804F0BFFF01AAB0
:1082B000014602236078FFF713FE02B010BD00BF35
:1082C00010B5044642790179408804F057FF64787C
:1082D00000F086FA002301461A462046BDE8104009
:1082E00000F0AEBA10B582B004460DF10601408828
:1082F00004F0B2FEBDF80630ADF8043001460223AA
:10830000607801AAFFF7ECFD02B010BD10B504467D
:108310008188408804F064FE647800F061FA0023EC
:1083200001461A462046BDE8104000F089BA00BF59
:1083300010B54378F42B044606D820460449BDE81E
:1083400010401522FFF7E6BD784613F00FF9F4E769
:10835000CCDD040010B504464078A0F1400386B09F
:10836000142B0CD8DFE803F0122F121212120B0B91
:108370000B0B0B0B0B0B0B0B0B0B0B192400DBB2BA
:108380001F2B03D9784613F0F1F8607800231A46C2
:10839000822100F055FA06B010BD2378112B1DD0B4
:1083A00000231A468421532000F04AFA06B010BD7B
:1083B0002378012B1CD000231A468421542000F07E
:1083C0003FFA06B010BD2378012B1FD000231A46B8
:1083D0008421412000F034FA06B010BDA01C13F037
:1083E00011FA002360781A46194600F029FAD2E7FC
:1083F00013F030FA1022014602A824F0EFFF607853
:1084000002AA1023002100F01BFAC4E768461FF0FF
:108410006BF99DF800300DF10101C3F3460306220C
:108420000DF109008DF8083024F0D8FF607802AA19
:108430000723002100F004FAADE700BF10B50446A1
:108440004078782806D00023BDE810401A468221E3
:1084500000F0F6B92046002210F8021B013912F094
:10846000A5FC647800F0BCF9002301461A462046BA
:10847000BDE8104000F0E4B92DE9F0414C4BDFF8C5
:108480006C814C4F4C4E0022C4B01A7004A8FFF708
:1084900009FD78B19DF811401F2C71D9A4F140035A
:1084A0001F2B0AD8454B04A8984704A8FFF7FAFCED
:1084B0000028EFD144B0BDE8F0816F2C22D98F2C79
:1084C0006BD9BF2C6BD9CF2C22D8202C08BF4346A8
:1084D000E9D03B4B1B681B0403D53A4B1B68012BAF
:1084E00020DC394D2B78022BD0D103A90320FFF7D4
:1084F00025FC042841D009283FD058B3784613F012
:1085000035F8C3E7A4F160030F2BDCD82F4BCAE783
:10851000DF2C46D9F42C46D9FB2CDAD9FF2CD8D045
:108520003B46C0E72A482F2125F0F8F950B32F2108
:10853000274825F0F3F9411C9DF81100254AD6F88B
:108540000435CDE900208122022019F0F5FF9DF8C5
:108550001140C6E7039A2B7884215170039A9470D6
:10856000039A8221D170022B039C02D0784612F02C
:10857000FDFF2046FFF7F6FB88E701F0C3FE85E725
:10858000154B90E712485C2125F0C8F968B15C21D1
:108590000F4825F0C3F9411CCEE7104B83E7104B81
:1085A00081E7104B7FE7104B7DE70949C4E700BF27
:1085B0005A330020819F02000010014055830200C1
:1085C0004C2E0020482E00205B330020258E020018
:1085D00074DE0400C8DE0400E1A202003D84020053
:1085E000899D0200659202003183020069A30200A6
:1085F00038B5054D2C780CB1082038BDFFF762FB6B
:10860000012320462B7038BD5B33002070B54A4EE5
:108610003378012B84B023D0484B1B681A0403D451
:108620000824204604B070BD454B1B68012BF7DDC4
:1086300044482F2125F072F900286DD02F214148A0
:1086400025F06CF9411C404B404AD3F804350092A8
:108650000220992219F070FF0824204604B070BD52
:10866000022503A904203570FFF768FB042804469F
:1086700027D0092825D038B3784612F077FF2F4B42
:108680001B681B0418D52E4B1B68002B14DD2D48CE
:108690002F2125F043F9002833D02F21294825F038
:1086A0003DF9411C2A4A284B0120D3F80435CDE975
:1086B0000024A32219F040FF01232046337004B0A8
:1086C00070BD01F01FFEDAE7039B327881215970FB
:1086D00003994FF080438D70D3F80034039903F071
:1086E0000803CB70039CFE23022A237102D0784634
:1086F00012F03CFF2046FFF735FB0024204604B073
:1087000070BD10485C2125F009F990B15C210D483D
:1087100025F004F9411CC5E70A485C2125F0FEF864
:1087200028B15C21074825F0F9F8411C8BE7054981
:1087300089E70449B6E700BF5B3300204C2E0020D8
:10874000482E002074DE040000100140E0DE04002A
:10875000F4DE040010B50C4B1B78022B02D0082469
:10876000204610BDFFF7EAFA0428044608D009287D
:1087700006D00028F4D0784612F0F8FE204610BD4E
:1087800001F0C0FD204610BD5B33002010B5064B44
:108790001B78022B044602D0784612F0E7FE2046F2
:1087A000BDE81040FFF7DEBA5B33002038B5094C56
:1087B00025781DB9084B1B78022B00D038BD01234A
:1087C00006482370294618F001FC0028F6D02570D1
:1087D00038BD00BF5A3300205B330020798402008B
:1087E000112811D80138102821D8DFE800F00B0B30
:1087F000160909091E0B180B14181A1609141C0067
:108800008E2070478320704743F20103984214BFC3
:1088100080208E20704787207047812070478420F9
:10882000704793207047862070478520704700204E
:10883000704700BF014B1878704700BF5B330020C2
:108840002DE9F041074682B088461C4615463AB1EC
:1088500043B1204E3378022B0BD002B0BDE8F0813B
:10886000002BF6D078461B4E12F080FE3378022B98
:10887000F3D1E01C80B201A9FFF760FA042824D0EC
:10888000092822D028B1784612F070FE02B0BDE867
:10889000F081019B84225A70019B9F70019B83F899
:1088A00003802DB1019822462946043024F096FD1C
:1088B0003378019C022B02D0784612F057FE2046F6
:1088C000FFF750FA02B0BDE8F08101F01BFD02B0E5
:1088D000BDE8F0815B33002030B5037883B00446F7
:1088E0000C2B39D8DFE813F044006D0077000D0041
:1088F0008100AC00DE001001380042018201CF018E
:108900003A0001A90320FFF725FF28BB019AB54BC8
:10891000C4215170626801999A4200F0E78103F521
:108920009A70824200F0F98103F51A70824200F0D9
:10893000F68103F56770824200F0D78103F59A63F0
:108940009A4208BF042000F0D181FF238B70237A64
:10895000CB700198FFF71AFF03B030BD01A90320C7
:10896000FFF7F8FE0028F7D1019A9E4BC921D0E706
:108970009D4B1B78002BEFD001A91A20FFF7EAFED0
:108980000028E9D1019BC0225A70019D211D1022AF
:10899000A81C24F023FDE36993F90D30AB74237D0B
:1089A000EB74E3699B7BC3F346032B75E16905F127
:1089B00015000F31062224F011FD0198FFF7E6FEA5
:1089C000CAE701A90220FFF7C5FE0028C4D1019A19
:1089D000844BC12112E001A90320FFF7BBFE002850
:1089E000BAD1019A7F4BC22193E701A90220FFF778
:1089F000B1FE0028B0D1019A7A4BCA215170626849
:108A000001999A4200F0758103F59A70824200F054
:108A1000888103F51A70824200F0858103F5677042
:108A2000824200F0658103F59A639A4208BF0420F0
:108A300000F05F81FF238B700198FFF7A7FE8BE7A3
:108A400001A91320FFF786FE002885D1019A654B06
:108A5000C8215170626801999A4200F0668103F55D
:108A60009A70824200F0658103F51A70824200F02C
:108A70006C8103F56770824200F0438103F59A63CD
:108A80009A4208BF042300F03D81FF238B70237AB4
:108A9000CB70627A081DE16824F0A0FC0198FFF712
:108AA00075FE59E701A90520FFF754FE00287FF461
:108AB00053AF019A4B4BC6215170626801999A429B
:108AC00000F01D8103F59A70824200F0368103F5B3
:108AD0001A70824200F0378103F56770824200F01D
:108AE0000D8103F59A639A4208BF042000F00781C4
:108AF000FF2303228B70CA70237A0B71637A01986B
:108B00004B71FFF743FE27E701A90520FFF722FE7F
:108B100000287FF421AF019A324BC6215170626860
:108B200001999A4200F0F18003F59A70824200F0B8
:108B3000068103F51A70824200F00D8103F567701B
:108B4000824200F0E18003F59A639A4208BF042054
:108B500000F0DB80FF2301228B70CA7010230022FB
:108B600001980A714B71FFF711FEF5E601A90B2080
:108B7000FFF7F0FD00287FF4EFAE019A194BC321F7
:108B800051706168019A994200F0B68003F59A70BD
:108B9000814200F0CC8003F51A70814200F0D7804A
:108BA00003F56770814200F0A68003F59A6399424D
:108BB00008BF042000F0A080FF239370237AD370B5
:108BC000E37A1371237B5371637B9371E389A2F87A
:108BD0000730237C5372B4F8113001985381FFF7AA
:108BE000D5FDB9E6643C0020B442002001A92C2048
:108BF000FFF7B0FD00287FF4AFAE019A584BC521B6
:108C000051706268019D9A4200F0858003F59A7167
:108C10008A4200F0908003F51A718A4200F09D802C
:108C200003F567718A4275D003F59A639A4208BFCB
:108C3000042070D0FF23AB70E368D3F81230C5F87E
:108C40000330E368DB8AA5F80930E3681B8AA5F8DE
:108C50000730E3681B7EC3F30003EB72E3681B7EFF
:108C6000C3F340032B73A168102205F10D0024F01B
:108C7000B5FBE16805F11D00102224F0AFFB01985F
:108C8000FFF784FD68E601A96220FFF763FD002875
:108C90007FF462AE019A324BC72151706268019D28
:108CA0009A4235D003F59A718A424AD003F51A7177
:108CB0008A424ED003F567718A4228D003F59A6341
:108CC0009A4208BF042023D0FF23AB70A168402242
:108CD000E81C24F083FBE16805F14300202224F026
:108CE0007DFB0198FFF752FD36E60320C3B22DE667
:108CF0000320C3B29FE60320C3B25EE70320C3B2E2
:108D0000F7E60323DBB2C1E60320C3B223E7032067
:108D1000C3B2DAE70320C3B28DE70120E6E7022001
:108D2000E4E70120E5E70220E3E70346EAE7012064
:108D3000E2E70123E6E70120EDE70120DFE701207C
:108D4000E3E70120E4E70220D9E70223DAE7022083
:108D5000D2E70220DCE70220D7E70220DBE700BFF2
:108D6000643C002070B5264B1B681B0482B003D501
:108D7000244B1B68032B21DC234924480EF0BCFB49
:108D8000C0B9234C234D04F6E806204610F08CFCB5
:108D9000014628460EF09AFB40B904F5E474B4424B
:108DA00005F59A75F1D1002002B070BD784612F039
:108DB000DDFBF2E7784612F0D9FBE2E716482F21F7
:108DC00024F0ACFD78B12F21134824F0A7FD411CFD
:108DD000124B134AD3F804350092042040F20B12D0
:108DE00019F0AAFBC8E70C485C2124F097FD28B1D4
:108DF0005C21094824F092FD411CE9E70649E7E7B8
:108E00004C2E0020482E0020443C002074420020BC
:108E10005C330020643C00202CDF04000010014083
:108E20008CDF04002DE9F0414378613B8AB00446B1
:108E30000A2B13D8DFE803F023333D4B12606C0696
:108E4000788C15008578042D40F2B6800B21012323
:108E500003AA68208DF80C50FFF742F80AB0BDE86D
:108E6000F0818078042800F2A080904B4FF49A7231
:108E700002FB003000F597700222E11C5DE08C4B94
:108E80001A78002A40F08A8001228A481A700EF06F
:108E9000ABFC002853D0784612F068FB4FE0844AC0
:108EA0001378002B6FD11A4683216220FFF7C8FC8C
:108EB000D4E78678042E40F2AD800B2103AD2A461C
:108EC000012363208DF80C60FFF70AF8C6E7794BA1
:108ED0000093794A794B7A4974480EF0DBFA0028FE
:108EE00000F091806478FFF77BFC002301461A466E
:108EF0002046FFF7A5FCB1E78578042D76D90B2134
:108F0000012303AA66208DF80C50FEF7E9FFA5E7C0
:108F10008578042D5BD90B21012303AA67208DF8E6
:108F20000C50FEF7DDFF99E7811C2022624824F0F7
:108F300055FA6348402204F1220124F04FFA00233D
:108F400060781A461946FFF77BFC0AB0BDE8F0814D
:108F50005A4A83781370002393700121E5780079D1
:108F60005170217AD57011721071B4F80910A2F8FD
:108F7000091061795171E188D18060781A461946EB
:108F8000FFF75EFC6AE7002515700EF035FC60788F
:108F90002B462A462946FFF753FC5FE700231A4673
:108FA00083216120FFF74CFC58E700231A468321F8
:108FB0006B20FFF745FC51E73C4B4FF49A7000FBE8
:108FC0000530E11C0EF008FCA57801463FE701469C
:108FD000364B11F8032B4FF49A70023A00FB053020
:108FE000D2B20EF035FBA578014695E72F494379BB
:108FF00002794FF49A7000FB0510E1780EF01CFB2B
:10900000A57801467CE702460146012327480EF079
:1090100075FA67E703AD0023102204F11301284617
:10902000C5E90233C5E904336B6003932B7624F062
:10903000D5F9022204F1230107A824F0CFF9042274
:1090400004F125010DF11E0024F0C8F994F82A60FE
:1090500094F829209DF82430A078144F15490091E8
:10906000760002F0010206F00206164323F0030325
:109070004FF49A781249104A1E4308FB00700F4BB8
:109080008DF824600EF006FA014608B1A67816E7BE
:10909000A07894F82B2001230093E11C08FB0070BA
:1090A0002B460EF0A7FA0146F0E700BF643C002013
:1090B000B4420020D9880200443C002068420020CD
:1090C0007442002010B50378073B82B00446062B9B
:1090D00029D8DFE803F03351617B98042A0001A905
:1090E0001620FFF737FBF0B9019BA5225A70019BB0
:1090F00022799A702346019A53F8051F5868C2F8DE
:109100000700C2F803101B89A2F80B3054F80F3F78
:1091100001986268C0F81120C0F80D302389A0F8CA
:109120001530FFF733FB02B010BD01A91620FFF781
:1091300011FB0028F7D1019BA622D7E701A90D203A
:10914000FFF708FB0028EED1019BA0225A70019B7B
:1091500022799A702346019A53F8051F5868C2F87D
:109160000700C2F803101B89A2F80B300198E37BBB
:109170004373FFF70BFBD6E701A90220FFF7EAFADA
:109180000028D0D1019BA1225A70019B22799A70AC
:109190000198FFF7FBFAC6E701A90D20FFF7DAFAFD
:1091A0000028C0D1019BA2225A70019B22799A709B
:1091B000019B6279DA7054F8063F01986268826018
:1091C000436023898381FFF7E1FAACE701A90E2010
:1091D000FFF7C0FA0028A6D1019BA3225A70019B79
:1091E00022799A70019B6279DA702346019853F8CC
:1091F000062F5968816042601B898381237C8373B9
:10920000FFF7C4FA8FE701A91520FFF7A3FA00289A
:1092100089D1019BA4225A70019B22799A7023461E
:10922000019A53F8051F5868C2F80700C2F80310E6
:109230001B89A2F80B3001982369C0F80D306369CF
:10924000C0F81130237E4375FFF7A0FA6BE700BF2B
:109250000248034B036016F04FBB00BFB84200202A
:10926000C590020030B504464078A0F1D003062B2B
:109270008BB004D8524A2178D25C914208D1062B97
:1092800000F28D80DFE803F01522292E31570B0004
:1092900000231A468421FFF7D3FA0BB030BD2378A0
:1092A000012B52D000231A468421D620FFF7C8FA9A
:1092B000F3E711F053FD6478FFF792FA00230146BB
:1092C0001A462046FFF7BCFA0BB030BDD4F80D208B
:1092D000A078E11C11F0A0FEEDE7A078E11C11F0F0
:1092E00003FFE8E711F06CFFE5E76946A07811F0AD
:1092F0009BFF01460028DED19DF80020DDF80150DB
:10930000BDF809306078DDF805408DF81420CDF8FF
:1093100015509DF80B20039DCDF81940ADF81D3078
:10932000049C8DF81F2014230DEB0302CDE9085493
:10933000FFF786FAB1E72378022B2CD000231A46D8
:109340008421D520FFF77CFAA7E700210A220DF13E
:10935000020024F0DDF8684611F0B8FF014600284D
:10936000A9D1DDF80230DDF806206078BDF80040B4
:10937000BDF80A50ADF81440CDF81630BDF80C40D9
:10938000CDF81A200E2305AAADF81E50ADF82040E6
:10939000FFF756FA81E7A07811F072FF8BE700F132
:1093A0003003DBB20F2B05D800231A468221FFF7CA
:1093B00047FA72E7784612F0D9F86078F4E700BF10
:1093C000B0DF0400F0B5037883B00446052B3DD828
:1093D000DFE803F00356687A3C3E0789514EEB2FD5
:1093E000384628BFEB20143080B23146FFF7B2F97F
:1093F00060BB35682389A5F81330237D012B76D116
:10940000D0236B70E38AAB80E3896B80206A06F01F
:10941000D3FFE880E06906F02BFF288194F8243020
:10942000AB72A36A9B7BC3F34603EB72A16A06226D
:109430000F3105F10C0023F0D1FFA36A93F90D3031
:10944000AB74002F60D13068FFF7A0F903B0F0BD16
:10945000344D07202946FFF77DF90028F6D12B6807
:10946000D8225A702B6822799A702B686279DA7048
:109470002868E38883802389C380FFF787F9E5E7BD
:10948000284D05202946FFF765F90028DED12B6815
:10949000D2225A702B686268C3F802202868FFF74E
:1094A00075F9D3E71F4D05202946FFF753F900282A
:1094B000CCD12B68D3225A702B68E268C3F8022003
:1094C0002868FFF763F9C1E7164D04202946FFF726
:1094D00041F90028BAD12B68D4225A702B68A2888F
:1094E0005A802868237B0371FFF750F9AEE7D12338
:1094F0006B700DF1060104F1140006F0BDFC68B9B3
:10950000BDF80630AB807FE7EB2F3A46616828BF95
:10951000EB2205F1150023F061FF94E7784612F085
:1095200025F8EDE7D442002030B585B0D0F80630FC
:10953000D0F802200092002504466846CDE90235A5
:1095400001951BF051FE2B4601462A466078FEF736
:10955000C7FC05B030BD00BF002340781A46082183
:10956000FEF7BEBC00B583B01023ADF804304078E0
:10957000022301AA0021FEF7B3FC03B05DF804FB4F
:1095800000B583B00123ADF804304078022301AA6E
:109590000021FEF7A5FC03B05DF804FB00B583B025
:1095A0000823ADF804304078022301AA0021FEF719
:1095B00097FC03B05DF804FB00B583B00423ADF85D
:1095C00004304078022301AA0021FEF789FC03B091
:1095D0005DF804FB30B587B0C278837804468068B4
:1095E0000390B4F80F006568217B029543EA0223DB
:1095F000D4F80D20ADF804308DF81010CDF81220FD
:1096000006F008FE4FF6FF73984207D10B210023A6
:1096100060781A46FEF764FC07B030BD01A81BF065
:1096200059FE0146F3E700BF30B58BB0044605A9EB
:109630004FF480201CF0D8FBC8B903A94FF4403088
:109640001CF0D2FB059B9DF81820BDF8195007931C
:1096500001468DF820206078039CADF821500B2343
:1096600007AACDF82340FEF73BFC0BB030BD00232A
:1096700001461A466078FEF733FC0BB030BD00BFE0
:1096800010B5044640880CF0BBFD002301461A4685
:109690006078BDE81040FEF723BC00BF10B504465B
:1096A00012F072F8002360781A46BDE8104019469F
:1096B000FFF7C6B810B582B00446684605F0E2FB75
:1096C000009B0193042360780DEB03020021FEF759
:1096D00007FC02B010BD00BF30B58DB00446242297
:1096E000002103A823F014FF16F012F9D4F8023079
:1096F000024603A960890192029306F06FFA0146BF
:1097000030B16078082301AAFEF7EAFB0DB030BD46
:10971000684605F0B7FB2389BDF80020934236D395
:10972000BDF802100A44934231DAE18809AA4FF6E3
:10973000FF7008F05DFA01460028E2D1637B2078D3
:10974000227A657A003B18BF01230F2888BFA0F159
:109750000F0142EA052288BF89B2ADF814208DF8C6
:109760001730227BA37B8DF816208DF8183098BF18
:109770000A46019BADF8201088BF04F110020021B9
:1097800003A807920B9316F0B5F80146B9E710212C
:10979000B7E700BF30B5ADF53F7D7E23044669468F
:1097A00040A8009306F054FA009B05467BB15A008E
:1097B00040A901A823F012FE009B60785B009BB2D9
:1097C00001AA2946FEF78CFB0DF53F7D30BD014611
:1097D0001A466078FEF784FB0DF53F7D30BD00BF73
:1097E00030B589B004466946408806F0F7F9002391
:1097F000CDE90233CDE9043305460693ADF81C30BC
:1098000030B1607802AA2946FEF76AFB09B030BD84
:10981000A378E2789DF800108DF80A1043EA02233D
:109820006846ADF8083009F0CFFA0199BDF802306A
:109830008DF80B00ADF80C3031B110220DF10E0097
:1098400023F0CCFD1623DCE70623DAE710B5044647
:1098500082B0408805F022FEA378E2780146607865
:1098600043EA0224022301AAADF80440FEF738FBC4
:1098700002B010BD10B582B004460DF106010230F1
:1098800005F0B4FCBDF80630ADF804300146022303
:10989000607801AAFEF724FB02B010BD10B582B0BB
:1098A00004460DF10601408805F0FCFABDF80630CB
:1098B000ADF8043001460223607801AAFEF710FBE0
:1098C00002B010BD10B5044682B0408806F03EF9E3
:1098D000A378E2780146607843EA0224022301AAD1
:1098E000ADF80440FEF7FCFA02B010BD10B582B02E
:1098F00004460DF10601023005F0A8FFBDF8063060
:10990000ADF8043001460223607801AAFEF7E8FAB8
:1099100002B010BD10B582B004460DF106014088BA
:1099200005F010FEBDF80630ADF804300146022304
:10993000607801AAFEF7D4FA02B010BD10B5044653
:1099400082B0D4F80230019301A805F053FA002345
:1099500001461A466078FEF7C3FA02B010BD00BF98
:1099600010B5044682B0408807F0A6FDA378E278DF
:109970000146607843EA0224022301AAADF80440BC
:10998000FEF7AEFA02B010BD10B582B08188044671
:10999000821D0DF10603408807F03EFCBDF806303D
:1099A000ADF8043001460223607801AAFEF798FA68
:1099B00002B010BD70B5ADF53E7D7D23044601AA11
:1099C0004088019341A908F067F8019B05463BB91F
:1099D00001461A466078FEF783FA0DF53E7D70BDAC
:1099E000A078E6785A0041A940EA06230DF10A0062
:1099F000ADF8083023F0F2FC019B607801335B0086
:109A00009BB202AA2946FEF76BFA0DF53E7D70BDAA
:109A100010B5044682B0408808F016F8A378E278C2
:109A20000146607843EA0224022301AAADF804400B
:109A3000FEF756FA02B010BD10B5011D82B0044603
:109A4000408807F08BFFA378E2780146607843EA0C
:109A50000224022301AAADF80440FEF741FA02B045
:109A600010BD00BF10B582B081880446821D0DF183
:109A70000603408807F046FDBDF80630ADF8043017
:109A800001460223607801AAFEF72AFA02B010BD4F
:109A900030B5ADF53F7D7E230546694640A800936D
:109AA00007F074FB009B04463BB901461A466878F0
:109AB000FEF716FA0DF53F7D30BD5A0040A901A80A
:109AC00023F08CFC009B68785B009BB201AA2146C6
:109AD000FEF706FA0DF53F7D30BD00BF10B5044618
:109AE00082B0408807F026FAA378E27801466078D1
:109AF00043EA0224022301AAADF80440FEF7F0F97C
:109B000002B010BD10B5011D82B00446408806F0B9
:109B1000DBFEA378E2780146607843EA0224022360
:109B200001AAADF80440FEF7DBF902B010BD00BF9A
:109B300010B582B00446011D0DF10602408806F002
:109B40000FFDBDF80630ADF8043001460223607801
:109B500001AAFEF7C5F902B010BD00BF10B54478E8
:109B600015F0B0FE002301461A462046BDE810401D
:109B7000FEF7B6B910B5447815F03CFE0023014657
:109B80001A462046BDE81040FEF7AAB930B583B0AA
:109B9000019148B9BDF8043033B9BDF80630032B44
:109BA000144619D0042B01D003B030BD144D082049
:109BB0002946FEF7CFFD0028F6D12B68D9225A702E
:109BC0002B682268C3F80220286823798371B4F8CF
:109BD0000530A0F807300EE0094D05202946FEF7B4
:109BE000B9FD0028E0D12B68DA225A702B68226870
:109BF000C3F80220286803B0BDE83040FEF7C6BDB8
:109C0000D042002030B585B005461BF05BFB0288D2
:109C100012B14188044669B901AC20460A220021EC
:109C200023F076FC687822460A230021FEF708FE1E
:109C300005B030BD4368ADF80420ADF8061043B15F
:109C4000B3F5004F23D94FF6FF7293421AD1FF228A
:109C500000E01A46A3688DF8092063B1B3F5803F90
:109C600020D85B0823D00022511C5B081046CAB2E2
:109C7000FAD1831CDBB2E268CDF80A208DF80830F7
:109C800001ACCFE7784611F071FC1022E2E75B08E7
:109C90000FD00021481C5B080A46C1B2FAD102323B
:109CA000D2B2D7E7784611F061FC1123E3E7012334
:109CB000E1E70122CEE700BF70B584B004461BF097
:109CC00005FB43680288ADF80420012B054636D910
:109CD000B3F5004F29D94FF6FF72934231D0784641
:109CE00011F044FC1023AA688DF8063062B1B2F579
:109CF000803F28D852082BD00023581C5208194600
:109D0000C3B2FAD18A1CD2B260782E7BD5F80E404D
:109D10008DF80720092301AA00218DF80860CDF8ED
:109D20000940FEF78DFD04B070BD013B5B0811D00A
:109D30000022511C5B081046CAB2FAD1C31CDBB228
:109D4000D1E7FF23CFE7784611F010FC1122DBE7C3
:109D50000122D9E70223C6E700B583B00823ADF896
:109D600004304078022301AA0021FEF7B9F803B0BD
:109D70005DF804FB0248034B036015F0BDBD00BF56
:109D8000C4420020C593020070B50446407800F13B
:109D90007003DBB22F2B31D8B32828D81A4DA0F18D
:109DA000900615F83630834210D105EBC6032578AE
:109DB0005A78AA4213D29878511C02460A44954216
:109DC0000DDC20465B68BDE870401847784611F00E
:109DD000CDFB05EBC60325785A78AA42EBD30023C6
:109DE00060781A46BDE870408421FEF729BD002343
:109DF000BDE870401A468221FEF722BD784611F078
:109E0000B5FB6078C8E700BFC0DF040070B5C0B024
:109E100005466946408803F0CFFD044690B91E4EC2
:109E2000736873B104223146684623F0A7FAB0B1D3
:109E3000336933B16846042206F10C0123F09EFA1F
:109E400060B1052420466D78FEF7CAFC0023014668
:109E50001A462846FEF7F4FC40B070BD012404EB1E
:109E6000440406EB84040022A3688DF8042001A9B1
:109E7000A81C98479DF804300446002BE2D06C786B
:109E8000FEF7AEFC9DF80430014601AA20460133DE
:109E9000FEF7D6FCE0E700BFD842002030B51B4DEE
:109EA000C1B00446FA2201A8002123F031FB6B68FF
:109EB00043B3042229460DF1060023F08FFABDF8C2
:109EC00004302A6901339BB2ADF80430D2B13D2B86
:109ED0001AD801AA02EB830005F10C01023004221A
:109EE00023F07CFABDF8043001339BB2ADF80430A6
:109EF00000219B00023360789BB201AAFDF7F0FFBE
:109F000041B030BD0021F4E70C21F2E7D842002037
:109F100070B51A4C636882B005467BB1861C04227A
:109F20002146304623F02AFA98B1236933B104223E
:109F300004F10C01304623F021FAE8B10023ADF81A
:109F4000043005216878022301AAFDF7C9FF02B099
:109F500070BD03465800184404EB80040022636877
:109F6000ADF804200DF1060130469847BDF80630E3
:109F7000ADF804300146E5E70123EBE7D8420020C5
:109F800010B54378FF2B044606D020460449BDE8AF
:109F900010400322FDF7BEBF784611F0E7FAF4E760
:109FA000E0E0040010B5042204460021054823F037
:109FB000AFFA002360781A46BDE810401946FEF754
:109FC0003FBC00BF2C44002010B5042282B00446E0
:109FD00000210DEB020023F09BFA054B60781B6813
:109FE000019301AA04230021FEF72AFC02B010BD50
:109FF0002C44002000B583B00A23ADF8043040782B
:10A00000022301AA0021FEF71BFC03B05DF804FB4C
:10A01000002340781A468221FEF712BC30B58578BD
:10A0200083B004465DB107206478FEF7D9FB0023B6
:10A0300001461A462046FEF703FC03B030BDD0F8B7
:10A0400005101A481DF0F2FA29460522684623F049
:10A050005FFA22799DF8033012F0010107D002A9BE
:10A0600019442520013301F8080CDBB201219007C7
:10A0700012D502A919442620013301F8080C510712
:10A08000DBB206D502AA1A4427210133DBB202F85B
:10A09000081C8DF8033003E05207F3D40029F8D1EF
:10A0A000024869461DF042FA0020BDE7F442002054
:10A0B00070B5857804462DB90E4E3378012B0DD03E
:10A0C000082000E007206478FEF78AFB00230146A1
:10A0D0001A462046BDE87040FEF7B2BB301D1DF0A9
:10A0E000F3FAA2784FF49E7303FB02F32846F5546B
:10A0F000E9E700BFF04200202DE9F04185780446F1
:10A100005DB107206478FEF76BFB002301461A4619
:10A110002046BDE8F041FEF793BB0778DFF84480A6
:10A12000023F394608F104001DF060F90646B8B157
:10A13000FF2303713A46E11C113023F04FF9A07858
:10A140004FF49E7707FB0080043031461DF08EF9F6
:10A15000A37807FB03F7012308F807302846D1E767
:10A160000420CFE7F042002010B50446012015F08E
:10A1700029FC002360781A46BDE810408E21FEF7C6
:10A180005FBB00BF10B582B0044601A90078FEF79E
:10A19000E1FA08B102B010BD019B82225A70019809
:10A1A00010F8022BA11C013A23F018F90198FEF7D0
:10A1B000EDFA02B010BD00BF70B5827882B00546DE
:10A1C000002A46D1384E8DF8002096F87B008DF895
:10A1D000022048B396F87830A3F12501CBB2022BC8
:10A1E0003FD801238B401343DBB201288DF80230A6
:10A1F0001AD996F87920A2F12501CAB2022A46D8C6
:10A2000001228A401343DBB202288DF802300BD9B9
:10A2100096F87A20A2F12501CAB2022A2DD801228D
:10A220008A4013438DF80230746F204B96F82C202F
:10A230008DF8012004F5FA74A3FB04346878A409AE
:10A2400007236A460021CDF80340FEF7F9FA02B071
:10A2500070BD002340781A468521FEF7F1FA02B05E
:10A2600070BD784611F082F996F878309DF802209A
:10A2700096F87B00A3F12501B3E7784611F076F953
:10A2800096F87A209DF80230A2F12501C7E77846BA
:10A2900011F06CF996F879209DF8023096F87B0061
:10A2A000A2F12501ACE700BFF0420020D34D6210BF
:10A2B000002340781A468221FEF7C2BA08B5064A42
:10A2C0009C23101D0021A0321CF0E2FFBDE80840D5
:10A2D00002481DF051B800BFF0420020F4420020B7
:10A2E00010B543781F2B044606D820460449BDE824
:10A2F00010400B22FDF70EBE784611F037F9F4E757
:10A30000F8E00400034A1368591C1CBF01331360B2
:10A31000704700BF2C44002038B50546FEF78AFA86
:10A32000B0B9FEF71FFD044608B1204638BDFEF760
:10A330005FF904460028F8D1FFF7C0FFFFF71AFDC8
:10A34000FEF786FF002DF0D0284600F007F8ECE776
:10A350000824204638BD00BFFEF758B9014B1860ED
:10A36000704700BF3044002010B50B4B1B680446FB
:10A370005BB110F8021B01399847002360781A4638
:10A38000BDE810401946FEF75BBABDE810404078C2
:10A390001A468E21FEF754BA3044002003781F2B52
:10A3A00002D1024B01221A70704700BF36440020D0
:10A3B00010B50378023B082B0FD8DFE803F00F44F9
:10A3C0002B0E0E380E0E0500D0E9021011F056F9D2
:10A3D00000284CD1274B01221A7010BD254B1B7849
:10A3E000002B3DD1244C226912B124490B709047B7
:10A3F000234B1B78002BF0D1224923480DF07CF829
:10A400000028EAD161690246BDE810401F480123D7
:10A410000DF074B8184BDB68002BDED0174A1178AA
:10A420000029DAD000211170BDE810401847124B06
:10A430001648996910220DF00BF90028CDD0BDE81F
:10A4400010401FF0DBB80C4B9B68002BC5D0007A86
:10A450000028C2D0094A01211170BDE810401847F8
:10A46000054B5B68002BB8D0BDE8104018471FF0C3
:10A47000C5F8AFE7354400203844002034440020BC
:10A480003644002054440020704700203C46002001
:10A49000F0B5214B214F044693E8070087B003AE87
:10A4A00003C64FEA124C26F8022B0FCC3D460FC5CF
:10A4B00094E8070085E80700BB6986F800C033B35D
:10A4C000174B0093174A1849184803AB0CF0E2FFEA
:10A4D00008B107B0F0BD16480FF0E6F80146134882
:10A4E0000CF0F4FF0028F4D1124815F005FA124BD5
:10A4F0001B787BB90B490C480CF0FEFF0028E8D113
:10A5000002467969094801230CF0F8FFE1E70720CA
:10A5100007B0F0BD0820DCE750E10400384400201B
:10A52000B1A3020054440020704700203C460020A4
:10A5300074440020002E0020364400202DE9F0470E
:10A54000DFF8ACA0DAF8000058B3254DDFF89880AA
:10A550002F68DFF8A0900024012606FA04F33B429E
:10A5600011D014F808001F288ABF4B464FF0A043B3
:10A5700000F01F02D3F8043598BF0246D340DA0733
:10A580000CD500F009FA0134042CE6D1DAF80040C9
:10A59000013CCAF800403CB1BDE8F08700F0ECF99E
:10A5A000F1E71FF02BF8D0E70E480F4F0F4E1EF0CB
:10A5B0008FFE4FF001082B6808FA04F21A4206D009
:10A5C0003368E05DE340DB0706D500F0E5F90134D0
:10A5D000042CF0D1BDE8F08700F0CEF9F7E700BF1A
:10A5E000B4470020B847002060E10400D8470020AD
:10A5F000B047002000030050F8B50E4F054661B982
:10A600000C46012606FA04F32B4202D0385D00F016
:10A61000B3F90134042CF5D1F8BD0024012606FA63
:10A6200004F32B4202D0385D00F0B6F90134042C5B
:10A63000F5D1F8BD60E10400002A4FD013294DD9AF
:10A64000F8B552002D4B2E4D013A1A6010F001035F
:10A65000286007D04FF0A043D3F804356FEA533396
:10A6600003F00103860709D54FF0A042D2F8042574
:10A670006FEA9232520002F002021343440709D5F6
:10A680004FF0A042D2F804256FEAD232920002F0D5
:10A6900004021343020709D54FF0A042D2F8042563
:10A6A0006FEA1242D20002F008021343154A4FF437
:10A6B000004013604FF4FA720023E0FB01231046C0
:10A6C00019464FF47A72002322F074FC00220146EE
:10A6D0000D481EF0A3FD044608B1F8BD70470B4FAE
:10A6E0002E68012505FA04F3334202D0385D00F0EC
:10A6F00053F90134042CF5D1F8BD00BFB047002058
:10A70000B4470020D8470020B847002060E104008B
:10A7100030B583B000F088F8E0B1144C002301227A
:10A72000ADF804308DF80630251D8DF8052014F89D
:10A73000010B01A900F082F848B9AC42F7D10C4AEC
:10A740000C4801211EF058FD58B903B030BD1EF071
:10A7500055FFF2E700F010F80028DED01EF04EFFA3
:10A76000DBE71EF04BFF03B030BD00BF60E104002B
:10A770003DA502005CE10400F0B5264C94F86A3077
:10A7800083B0002B42D14FF6FF70FF255A09012AF2
:10A790000CBF02464FF0FF3203F01F01CA40D20740
:10A7A00048BFE21803F1010348BF82F83050302B54
:10A7B000ECD14FF0FF334FF0FF364FF0FF3706225A
:10A7C000002115482366C4E90233C4E90433C4E90F
:10A7D0000633C4E90833C4E90A33C4E9006722F048
:10A7E00097FE0E4BC02283F8062340221A600C4BC2
:10A7F0000C4A002018601B68019301214FF00043B0
:10A80000019D84F86A10C2F8043300E0082003B008
:10A81000F0BD00BFE04700204448002000E100E018
:10A820007C61004000600040034B93F86A000038F0
:10A8300018BF0120704700BFE047002070B44B4BA9
:10A840001A1892F93040013402D0082070BC7047C9
:10A850008C78E4B11A6801327DD05A6801327CD01C
:10A860009A6801327BD0DA68013272D01A690132FB
:10A8700077D05A69013276D09A69013233D0DA69D9
:10A88000013208BF07222FD0042070BC7047FE237E
:10A8900082F830304B78012B4ED01F2887BF344AC6
:10A8A00000F01F0101464FF0A04201238B40C2F887
:10A8B0000C351F288BBF00F01F0303462C4A4FF0B6
:10A8C000A04203F5E073032142F82310C20829498E
:10A8D00000F007008C5C012303FA00F02043885449
:10A8E000002070BC70470622940004F1804404F5F7
:10A8F000C0441D18002643F8226085F83020D4F8A3
:10A9000010350A784D7823F4991323F4F853120480
:10A910002D05C4F8103505F4801502F44032030209
:10A920002A4303F47C53D4F8105513432B43C4F843
:10A9300010354B78012BB0D11F2887BF0C4A00F08F
:10A940001F0101464FF0A04201238B40C2F8083599
:10A95000AFE70322C8E70022C6E70122C4E70222CC
:10A96000C2E70422C0E70522BEE700BFE04700209F
:10A9700000030050444800201F2886BF054A00F00D
:10A980001F004FF0A042012303FA00F0C2F80805AF
:10A99000704700BF000300501F2886BF054A00F023
:10A9A0001F004FF0A042012303FA00F0C2F80C058B
:10A9B000704700BF000300502DE9F047002384B02A
:10A9C000CDE90233D54A1168012900F040821E46C4
:10A9D000D34B1A68012A00F02C82D24B1A68012A44
:10A9E00000F01982D04B1A68012A00F00682CF4B82
:10A9F0001A68012A00F0F381CD4B1A68012A00F091
:10AA0000E081CC4B1A68012A00F0CD81CA4B1A684C
:10AA1000012A00F0A181C94B1A68012A20D0E6B1B1
:10AA2000C74F01250024A30003F18043354203F5FD
:10AA3000C0434FEA45050BD0D3F8100557F8242042
:10AA4000D3F81015C0F30520C1F3014102B19047BE
:10AA50000134082CE7D1002E17DB04B0BDE8F087E5
:10AA600000221A601B6801934FF0A042019BD2F8AC
:10AA70002015B44B0291C2F82015D3F8202503927B
:10AA8000C3F82025002E40F08B81AD4CAD4E012542
:10AA90004FF0A04794F96000431C46D0C0F3C202B7
:10AAA00004AB1A4400F0070312F8082C05FA03F36C
:10AAB0001A42C1B200F03F0037D01F2800F22581B2
:10AAC00002464FF0A04909EB820304EB000ED3F8D5
:10AAD00000C7D3F8008728F44038C3F80087CCF3C8
:10AAE000014C9EF93080D3F800E754F82880BCF17F
:10AAF000020F0CBF4FF4403A4FF4003A05FA02F24D
:10AB00004EEA0A0EC3F800E7C9F82025B8F1000F95
:10AB10000BD08909032900F0B381BCF1020F00F0CA
:10AB2000BE81BCF1030F00F0A88194F96100411CC3
:10AB300046D0C0F3C20204AB1A4400F0070312F877
:10AB4000082C05FA03F31A42C1B200F03F0037D0D7
:10AB50001F2800F2DE8002464FF0A04909EB820375
:10AB600004EB000ED3F800C7D3F8008728F4403870
:10AB7000C3F80087CCF3014C9EF93080D3F800E78E
:10AB800054F82880BCF1020F0CBF4FF4403A4FF448
:10AB9000003A05FA02F24EEA0A0EC3F800E7C9F8D5
:10ABA0002025B8F1000F0BD08909032900F06D8131
:10ABB000BCF1020F00F06B81BCF1030F00F0628169
:10ABC00094F96200421C46D0C0F3C20204AB1A449E
:10ABD00000F0070312F8082C05FA03F31A42C1B279
:10ABE00000F03F0037D01F2800F2AE8002464FF041
:10ABF000A04909EB820304EB000ED3F800C7D3F899
:10AC000000879EF930E028F44038C3F80087CCF381
:10AC1000014CD3F800A754F82E80BCF1020F0CBFF2
:10AC20004FF4403E4FF4003E05FA02F24EEA0A0E9F
:10AC3000C3F800E7C9F82025B8F1000F0BD0890947
:10AC4000032900F01381BCF1020F00F02481BCF154
:10AC5000030F00F0088194F96300431C45D0C0F352
:10AC6000C20204AB1A4400F0070312F8082C05FADC
:10AC700003F31A42C1B200F03F0036D01F2867D854
:10AC800002464FF0A04909EB820304EB000ED3F813
:10AC900000C7D3F8008728F44038C3F80087CCF306
:10ACA000014C9EF93080D3F800E754F82880BCF1BD
:10ACB000020F0CBF4FF4403A4FF4003A05FA02F28B
:10ACC0004EEA0A0EC3F800E7C9F82025B8F1000FD4
:10ACD0000BD08909032900F0CE80BCF1020F00F0EF
:10ACE000E280BCF1030F00F0C380D7F82025029268
:10ACF000C7F82025D6F820350393C6F8203513432E
:10AD00007FF4C8AE04B0BDE8F08701F01F02B14681
:10AD1000D9E601F01F02B14620E700BF0061004004
:10AD200004610040086100400C6100401061004077
:10AD300014610040186100401C6100407C610040CB
:10AD4000E04700200003005001F01F02B14650E729
:10AD500001F01F02B14696E7554AD2F804231206C5
:10AD60007FF559AE00221A6019680091196E00989B
:10AD7000012903F1600346F080067FF450AE1A60AB
:10AD80001B6801934FF0A042019BD2F82015494B5C
:10AD90000291C2F82015D3F820250392C3F820258C
:10ADA00046F000463CE6424AD2F8042351067FF5BD
:10ADB0002DAE00221A601B680093009B46F04006EF
:10ADC00024E63B4AD2F8042390067FF51AAE00220F
:10ADD0001A601B680093009B46F0200611E6344A77
:10ADE000D2F80423D4067FF507AE00221A601B6850
:10ADF0000093009B46F01006FEE52D4AD2F804238E
:10AE000015077FF5F4AD00221A601B680093009BC4
:10AE100046F00806EBE5264AD2F8042357077FF5EB
:10AE2000E1AD00221A601B680093009B46F0040607
:10AE3000D8E51F4AD2F8042392077FF5CEAD002251
:10AE40001A601B680093009B46F00206C5E518498E
:10AE5000D1F8046316F001063FF4BAAD136013682D
:10AE60000093009BB4E502297FF4F5AEC047F2E6FB
:10AE700002297FF43AAFC04737E702297FF455AE85
:10AE8000C04752E602297FF49BAEC04798E60129ED
:10AE90007FF496AEF9E701297FF4DDAEE6E70129FC
:10AEA0007FF443AEECE701297FF41FAFE3E700BF77
:10AEB0000060004000030050002800F0ED80F0B575
:10AEC0007D4E33685A04CFB040F1D9807B4F3B6848
:10AED000032B40F3D4800278794B41781B680446F9
:10AEE00010090DAD185C287002F00F0208099A5C79
:10AEF0006A70185CA278A87001F00F011009595C03
:10AF0000E970185CE178287102F00F0208099A5C78
:10AF10006A71185C2279A87101F00F011009595C5F
:10AF2000E971185C6179287202F00F0208099A5CD5
:10AF30006A72185CA279A87201F00F011009595CBD
:10AF4000E972185CE179287302F00F0208099A5C33
:10AF50006A73185C227AA87301F00F011009595C1A
:10AF6000E973185C617A287402F00F0208099A5C90
:10AF70006A74185CA27AA87401F00F011009595C78
:10AF8000E974185CE17A287502F00F0208099A5CEE
:10AF90006A75185C227BA87501F00F011009595CD5
:10AFA000E975195C297602F00F024FF0000C995CEC
:10AFB000627B6976100902F00F011A5CAA76A27B07
:10AFC000595CE976100902F00F011A5C2A77E27BDE
:10AFD000595C6977110902F00F02595CA9779B5CF3
:10AFE0003848EB772F2185F820C022F097FC002805
:10AFF00047D02F21334822F091FC411C3248334B7B
:10B00000334AD3F804350092CDE9010542220420E9
:10B0100017F092FA33685B0431D53B68032B2EDDC1
:10B0200028482F2122F07AFC002838D02F212548EB
:10B0300022F074FC411CE588A288244B2668D3F8D2
:10B0400004356DBAADB252BA039592B2E07A02926B
:10B0500036BAA27A0196657A0790207A0692CDE9EF
:10B0600004051C4A0092E27BA07B657B247B0B924B
:10B070000A9043220420CDE9084517F05DFA4FB04D
:10B08000F0BD10485C2122F049FC30B15C210D4834
:10B0900022F044FC411CB1E770470A49AEE7094879
:10B0A0005C2122F03BFC28B15C21064822F036FCF2
:10B0B000411CC0E70349BEE74C2E0020482E00206B
:10B0C000502E002064E10400C4E10400001001409F
:10B0D000D8E10400E0E1040060DF704769DF7047F9
:10B0E00014F00EBC10B588B000F022F9002854D13D
:10B0F000324B0393039B04930C22002105A822F0FA
:10B1000007FA0023049A8DF8143005A90120FFF7EF
:10B11000E5FF00283ED10C22002105A822F0F8F915
:10B12000F823049A059305A9A120FFF7D7FF70BB68
:10B1300004A8FFF7D1FF039B049A9A42044603D068
:10B140001F4B1B685B0402D4E4B908B010BD1D4B53
:10B150001B68012BF8DD1C482F2122F0DFFBF8B122
:10B160002F21194822F0DAFB411C0498174A184B8A
:10B17000D3F80435CDE90020AB22022017F0DCF92A
:10B18000002CE2D020461EF039FA08B010BD1EF0A7
:10B1900035FACDE71EF032FABDE71EF02FFAA7E729
:10B1A00009485C2122F0BAFB28B15C21064822F054
:10B1B000B5FB411CD9E70449D7E700BF002E0020AA
:10B1C0004C2E0020482E002020E2040088E20400DB
:10B1D0000010014070B4EFF3108472B60D4B9A6802
:10B1E000AAB90D490D4E01259D60D1F8805035401A
:10B1F0001D60C1F88060D1F884505D604FF0FF336E
:10B20000C1F88430027004B962B670BC7047012383
:10B210000370F8E71871002000E100E0FC06FFBDB4
:10B22000094B9A687AB170B910B4EFF3108172B615
:10B23000064A1C6814605C685460986001B962B684
:10B240005DF8044B704770471871002000E100E082
:10B2500001600B6843604A68934204BF0023436067
:10B26000704700BF436843B1026891680B44436074
:10B270005268934204BF0023436070474BDF70471E
:10B2800010B5114C84B001A8FFF7F8FFA8B921460A
:10B2900002A8FFF7DDFF039B002BF4D0D3E90021C8
:10B2A0000198904702A8FFF7DDFF039B002BF5D123
:10B2B00001A8FFF7E3FF0028E9D0052801D01EF020
:10B2C0009DF904B010BD00BFC4E2040061DF704707
:10B2D000144B1B782BB330B5134D91B034240DF1C2
:10B2E000020103A8ADF80240FFF7F0FF88B9294634
:10B2F00001A8FFF7ADFF029B002BF0D0D3E900219E
:10B3000003A8904701A8FFF7ADFF029B002BF5D1E2
:10B31000E5E7052801D111B030BD1EF06FF911B07D
:10B3200030BD70474C480020D0E2040010DF704769
:10B3300070B53C4D2B7884B0002B66D13A4E3B491A
:10B34000012302A83370FFF783FF039B23B90EE0AC
:10B35000FFF788FF039B53B1D3E9002100209047FA
:10B36000044602A8002CF3D1204604B070BD304939
:10B3700002A8FFF76DFF039B4BB1D3E9002100202A
:10B38000904702A8FFF76EFF039B002BF5D1294AD7
:10B39000002312688DF8083002A80192FFF71AFF07
:10B3A000254901A8FFF7C2FFB0FA80F304465B0904
:10B3B0009DF808002B70FFF733FF002CD4D11F4BF2
:10B3C0001F491C70347091F81623EC235209134165
:10B3D000DB071ED51B4B9A6802B31A6842F4800241
:10B3E0001A60134902A8FFF733FF039B002BBBD061
:10B3F000D3E900210120904702A8FFF733FF039B08
:10B40000002BF5D1204604B070BD0824204604B0BE
:10B4100070BD42F202001EF0F1F8E2E74FF4800343
:10B420000B60DEE74E4800204D480020E0E20400BB
:10B43000F8E20400DCE2040021B303004F480020DE
:10B4400000E100E01871002000B583B008496846AB
:10B45000FFF7FEFE019B43B1D3E900209047684609
:10B46000FFF700FF019B002BF6D103B05DF804FB52
:10B47000ECE2040038B5817801F003030546032BA4
:10B4800030D8DFE803F027211C02890841F27072EE
:10B4900002FB01F2164B1748196803681144A960B2
:10B4A000002423B91BE0DA681C46AAB113469A6847
:10B4B0008A1A002AF7DA94B1E560EB6038BD890892
:10B4C000642202FB01F2E5E701F0FC0202EB9101CC
:10B4D0004A00DFE78A08DDE7DD60EA6038BDEB603F
:10B4E000056038BD784610F041F80022D2E700BF71
:10B4F00068480020704800202DE9F0416C4D2B7801
:10B50000002B37D16B4C226892B36B4E3378907816
:10B5100000F003019942C0F3010740F391806748AE
:10B52000032B046800F2C0809068DFF89C81644AB5
:10B53000001B022902FB00F258F82300B2FBF0F2D4
:10B5400065D0032942D0012952D014F0B5FF3378D9
:10B55000032B044600F2988058F823301C442B78C3
:10B56000002B65D021465748BDE8F04114F06CBE71
:10B57000BDE8F081534B504E5F6814F09DFF337867
:10B58000032B04466AD8504A52F823204B49E01B4B
:10B5900010443BB94CF25032904203D90A68013250
:10B5A0000A6007E0494C0A684009A4FB004002EB2E
:10B5B000D01008603F4C2268002AA8D12B78002BBD
:10B5C000D6D0BDE8F0413F4814F0F2BD002B53D077
:10B5D000012B5DD13E483F4B00FB02F2B3EBF20F73
:10B5E000B3D314F069FF3C4C032304443370B6E733
:10B5F0003A4B3B4903FB02F2B1EB720FA5D314F0B7
:10B600005BFF00F5742404F510743770A7E75BB393
:10B61000012B9AD13148324B00FB02F2B3EB720F8F
:10B6200093D314F049FF2F4C02230444337096E760
:10B630002448012344602B70BDE8F04114F04ABD5A
:10B6400014F03AFF2368204A9B7803F00301C3F308
:10B65000010352F821403370044480E778460FF02C
:10B6600085FF3378002291E71F48204B00FB02F250
:10B67000B3EBB20FD5D268E71D481E4B00FB02F2B8
:10B68000B3EB321FADD260E778460FF06FFF66E78D
:10B69000022B7FF45AAF1848184B00FB02F2B3EBB1
:10B6A000B20FFFF452AF9CE778460FF05FFFFFDE6A
:10B6B0006C480020704800206D4800206848002039
:10B6C000A08601005048002004E30400C55A7C0A0B
:10B6D00063C92F96063A6D000046C323CDCCCCCC6F
:10B6E0009999991980969800295C8FC2285C8F02DD
:10B6F0004728A3B733EC0A00EFEEEEEE44444404CF
:10B700002DE9F041294B1B7882B0032B49D8DFE8A3
:10B7100003F03E393402264D2B6803F5BB5310333A
:10B720002B60244E244A346800231370002C33D03D
:10B730001F4D984607E06368019998472046FFF738
:10B7400099FE346844B3A3682A68934201A903D0E0
:10B750002A689B1A002B1FDA2788E3683360384673
:10B76000CDF8048002F0ACF903463846002BE2D055
:10B7700078460FF0FBFE3846DDE70D4D2B6864334D
:10B780002B60CEE70A4D2B680A332B60C9E7084DC2
:10B790002B6801332B60C4E7FFF7AEFE02B0BDE8B3
:10B7A000F08178460FF0E2FEBBE700BF6D48002055
:10B7B00068480020704800206C48002010B5084CF4
:10B7C00018220021204621F0A3FE064B0648074917
:10B7D000074AA360002303600B60137010BD00BF15
:10B7E0005048002001B7020068480020704800203F
:10B7F0006C48002038B50B4C237873B90A4D1822D9
:10B800000021284621F084FE084B0949094AAB6013
:10B8100000230B601360237038BD034814F0C8FC8C
:10B82000ECE700BF6C4800205048002001B7020040
:10B830006848002070480020F8B50D4617460446B9
:10B8400000283CD0234E15F0E9FB336843B19C42FD
:10B8500002D124E09C420DD01A46DB68002BF9D1BE
:10B8600005F0030545EA8705A57067B9BDE8F8400E
:10B8700015F018BC05F00305E36845EA8705A570D7
:10B88000D360002FF2D02046FFF7F4FD33689C42CE
:10B89000ECD1FFF731FEBDE8F84015F003BC05F030
:10B8A0000305E368336045EA8705A570002FF0D0F3
:10B8B0002046FFF7DFFD33689C42D7D1E9E77846A1
:10B8C000044E0FF053FE15F0A9FB3368002BC3D1D3
:10B8D000C6E700BF7048002070B5884CB4F86030EF
:10B8E0000546002B63D094F8393005F57A7623B1FC
:10B8F000236B9B1B002BC0F2978094F85D30002BCC
:10B9000048D0636D9B1B002B5FDB94F83930002B14
:10B9100031D194F85D30002B32D1B4F860304FF65D
:10B92000FF72A4F86220002B31D078460FF01EFE83
:10B93000B4F8623003EBC30304EB83031B6B5A1BA5
:10B9400048BFEA1AE26070BD78460FF00FFE94F827
:10B950005C30013BDBB284F85C30002B00F0888067
:10B96000D4E915321344636594F83930002BD0D0F4
:10B9700094F85D3093B1236B626DD21A002A1ADA03
:10B98000B4F860300122A4F86220002B5FD10023BC
:10B99000E36070BD94F83930002BBAD0B4F8603051
:10B9A0000022A4F86220002BF1D0236BC7E7784671
:10B9B0000FF0DCFD97E7B4F860200021A4F86210D6
:10B9C000002ABCD10023E360E3E7B4F85030E26C16
:10B9D0004B49012000F0D6FF1028B5D801A353F839
:10B9E00020F000BF4FB9020049B9020049B9020076
:10B9F00049B902004FB9020071BA020049B9020008
:10BA000071BA02004FB9020071BA020049B90200CE
:10BA100049B9020049B9020049B9020049B9020016
:10BA20004FB9020071BA0200A38DA26A3549002005
:10BA300000F0A8FF10280CD8DFE800F00E0B0B0B6D
:10BA40000E330B330E330B0B0B0B0B0E3300636DEE
:10BA500075E778460FF08AFD94F83830013BDBB289
:10BA600084F83830EBB1D4E90C231344236344E762
:10BA700094F85D30002B3CD0B4F860309BB3013BB0
:10BA80009BB20022A4F8603084F85D201BB94FF609
:10BA9000FF73A4F86230E06C1BF056FA0023E364F5
:10BAA00062E794F83930D3B1B4F860308BB1013B20
:10BAB0009BB20022A4F8603084F839201BB94FF6FD
:10BAC000FF73A4F86230A06A1BF03EFA0023A36261
:10BAD00013E778460FF04AFDB4F86030E7E77846A0
:10BAE0000FF044FDE0E778460FF040FDB4F8603019
:10BAF000C5E778460FF03AFDBEE700BF7448002066
:10BB0000B04800208C48002010B5064C6422204626
:10BB1000002121F0FDFC044BA3604FF6FF73A4F855
:10BB2000623010BD74480020D9B802002DE9F84FEA
:10BB30000128BDF828A006468846174699466DD8C4
:10BB4000B8F1000F00F0A380002F00F0A68098F855
:10BB500000305B0769D0B9F1000F00F09480BAF1B2
:10BB6000000F00F08880564D06EBC60305EB8303FB
:10BB7000F40093F83930002B5ED114F09DFC84461C
:10BB800097E80F00344405EB840404F1180787E8B4
:10BB90000F00C4F82890A4F82CA098F80030B5F84D
:10BBA0006020C3F3020384F8383098F800000123C2
:10BBB000C10884F839304CF2503001FB000095F890
:10BBC000391060631A446044A5F86020206395F83A
:10BBD0005D20B9B122B16A6D296B521A002A00DBCF
:10BBE0000023B5F862108B421A4648D0A5F86220AF
:10BBF00003EBC30305EB83053148296BBDE8F84F20
:10BC000014F022BB002AECD1B5F862304FF6FF7277
:10BC1000934246D19E4246D0BDE8F88F78460FF059
:10BC2000A5FCB8F1000F8FD131E078460FF09EFCF3
:10BC3000B9F1000F93D126E0B5F86030002B38D071
:10BC4000A219013B05EB82029BB20021A5F86030EE
:10BC500082F839101BB94FF6FF73A5F8623004EB78
:10BC6000060B05EB8B0BDBF828001BF06DF90023AE
:10BC7000CBF8283081E778460FF078FC73E79642DE
:10BC8000B6D0BDE8F88F78460FF070FC67E77846CD
:10BC90000FF06CFC002F7FF45AAF78460FF066FC73
:10BCA00055E7A5F8622078460FF060FCB5F86230E1
:10BCB0009EE778460FF05AFCB5F86030C0E700BF49
:10BCC00074480020C0F30F43A3F540539BB2012BEF
:10BCD00017D80D4A107810F0040001D000207047EA
:10BCE00030B40A4A0C6812F8331002EBC30582B074
:10BCF000E44321F0060102F833106C6002B030BC5E
:10BD000070470520704700BFA8490020AC490020BB
:10BD1000000CB0F5804F82B005D1044B0A781A7040
:10BD2000002002B07047052002B070470C2E0020A2
:10BD300010B5030C82B0012B0C46019002D078465E
:10BD40000FF014FC024B23600222A28002B010BD4F
:10BD50000200010010B5030C82B0012B0C460190CB
:10BD600002D078460FF002FC6388012B0DD1A38826
:10BD7000022B0AD12388022B07D1054A1378002011
:10BD800043F00103137002B010BD0B2002B010BDD0
:10BD9000A849002030B5C0F30F44A4F5405483B047
:10BDA000A4B2012C0D46019002D978460FF0DEFBBB
:10BDB000034B03EBC4046368DB432B6003B030BD6B
:10BDC000AC49002010B5030C82B0B3F5804F0C468F
:10BDD000019002D078460FF0C9FB024B1B7823700C
:10BDE00002B010BD0C2E002030B5040C83B0B4F5A9
:10BDF000805F0D46019002D078460FF0B7FBA4F5A6
:10BE000080540649A4B204EB4404284601EB4401E3
:10BE1000022203B0BDE8304021F0E0BA1C49002006
:10BE200030B5C0F30F44A4F5005483B0A4B2012C84
:10BE30000D46019002D978460FF098FB0549C4EBF6
:10BE4000C404284601EBC401142203B0BDE830400D
:10BE500021F0C4BA34490020F0B5C0F30F43A3F574
:10BE6000005383B09BB2012B019020D81748007873
:10BE700010F0040418D116488F89C3EBC30300EBFC
:10BE8000C305DB00AE89B7420BD1C35A088898427C
:10BE900007D148886B88984203D1CA89EB899A42B6
:10BEA00008D00B2003B0F0BD002003B0F0BD05208A
:10BEB00003B0F0BD1422284621F090FA95F83430F2
:10BEC00023F00603204685F83430EEE7A849002029
:10BED000344900202DE9F04FD7B00446BDF8805119
:10BEE000894F049509A80E461D46934602F0CAFFE5
:10BEF000C4EBC40307EBC303BDF82610B3F80C80F2
:10BF0000414540F2DE80BDF824100691E200BBF10D
:10BF1000000F00F0AD80DBE903019BF81C90BBF83B
:10BF20001E3005930DF1280A8AE80300BBF824B0FF
:10BF3000B9F1000F40F0AC80002D00F0B780049BF9
:10BF4000002B00F0BA800CAC24220021204621F006
:10BF5000DFFA0599584612AA05F04AFE074618B1BD
:10BF6000384657B0BDE8F08F9AE80300069B96F874
:10BF70000AE096F80BC0F26884F80A9084E803009F
:10BF800098443946049BA4F8088020462561A38282
:10BF900084F80BE084F80CC0226213F0ABFC074677
:10BFA0000028DDD1594C23689A04D9D5DFF87C816B
:10BFB000D8F80030042BD3DD55482F2121F0AEFCFA
:10BFC000002800F090802F21514821F0A7FC411C4F
:10BFD0003088504A504BD3F80435CDE9002040F268
:10BFE000A912052016F0A8FA23689B04B8D5D8F842
:10BFF0000030042BB4DD049B802B1E4628BF802616
:10C00000002B7DD0454B15ACD3F800C02146681EEF
:10C01000034610F8012F4FEA121E02331CF80EE0FF
:10C0200081F800E002F00F025B1B1CF802204A704E
:10C030009E4201F10201EBD80023354804F8163086
:10C040002F2121F06BFC002842D02F21304821F015
:10C0500065FC411C3248304B324AD3F8043500921B
:10C06000CDE901044FF4D572052016F065FA77E7A3
:10C070000DF1280AD8889B8807925146059303F052
:10C08000ADFD18BBBAF80230DBB1079A4FF6FF7B63
:10C09000141B07EBC40797F81190B9F1FF0F04BF09
:10C0A000214B93F80090002D7FF449AF78460FF0B4
:10C0B0005DFA049B002B7FF446AF78460FF056FAEA
:10C0C00041E71027384657B0BDE8F08F052747E70E
:10C0D0000F485C2121F022FC80B15C210C4821F04A
:10C0E0001DFC411CB6E70A485C2121F017FC48B151
:10C0F0005C21074821F012FC411C69E70449A9E7CB
:10C1000015AC99E7024963E7344900204C2E002022
:10C1100014E3040068E3040000100140502E0020E6
:10C120007CE30400D8E104000C2E0020482E0020FF
:10C13000000CB0F5805F82B012D10C4B187810F073
:10C1400004000AD10A4B09881A8891420BD15A7906
:10C1500022F006025A7102B07047002002B0704708
:10C16000052002B070470B2002B07047A84900209C
:10C170001C490020012870B5324D04460DD9C60077
:10C1800078460FF0F3F900221146301B05EBC00092
:10C190001430BDE87040FFF74FBBC0EBC00205EBA9
:10C1A000C202C60092F8341011F00101E8D0936980
:10C1B000002BE5D0937C928C03F0030002284FEA19
:10C1C000930331D0032816D141F2707000FB03F0C5
:10C1D000B0FBF2F23F2A17D940F276239A421AD9DD
:10C1E00041F69C039A4223D8174BA3FB0232C2F3B9
:10C1F00047120221C9E7012813D103EB8300400055
:10C20000B0FBF2F23F2A06D8CBB1012A38BF012297
:10C21000D2B20021B9E70D4BA3FB0232C2F3C70231
:10C22000B3E7B3FBF2F2EFE7642000FB03F0CFE7E4
:10C23000074BA3FB0232C2F3C7120321A5E71A463C
:10C240001946A2E7344900201F85EB51CDCCCCCC58
:10C25000F11976052DE9F04FA04E327842F0040234
:10C2600012F0020585B0327040F0D380D1079C4CAB
:10C2700013460CD5A3464FF6FF73BBF80C10994F2D
:10C2800099424CD10BF1380B002D40D03378954DAD
:10C2900029784A075DD55A0700F1A5802A7A41F02E
:10C2A000040121F00601297051075FD542F0040214
:10C2B0008D4F22F006022A727A7990076AD594F897
:10C2C000341022F002027A718F0777D594F86C202F
:10C2D00021F0020184F83410910701D542F00202E6
:10C2E00022F0020284F86C20DC0748BF002000F135
:10C2F00091807E480190022302A90290ADF80C3093
:10C3000019F0E0FC002840F0E580052082E0BBF851
:10C310000C104FF6FF7399424FF00105B2D0BBF8F5
:10C320000600984203D002F039FF002871D1BBF813
:10C330000E30022B06D0DB00043307EB030AF9585A
:10C34000002973D1EB005B1B04EBC303002199743C
:10C3500098E78F074DD5580700F196802A7A41F06B
:10C36000020121F00601297051079FD4910754D48E
:10C370005D4F22F006022A727A7990070AD5590792
:10C380009DD55B480290394619F09CFC002849D1A4
:10C390007A79337894F8341022F002028D077A719A
:10C3A0000CD5580792D553484D49029019F08AFC94
:10C3B000002840F08780337894F8341094F86C208B
:10C3C00021F00201970784F8341089D55D0785D5DF
:10C3D00049484A49029019F075FC00286ED133781B
:10C3E00094F86C207CE74648029019F03BFD2978D0
:10C3F00033782A7A21F0060157072970B6D55807F5
:10C400007FF554AF3F48029019F02CFD2A7A33781B
:10C41000AEE70B2005B0BDE8F08F5F0742D442F0D5
:10C42000020245E778460FF0A1F8B1E7364A4B42E1
:10C430000B4002FB03F3DB0E344A12F80380B8F121
:10C44000180F3FF47FAF4FF00109404603F056FB51
:10C4500008F1010309FA03F149420028D9D1172B49
:10C460003FF670AFDAF800300B403FF46BAF264A6E
:10C4700059420B4002FB03F3DB0E244A12F80380FF
:10C48000B8F1180FE1D15DE76B681D480290DB43FE
:10C4900001A9019319F016FC0028A8D078460FF0E6
:10C4A00065F8A4E7EB6817480290DB4301A9019304
:10C4B00019F008FC50B92A7A337859E778460FF01A
:10C4C00055F88CE778460FF051F874E778460FF08E
:10C4D0004DF8F0E778460FF049F816E7A849002034
:10C4E00034490020AC4900201C4900200200010012
:10C4F0000200001002000020020001206C49002010
:10C50000020000300200013031B57C070CE4040069
:10C510002DE9F04F00F1140491B00546204606F0D5
:10C5200053FC0023099300287BD02B7D4FF6FF722C
:10C53000012B0746ADF83A2000F0A280EA8A4FF6B8
:10C54000FB739A4200F2BC8020460DF13A0103F0E1
:10C5500093FC002840F08E80099B0A9300239946A3
:10C560000A9B644EDFF8A4A10B97A846002B53D07A
:10C57000B788099BFF1AB7FA87F77F09B8F81E40FA
:10C5800096F82C50B18C306AB8F800C0B8F802E0C8
:10C590006309012256F8233004F01F0402FA04F460
:10C5A0001C401540002976D0002300F1020B02E068
:10C5B000013399426FD030F833206245F8D13BF80F
:10C5C00033207245F4D1DDF82CB00D930122DAF856
:10C5D00000309B0403D5484B1B68062B24DC95B127
:10C5E0008FB184B1BBF1000F0DD098F81430012B3E
:10C5F0001FFA89F066D00D99336AB26A03EBC10362
:10C6000041465B6898473836B9F1000F09D10A9B5B
:10C610004FF00109002BABD1F388012B3ED90A9FC3
:10C62000ACE711B0BDE8F08F34480C922F2121F017
:10C6300075F90C9A00284CD02F21304821F06EF962
:10C640000C9A411C2E4B36F8080CD3F80435069290
:10C65000221E18BF012236F806CC0592294A009204
:10C66000CDE9010CCDE903574FF48662072015F0A0
:10C6700063FFB4E778460EF079FF099B0A936DE7F4
:10C680000FA802F0FFFBEB8ABDF83C209B1A9BB27F
:10C69000CDE9093762E70022934698E7BDF83A20D2
:10C6A000DB00510903EB810317490B4402F01F0221
:10C6B0005968012393400B4214BF012700275DE70F
:10C6C0000A904BE7B26A0C90414601F031FC0C989D
:10C6D00091E70A480C925C2121F020F90C9A30B1C4
:10C6E0005C21064821F01AF90C9A411CAAE703497B
:10C6F000A8E700BF3C490020482E002014E30400B6
:10C700000010014084E30400AC4900204C2E0020BE
:10C710002DE9F04701680B7803F0C002802AD0B001
:10C7200004464FD01CD8180643D5DFF82C82D8F821
:10C73000003013F4005600F0BF80804B1B68042BC0
:10C7400000F3C780E06903F037FE05AD8246A069BB
:10C7500003F08EFD0023032226682B6017463FE07E
:10C76000C02AE2D18A7891F801909FB249EA022961
:10C77000DFF8E481D8F80030990404D56F4B1B68CA
:10C78000042B00F3A980E06903F016FE8246A0693D
:10C7900003F06EFD4FF6FF73994505AD26682F80B7
:10C7A000A5F802901AD1FF2F40F28380022217468B
:10C7B00016E07F2B9FB218BF4FF6FF79D8D150B04B
:10C7C000BDE8F0874F78DFF8908147EA0327D8F873
:10C7D000003099044FF6FF79D5D5CFE703221746ED
:10C7E000A388D8F8001094F808C094F810E0A88442
:10C7F0001644E2682A61DB1B626A678994F82000AC
:10C8000085F80CC09BB2B4F812C0EF812A62676948
:10C81000A5F81EA08A046E602B8185F814E0A5F8A7
:10C8200016C0AF6128773ED5444A1268042A3ADD23
:10C83000802B1F4628BF8027002B7AD0404B0FAC9F
:10C84000D3F800C02146701E034610F8012F4FEAAE
:10C85000121E02331CF80EE081F800E002F00F0215
:10C860009B1B1CF802204A709F4201F10201EBD889
:10C870000023344804F817302F2121F04FF8002806
:10C880003FD02F212F4821F049F8411C2E482F4B33
:10C890002F4AD3F804350092CDE901044FF48A728F
:10C8A000052015F049FE2846FFF732FE50B0BDE8DE
:10C8B000F0870122174693E7E06903F07DFD05AD9F
:10C8C0008246A06903F0D4FC03222E601746266836
:10C8D00086E74FF000094F461A482F2121F01EF835
:10C8E000E0B12F21174821F019F8411C194A174BC4
:10C8F0000520D3F80435CDE90027FD2215F01CFEF4
:10C9000041E710485C2121F009F828B15C210D486D
:10C9100021F004F8411CB9E70A49B7E709485C214E
:10C9200020F0FCFF38B15C21064820F0F7FF411CE5
:10C93000DCE70FAC9CE70349D8E700BF482E002096
:10C94000502E002014E30400F0E304000010014026
:10C95000D8E10400DCE304004C2E0020037833B15E
:10C96000142B03D1C388022B04D0704770470430C6
:10C97000FFF7CEBE024A137843F0020313707047EC
:10C98000A849002079B172B16BB170B50C89B4F5CA
:10C99000BE7F82B002D3092002B070BD012804D945
:10C9A000052002B070BD0E2070471C4CC0EBC005C6
:10C9B00004EBC50494F83450ED07F1D5A589002D9A
:10C9C000EED1A6884FF6FF75AE421DD0E488AC428A
:10C9D0001AD04E880C88AE4218D114F47F4F0ED076
:10C9E00004F44044A4F50044B4FA84F464095CB14E
:10C9F000009313460022FFF76DFA02B070BD24F0D9
:10CA00007F050DB97F2CF3D10720C5E724F03F0443
:10CA1000A4F1C004B4FA84F46409E8E734490020BE
:10CA200070B5164C164D01F0CFFAFEF7E3FE204626
:10CA30007022002120F06CFD06220021114820F018
:10CA400067FD10220021104820F062FD0F48104AB7
:10CA50000378E26023F0030303704FF0FF310123FA
:10CA600004266160E1636264A384A4F85C302E70E4
:10CA70000220BDE8704019F063BA00BF34490020BD
:10CA80000C2E00201C490020AC490020A8490020A1
:10CA9000FFFF020038B5174C174D702200212046C9
:10CAA00020F036FD06220021144820F031FD10222E
:10CAB0000021134820F02CFD4FF0FF33114812499C
:10CAC0006360E3630123114AA384A4F85C30042368
:10CAD000E26062640B70056012F00EFF01F060FA14
