:02000002F0000C
:1080000000FD0320B9CB0F00E1CB0F009DAD0F00A9
:10801000E5CB0F00E7CB0F00E9CB0F00000000001D
:10802000000000000000000000000000EBCB0F008B
:10803000EDCB0F0000000000EFCB0F00F1CB0F00E5
:10804000F3CB0F0099B50F0051C60F00F3CB0F0013
:10805000F3CB0F00F3CB0F00F3CB0F00F3CB0F00EC
:10806000F3CB0F00F3CB0F00F3CB0F00BD910F004C
:10807000F3CB0F00F3CB0F00F3CB0F00F3CB0F00CC
:10808000F3CB0F00F3CB0F00F3CB0F00F3CB0F00BC
:1080900041B60F0001C50F005B830F0061830F0025
:1080A000F3CB0F00F3CB0F00F3CB0F00F3CB0F009C
:1080B000F3CB0F00F3CB0F00000000000000000026
:1080C000F3CB0F00F3CB0F00F3CB0F00F3CB0F007C
:1080D000F3CB0F00F3CB0F00F3CB0F00F3CB0F006C
:1080E000F3CB0F00F3CB0F00F3CB0F000000000029
:1080F00000000000F3CB0F0000000000F3CB0F00E6
:10810000000000000000000000000000000000006F
:10811000000000000000000000000000000000005F
:10812000000000000000000000000000000000004F
:10813000000000000000000000000000000000003F
:10814000000000000000000000000000000000002F
:10815000000000000000000000000000000000001F
:10816000000000000000000000000000000000000F
:1081700000000000000000000000000000000000FF
:1081800000000000000000000000000000000000EF
:1081900000000000000000000000000000000000DF
:1081A00000000000000000000000000000000000CF
:1081B00000000000000000000000000000000000BF
:1081C00000000000000000000000000000000000AF
:1081D000000000000000000000000000000000009F
:1081E000000000000000000000000000000000008F
:1081F000000000000000000000000000000000007F
:108200000348044B834202D0034B03B11847704725
:108210008000002080000020000000000548064982
:108220000B1AD90F01EBA301491002D0034B03B184
:1082300018477047800000208000002000000000E8
:1082400010B5064C237843B9FFF7DAFF044B13B19E
:108250000448AFF300800123237010BD800000208C
:1082600000000000D8D40F0008B5044B1BB104492E
:108270000448AFF30080BDE80840CFE700000000ED
:1082800084000020D8D40F00A3F5803A704700BFC7
:10829000154B002B08BF114B9D46FFF7F5FF002142
:1082A0008B460F461148124A121A04F041FF0C4B3C
:1082B000002B00D098470B4B002B00D09847002094
:1082C000002104000D000B4804F010FE04F042FEF3
:1082D0002000290002F066FD04F00EFE00000800F8
:1082E000000000000000000000FD032080000020CE
:1082F000640A002021CF0F0013DF704718DF70479A
:10830000084A0023C2F84431D2F80435184420F05A
:108310007F404FF40033C2F84405C2F80433024BE7
:108320001970704700B00040350100207FB502F0A1
:108330001BFE78B182884FF6EF739A420AD9022366
:108340008DF80030031D019303786846033B0293C8
:1083500000F0D2FA07B05DF804FB04F073BA000035
:10836000F0B5344E8BB0002561276946304602F0E7
:10837000B1FC0446C0B12DB1622304A88DF81030C1
:1083800000F0BAFA2B4802F000FD58B12A4B1B78D6
:1083900043B1122000F0ACFD044604F00FFA20684F
:1083A00000F048FF0BB0F0BD9DF80020019B012AB2
:1083B00005F101052CD1990701D002F0ECFC039BDB
:1083C0009A0702D0002002F0E6FC029B9B0702D035
:1083D000002002F0E0FC0198B0F1005F12D3DDE96B
:1083E0000223A34208D860238DF81030029B059326
:1083F00004A800F081FAB8E7135D025D134003554D
:108400000134ECE7DDE90212002302F0FBFDEAE7AC
:10841000B3F1005F029A07D3FF21184604F088FEEB
:10842000019B8DF81070E2E71146184602F0BAFD84
:10843000F6E700BF9C0000203401002010B5234C5B
:1084400088B000F0DFFE00211822204604F070FE04
:108450001F4B2360102208232046C4E9012302F0A9
:1084600003FC1C4B602283F817234FF400021A60B0
:1084700000F006FB08B102F08EFC01228DF80C2002
:10848000154A0492002340F6010202A88DF8083034
:10849000ADF814208DF8163000F02EFA08B102F075
:1084A0007AFC04F0A3F90D490D4803F079F80DF1B9
:1084B000070001F039F89DF8073023B14FF08043F1
:1084C0000022C3F81C2508B010BD00BF9C0000208E
:1084D000B400002000E100E055860F00D6BE898E72
:1084E0002D830F0070B58AB004F08CF9012304A825
:1084F0008DF8103000F000FA03F098F801F027FF33
:1085000030B103214FF4A020FFF7FAFE0AB070BD8E
:10851000042000F0EDFC0546122000F0E9FC0646C0
:10852000102000F0E5FC0446022001F023F80028AA
:10853000ECD04FF0FF3300932B78590706D5336802
:108540001B68013304BF6FF0040300932A78009B7B
:10855000D2070DD522681268013209D162683AB19A
:1085600023F0010300936946042000F0C6FC01E0FB
:108570000133F8D101F0BCFE05460028C6D000F05A
:10858000F9FF0528C2D1022000F0B2FC044608B968
:1085900002F001FC012D05D0042D0DD00B2002F0BE
:1085A000FAFB02E02388ADF804304FF0FF3201A956
:1085B000284601F0DDFCA9E7043494E8070001AB8C
:1085C00003C31A80F1E700F097B9000030B5054603
:1085D00085B0122000F08CFC04460A2D34D8DFE868
:1085E00005F006063333333306332F33060008B362
:1085F00001F0ADFEF0B1154802F0C7FBE0B102F0AA
:108600001DFB02F0E9FD0023CDE901330393684629
:1086100002230093FFF772FE08B102F0BCFB206852
:10862000FFF76AFE08B102F0B6FB04F0C7F8206855
:1086300000F000FE05B030BD054B01221A70F9E7CD
:10864000002002F0A8FBF5E772B6FEE79C000020D0
:108650003401002030B50378252B89B0054611D8A8
:108660001F2B05D8022B00F0B080062009B030BDCA
:10867000213B042B21D8DFE813F07000B500D800AF
:10868000DC00E000612B56D008D8512B00F0DF80D1
:10869000602B19D0502BE8D10223E2E0622B46D0A8
:1086A000702BE2D181687B4AC8030023490C04F097
:1086B000A1FA0221FFF724FE04E00079FFF786FF0C
:1086C00001F0E4FB0020D1E700236846009302F0AC
:1086D000BDFB002800F0D180009802F031FC009B27
:1086E0001A78022161F303021A70AB68009A0A3308
:1086F0005370009816238372E423C372FE2303731E
:10870000AB6803334372D5E901120D3004F076FCF7
:108710002B7B6A7BA97B009802F0B8FF0446009887
:1087200002F0D6FB002C14BF002003209EE7007946
:1087300002F0E4FFC6E7D0E9011278230DF1020050
:108740008DF8013004F05AFCAB68684601338DF8AF
:10875000003003F05BFF0028E5E74F4B4FF4003299
:10876000C3F808234D4B00221A700379022B28D13D
:10877000232368468DF80030FFF725FF01232B7176
:10878000AC1D6979204602F03EF900289AD00220FB
:1087900000F0AEFB08B902F0FEFA41482023037056
:1087A0004FF0FF3303616B7903712368C0F8053024
:1087B0006368C0F809302389A0F80D3000F09CF8F8
:1087C00054E7012B7FF47EAFDAE70579022D7FF4C1
:1087D00079AF01F0BCFD00287FF474AF284600F0AB
:1087E000C9FE6FE70379022B7FF46CAF2A4B4FF47D
:1087F0000032C3F80823294B00241C7021238DF874
:108800000030034653F8072FCDF805205A681B891E
:10881000ADF80D3083798DF804304369CDF8092027
:1088200068460493FFF7CFFE4CE701214FF4202068
:1088300040E701214FF470203CE74379042B02D03C
:10884000012B7FF43FAF0020FFF7C0FE3AE74368FB
:10885000990714D183689A0711D1C3689B0710D177
:108860000123291D0C2201A88DF8003004F0C6FB5D
:108870000C48694602F007FA28B10420F6E61020F9
:10888000F4E60920F2E6084B4FF40002C3F8002199
:10889000ECE600BF40420F0000B000403501002070
:1088A000380100209C00002000E100E010B5114CD0
:1088B0002278022A86B007D0032A11D0012A14D1C7
:1088C00023238DF8003005E003238DF800300023CA
:1088D0008DF80430002368462370FFF774FE02E031
:1088E0000020FFF773FE06B010BD082002F053FA17
:1088F000F0E700BF3501002030B50378322B8BB094
:1089000005463CD81F2B06D8042B31D9062002F08F
:1089100042FA06245BE0203B122BF7D801A252F862
:1089200023F000BF0B8A0F00178A0F0013890F0076
:10893000238A0F00298A0F000D890F000D890F006F
:108940000D890F000D890F000D890F000D890F0093
:108950000D890F000D890F000D890F000D890F0083
:108960000D890F00318A0F00418A0F00558A0F00D0
:10897000013B032B11D8DFE803F02D31383B612B8D
:108980006CD0622B6DD0602BC0D1406801F0D4FF59
:108990006968012000F066FB1EE0374B82681A60B0
:1089A000837B364A83F001031370037B002B5FD077
:1089B000437B012B5CD94FF47E214FF47F2000F0E4
:1089C00037FA0446002855D1687B01F03DFA20466D
:1089D0000BB030BD01F05AFA0024F8E70189406875
:1089E000012201F005FB0446F1E701F071FDF3E718
:1089F0000023011D102202A88DF8043004F0FEFAB5
:108A00001D4B01A81B689847EDE70269411D0079DD
:108A100001F0AEFAE7E70269411D007901F0C2FA00
:108A2000E1E701F0C1FDD7E7007900F0A3FDDAE747
:108A3000808800F05DFAA8600028CDD10524C6E743
:108A4000D0E90212808800F093FAB0F57F2FC3D2EC
:108A50001024BCE7808800F065FAC4E74168022072
:108A600098E700F08BFB00F0A9FD01F09FFDB3E754
:108A70000724ACE70324AAE708FD03200CFD03202C
:108A80004FF08053064AD3F80C3103F500239B02C4
:108A9000002043F8042C034B01221A70704700BFDA
:108AA000F9880F000CFD0320024B1B6803B1184727
:108AB0000820704708FD032000B58BB020238DF8F7
:108AC000080001A88DF80430FFF7EEFF0BB05DF849
:108AD00004FB70B58AB006460D46144600212422D8
:108AE00001A804F025FB512301A8CDE902658DF80A
:108AF00004300494FFF7D8FF0AB070BD30B58BB0D6
:108B000005460C462422002101A804F011FB502345
:108B100001A8CDE902548DF80430FFF7C5FF0BB072
:108B200030BD00B58BB062238DF8080001A88DF828
:108B30000430FFF7B9FF0BB05DF804FB024B187867
:108B400080F00100704700BF0CFD032030B50278B3
:108B5000FF2A19D0024440F6010300F5805047F681
:108B6000FF7455888D4201D1101D30BD158802EB70
:108B70008502904208D35588A54201D1A14203D174
:108B8000013BEED11846F0E70020EEE748B1B0F522
:108B9000801F05D0034B1B685B78A0EB83007047F8
:108BA0000020704734FD032008B547F6FF71FFF73A
:108BB000CDFF18B1BDE80840FFF7E8BF08BD0000D1
:108BC000830710B5044602D0102002F0E4F82046D6
:108BD0000249BDE810400422FFF77BBF28D30F00F5
:108BE00010B5064C0223D4E9010104222370FFF7DB
:108BF00070FF08B10123237610BD00BF10FD0320D4
:108C0000F8B51B4F4FF6FF763C46D7E9023203F525
:108C100080539A4204D30123237604232370F8BDA2
:108C20005388B342F7D0E3B1158847F6FF729342F9
:108C3000236914BFAD0004255A19636803F58053F6
:108C40009A4202D9032002F0A6F8D4E903102A467A
:108C5000FFF73FFF0028E2D12269E36863612A44FD
:108C60002261E3681A8803EB8203E360CDE700BF6B
:108C700010FD032010B50A4C22787AB90123237025
:108C8000084B1B78C4E9010123B94FF48051FFF769
:108C900035FF10B101232376002010BD0820FCE72A
:108CA00010FD03202DFD0320038800EB83000B4BF8
:108CB00003F18002904208BF1846094B1860094B27
:108CC0001B68984208D0A3EB0003C3F38F0388BF4F
:108CD0002033038000234380704700BF38FD03200A
:108CE000B8FD0320BCFD032013B50C4B1B78012BF2
:108CF000044604D00020019102F04DF8019920466D
:108D0000FFF724FFFFF742FF20B102B0BDE810409B
:108D1000FFF756BF052002B010BD00BF2CFD032099
:108D20002DE9F74F9DF83090019103334FEA890800
:108D300023F0030508F10403064617462B44EFF31E
:108D4000108A72B6DFF8E4C0DCF800402288B3EB8A
:108D5000820F4FEA820E01D8608828B1BAF1000F65
:108D600000D162B6042338E02E4A11688C422E49A5
:108D700037D1CCF8001011609B0848800B80084662
:108D8000FFF792FFBAF1000F4AD162B60C46B9F173
:108D9000000F0AD004EB05090822FF21484604F021
:108DA000C7F947F6FF73A9F8063005F107094FEA3E
:108DB00099032380019B63802A463946201D04F0D5
:108DC0001DF929F00302424421463046FFF781FE97
:108DD000034610B101F0DFFF0023184603B0BDE8E1
:108DE000F08F01F1800BABEB040293420DD9A4EBA1
:108DF0000B0BF3445B45B1D847F6FF7E9208A4F80D
:108E000002E02280CCF80010B6E79B086080238047
:108E10002046FFF749FFBAF1000FB8D162B6B6E7B6
:108E2000014CB4E7BCFD032038FD0320B8FD03204E
:108E30002DE9F041254E40EA01040023C4F30B0460
:108E40003370002C3ED1224FDFF8A080214DC8F8AE
:108E50000000802229603846214604F069F91E4B43
:108E6000D8F800001F601D4B1F6020233B80FFF7D8
:108E70009BFE1B4F1C22386021461A4804F058F90B
:108E8000194B1C703B68C3B92868FFF78DFE074675
:108E9000D0B1D8F800004FF48051FFF72FFE08B191
:108EA00001F079FF2968D8F80000C1F104023A44C2
:108EB000FFF70FFE08B101F06EFF0123337020466B
:108EC000BDE8F0811024FAE70B24F8E72CFD03201D
:108ED00038FD032030FD0320B8FD0320BCFD032036
:108EE000C0FD032010FD03202DFD032034FD0320D1
:108EF00001464FF47F20FFF729BE1FB504460391BA
:108F0000FFF7F6FFFFF742FE50B10388039A0021F6
:108F10009B000091043B2146FFF702FF04B010BD07
:108F20000520FBE701464FF47F20FFF7DDBE000080
:108F300010B50B4C2378012B02D0002001F02BFF41
:108F400004232370074B1968074B0A1D1A60074B4F
:108F50001868FFF78FFE08B90323237010BD00BF08
:108F60002CFD032034FD0320C0FD032030FD032031
:108F70002DE9F3472F4B1B78012B81468A46144677
:108F800002D0002001F007FF542C02D9002001F08C
:108F900002FF294E33689B0702D0002001F0FBFE40
:108FA0003368B3F57F2F02D8002001F0F4FE356856
:108FB00035B90E2001F0EFFE284602B0BDE8F0877B
:108FC0001E4F3B6805F10802224403F580539A4284
:108FD00004D3082001F0DFFE0025EDE74846FFF747
:108FE00087FFFFF7D3FD164A0123137080460093D5
:108FF0005246234649462846FFF792FE08B1042010
:10900000E8E73368073424F003041C443460B8F103
:10901000000F04D04046FFF7D3FD0028EFD132689F
:109020003B68583203F580539A4201D3FFF780FF23
:109030000435C1E72CFD0320C0FD032034FD0320CF
:109040002DFD0320054B1B78012B05BF044B187821
:10905000002080F0010000F0010070472CFD03208B
:109060002DFD032001282DE9F04106460C4632D1A2
:109070003A4FB9422FD307F18003994298462AD23A
:10908000374D2B68994202D0102001F084FEEFF397
:10909000108272B62B6819884FF6FF739942314BD4
:1090A00018BF208819680B8814BF1B1801330B8068
:1090B000238804EB8303434508BF3B466FF0004021
:1090C00019682B60814204D10433434508BF3B46F5
:1090D0002B6002B962B6244D2B78013B032B0AD8D2
:1090E000DFE803F0021A2629022E04D16B689C42A5
:1090F00001D1FFF775FD2B7863B91C4C2378032B46
:1091000021D11B4B19681B4B1868FFF7B3FD08B939
:1091100005232370BDE8F081012EECD1AB689C42A1
:10912000E9D103232B706B6804340433EC602B61AA
:10913000FFF766FDDFE7012EDDD16B699C4204BFBE
:1091400000232B70D7E7052BE4D10A4B1868FFF7F3
:109150002BFD094B18600123DBE700BF38FD03201E
:10916000BCFD0320B8FD032010FD03202CFD0320CF
:1091700030FD032034FD0320C0FD03200C4B0021F3
:1091800019700C4B1B6859800B4B1A7872B1187E02
:1091900060B1012A197602D0022A05D070475868BA
:1091A0004FF48051FFF7AABCFFF71ABD704700BF0C
:1091B0002DFD0320B8FD032010FD032010B5104C39
:1091C000D4F8403143B1D4F80433DA0304D5002392
:1091D000C4F8403102F0B6FAD4F8443173B1D4F88F
:1091E00004339B030AD50023C4F844314FF4003301
:1091F000C4F80833BDE81040FFF758BB10BD00BFEE
:1092000000B00040094B0022C3F808254FF440325B
:10921000C3F8442301229A601A60054B202283F888
:109220000B234FF400621A60704700BF00B000408B
:1092300000E100E0F0B50346186880F3088858683C
:10924000FF2464B2EFF30585002D01D1A646004747
:109250002546064621273FBAF0B400240025002603
:109260000027F0B4F92040B2004700BFF0BD00BFB6
:1092700018DF70472DE9F041A64F3C68C0B0002CC4
:109280005BD0EFF3108672B65422214601A803F09A
:10929000B5FEE37CF83B072B4DD8DFE813F0310136
:1092A0004C004C004C00B9004C00150008009A4BD3
:1092B00001221A70FE238DF81730984B187801A9F7
:1092C0002030FFF71AFE36E0944FDFF84C8201237E
:1092D00088F800303B7816A9DB4304201693FFF78B
:1092E0000CFE3D78022D0CD0042D3CD0012D40F019
:1092F0008B801020FFF7FCFD10BB0E2001F04BFD12
:1093000019E011202568FFF7F3FD6268016828461F
:1093100003F044FE002872D001F090FC62B60023F6
:109320002B9323682C9363689B082BA82D93FFF73E
:109330009FFF0028E2D106B962B640B0BDE8F081D7
:1093400001686268206803F029FE002857D001F008
:1093500075FC62B62B9523682C9363689B082E934B
:109360004FF48053E1E7FFF7E9FBB8B101F066FC89
:109370004FF080434FF00F12C3F800240022C3F8CF
:109380001C25BFF34F8F6649664BCA6802F4E06242
:109390001343CB60BFF34F8F00BFFDE71220FFF7F1
:1093A000A7FD054608B901F0F6FC2B68C3F30B03D3
:1093B00013B1002001F0EFFC50238DF8AC302B6886
:1093C0002C93636803F6FF7323F47F6323F00F038A
:1093D0002BA82D93FFF768FB18B1012388F8003004
:1093E000A9E751238DF8AC3023682D9363682E9341
:1093F0002B682C932BA8FFF757FB0028EDD1FC23FB
:1094000038788DF817305AE70B2001F0C4FCF6E7E6
:109410000220FFF76DFD05460420FFF769FD804639
:1094200015B9284601F0B7FC0E22294616A803F00C
:10943000E5FD0422B8F1000F20D1FF212BA803F095
:1094400077FE364D2B78022B1DD0042B27D0012B15
:1094500037D12389ADF858309DF8AC3043F0010383
:109460008DF8AC304FF01A080E2216A90220FFF733
:109470007FFD60BB284B01221A705CE741462BA898
:1094800003F0BCFDDDE72389ADF85A309DF8AC3020
:1094900043F002038DF8AC304FF01B08E4E7A368FB
:1094A0001793A389ADF86030D4F80E30CDF8623050
:1094B0009DF8AC3043F004038DF8AC304FF01C083D
:1094C000D2E70B2001F067FC4FF00008CCE7A37C4B
:1094D0003BB1402204F114014046FFF749FD00284A
:1094E000C8D004222BA91046FFF742FD0028C1D0A6
:1094F0002878F82301A920308DF81730FFF7FDFCFC
:10950000064B18782030FFF70DFD0028B2D13860E7
:1095100011E700BFBCFE0320B9FE0320B8FE032004
:1095200000ED00E00400FA0570B5044603250126AD
:1095300006F1200080B2FFF7DBFC60B1C37CFF2B9B
:1095400009D00A4B1E700A4B1860FFF793FE0CB14E
:109550000123237070BD013D4FEA4606E8D1044B5C
:109560001D60002CF6D02570F4E700BFB8FE032084
:10957000BCFE0320431E012B70B5054601D904280B
:1095800012D10C4E34688CB905F12000FFF7B0FC05
:1095900070B103681B6801330AD0074B30601D703F
:1095A000FFF768FE204670BD0720FCE70820FAE7B9
:1095B0000520F8E7BCFE0320B8FE0320054B1B681E
:1095C00033B1054B1A781AB100221A70FFF752BE58
:1095D000704700BFBCFE0320B9FE0320024B186891
:1095E000003818BF01207047BCFE03208268531C5E
:1095F000C36808BF00229B0002F00F02013B134426
:10960000028A1B0901330AB103EB12134FF6FF70F4
:10961000984228BF1846704710B50420FFF768FC31
:10962000174C20610220FFF763FC20601220FFF737
:109630005FFCE0601120FFF75BFCA0601020FFF7EB
:1096400057FC60600120FFF753FC23696061B3F5AC
:109650007F2F0FD32368B3F57F2F0BD3E368B3F5C8
:109660007F2F07D36368B3F57F2F03D3A368B3F5C8
:109670007F2F04D2BDE810400820FFF71DBA10BDAF
:10968000C4FD032070B590B001AD0446182200213E
:10969000284603F04DFD4CB33C4B1A7919680291F2
:1096A00002F007014FF6FD7242EA0162384993F871
:1096B0007100097842EAC062C81F4142414142EA52
:1096C0000172344901981140334A024053F8660F41
:1096D0001143019159681B8903AA03C21380631EB9
:1096E000022B4FD8DFE803F0303B45004FF6FE7306
:1096F000ADF80430294B1B680DF1060203F10C0193
:1097000053F8040B42F8040B8B42F9D11B881380E9
:109710000F240223102660228DF8283007A800238A
:109720008DF81C208DF82A30CDE908568DF8294097
:10973000FFF7BAF9612307A8CDE908568DF81C3068
:10974000FFF7B2F910B070BD9DF80630042262F345
:1097500003038DF80630122623460324DBE79DF829
:109760000620012363F303028DF8062003240A2652
:10977000D1E79DF80630022262F303038DF806302C
:109780000123F4E7012303240026C4E710FE03208D
:1097900000FD0320FDFF001F0000FFE0C4FD0320CB
:1097A00008B50020FFF76EFF044B054801221A7030
:1097B000BDE808407422002103F0BABC00FD03207C
:1097C00010FE032000B58BB0827821238DF8043081
:1097D000C2F303038DF80930084B00F108011B7830
:1097E0008DF8083002F00F020DF10A0001F0B0F818
:1097F00001A8FFF759F90BB05DF804FB00FD032049
:1098000030B5104C104D23782D789D428BB000D987
:109810000BB90123237060238DF804300023CDE9B8
:1098200002018DF8103001A823788DF811208DF8F1
:109830001230FFF739F910B92378013323700BB0D8
:1098400030BD00BF01FD032084FE032038B502882F
:109850004FF6FC739A4204460ED14388002B14BF86
:10986000032206222046FFF7CBFF054610B920460B
:1098700001F0B0F9284638BD0322F3E738B50546B4
:10988000114800244FF6FF73047184618460A0F8CE
:109890006230A0F8644080F87040C4610460457193
:1098A0002A466630013D01F053F8EDB2074B032D17
:1098B0004FF002021A7096BF054B2046585DBDE876
:1098C0003840FFF7DFBE00BF10FE032000FD03207D
:1098D0002CD30F002DE9F04FB64C426823689A4212
:1098E000A9B005460F4640F0A78201F05DF9834616
:1098F00008B100266CE0B04A1378033B9046052B74
:1099000000F28981DFE813F00600890187018701F1
:10991000560285026B88A94A002B40F06C811370B7
:109920006379022B4DD0042B04D0012B4CD1A44BD6
:109930005E6801E0A24BDE68AB682361A968481C41
:10994000284608BF3168FFF751FE80B2A4F86200D4
:10995000A4F86400A160EB689A489B00A3612B8A7D
:10996000E361AB7C0021C3F3C003102284F87030A4
:10997000616184F8601003F0DBFB01F03FF9E368FC
:109980005A1C2BD16379022B26D18D4BDA68D2E990
:1099900000321A444FF0102359698A4288BF5A692D
:1099A000A169894B23EA01031344E360D4E902026D
:1099B000904221D0A369194601F02EF9E0B10D20A3
:1099C00014E07F4B9E68B7E7062001F0E4F9062615
:1099D000304629B0BDE8F08FA368E6E74FF01022CB
:1099E000A16952690B449342E0D90C20FFF764F857
:1099F0000926FFF7D5FEEBE7A26833689A42C0F06C
:109A0000EF80A1690A4471680B449A4200F2E88031
:109A10000422FF2113A888F8002003F089FB637952
:109A2000022B1ED0042B17D0012B1FD19DF84C30D8
:109A30006FF300038DF84C30D4E902329A4219D109
:109A40005F4E3369002B40F0AA80042213A9104610
:109A5000FFF78EFA30614AE09DF84C306FF38203D5
:109A6000E8E79DF84C306FF34103E3E7072001F08E
:109A700092F9E1E7554B0A932423ADF82C300DF110
:109A8000280A4FF0FF384FF000094FF0010B3AF869
:109A9000020BFFF72DFA064698B1D0E90001A36941
:109AA000E26801F0B9F840B10BFA09F0203080B259
:109AB000FFF738FA08B101F06EF93368984528BF0E
:109AC000984609F10109B9F1030FE0D13C4BE26876
:109AD000A169D3F80CE0D3E9016C01EB020913464C
:109AE0004B4501D243452AD3A3689A42A8D0D4E972
:109AF000020194F87030A269354E00F08DFD002807
:109B000068D162238DF8080001A88DF80430FEF7B3
:109B1000CBFF23238DF8283001238DF82C30637977
:109B20008DF82D303368CDF82E307368CDF8323093
:109B30003389ADF836300AA8FEF7B6FF4EE0186854
:109B400001302AD03068984209D27168084498429E
:109B500082BF9DF84C006FF300008DF84C00DCF8DC
:109B6000000098420AD2DCF804100844984282BFF0
:109B70009DF84C006FF341008DF84C00DEF80000BA
:109B800098420AD2DEF804100844984282BF9DF839
:109B90004C006FF382008DF84C000433A0E713A94A
:109BA0000420FFF7AAF90028A1D009496079FFF73E
:109BB00065FE9CE710FE032000FD0320FCFD032052
:109BC000C4FD0320FEFD032000F0FFFF2100220062
:109BD00076FE032060793146FFF750FE00260DE146
:109BE000686800F0A1FF95496079FFF747FE2846B5
:109BF00000F0F0FF7DE613780133DBB2092B01D8CA
:109C0000137076E620680023137000F08DFF8B49F7
:109C10006079FFF733FE0826DAE66A88002A00F04A
:109C2000C780B4F864309342C0F0C280DFF814A259
:109C300000235146D14631F8020B82422FD1002237
:109C400029F8132013A862238DF84C308DF850208A
:109C5000FEF72AFFE369B4F8641068881A09A1EBDB
:109C6000131398424DD8A16800F0C3FE072F1AD8ED
:109C70000026B4F862305BB970228DF84C20704A2F
:109C800013A8CDE91432FEF70FFF052388F8003042
:109C9000BBF1000F40F0B280002EA8D098E601334F
:109CA000082BC8D1D6E7A7F1080292B205F1080146
:109CB00000F0EEFC0028DBD1B4F864306A88ADF81F
:109CC0005230242113A88DF84C10ADF85020FEF727
:109CD000EBFEB4F86230013BA4F8623000263AF89B
:109CE00002BBBBF1000F2AD16069B5F802A001AA3E
:109CF0006946CDE900BB00F0D1FD20BB4FF0010B60
:109D0000B6E7561E761A0644B242B1D994F86030CE
:109D10003341DB07ACD4A7F1080293B2102BA7D8CC
:109D200004EB061005F10801203003F067F901206B
:109D3000B04094F86060064384F86060BCE7013688
:109D4000082ECCD1DAE7A168009B21F00F001B1A86
:109D50006BEB4B021B0943EA027301330AF1FF323A
:109D6000934203D3B4F864205245C7D1ADF82A30EA
:109D700023680B9360238DF84C300AAB14930823AF
:109D800015934FF602734FF6FB72ADF8583013A8D7
:109D90000023ADF828208DF85A30FEF785FE002804
:109DA000ACD1009B6361BDF82A3029F81630A5E7D5
:109DB0000B265EE76B8823B92846FFF717FCA4F84B
:109DC00064000823002088F80030FEF7AAFE232351
:109DD0008DF84C3002238DF85030184B1A68CDF8AE
:109DE00052205A681B89ADF85A3013A86379CDF810
:109DF00056208DF85130FEF757FE06463946284664
:109E0000FFF724FD002E7FF4E3AD00283FF471AD91
:109E1000EDE66B8823B92846FFF7E8FBA4F8640059
:109E20006A88B4F86430ADF8502024218DF84C10C5
:109E3000ADF8523013A87FE60B26C9E576FE032065
:109E400080C3C901ECFD032038B500240A4B054648
:109E50002146742209481C7003F06AF9214608481B
:109E6000102203F065F9074B1C70074B1D70BDE80D
:109E70003840FFF7D1BB00BF00FD032010FE0320D8
:109E8000FEFD03200EFE032084FE03202DE9F04397
:109E9000742291B000212F4803F04AF910220021CA
:109EA0002D4803F045F900242C4B2D481C7010223E
:109EB000214603F03DF9FFF7AFFB2A4B0293242321
:109EC000ADF80C304FF48173ADF8043004238DF8F5
:109ED0000630254B1B689A1CCDE9042304330693F6
:109EE00002AF4FF002080DF1040937F8020BFEF73C
:109EF000FFFF0546E8B114F809608DF81C8000F1F9
:109F0000080132460DF122008DF8206000F020FD9E
:109F100004AB0BA853F82410324600F019FD2B684F
:109F20000E936B680F93AB7C8DF8213007A8FEF77A
:109F3000BBFD0134032CD8D100F060FEFFF74EFBCF
:109F400020B9FFF72DFC11B0BDE8F083074B0022CC
:109F50001A70F8E710FE0320FEFD03200EFE03201A
:109F6000ECFD032022002100C4FD032000FD03209E
:109F700008B50A4B1B78012B0CD14FF010235B69FD
:109F80009A4201D3531C07D1054BDA60FFF776FCE8
:109F9000002008BD0820FCE71020FAE700FD0320A0
:109FA00010FE032010B50F4C03462078013801281D
:109FB00015D8072020700C4C2046637140F8662BA2
:109FC0001A4600F0C5FC6379013BDBB2032B96BF58
:109FD000064A0020D05CFFF755FB002010BD08208A
:109FE000FCE700BF00FD032010FE03202CD30F0070
:109FF000F0B50388A3F57F43FA3B8DB00446042BEC
:10A000002CD8DFE813F04401DD0064014F000500A7
:10A01000B14D2E78012E4CD10379407943EA0020CE
:10A0200000F059FD98B121238DF80C3002238DF8F2
:10A03000113023798DF8123063798DF813302B7835
:10A040008DF8103003A8FEF72FFD0546D3E0A11DC3
:10A050000846019100F024FD019908B90B25CAE0DA
:10A0600062882B7890B24FF6FE74A0420CD09B4CC5
:10A0700024682488844207D021218DF80C108DF8A3
:10A080001160ADF81220DBE721228DF80C200422AC
:10A090008DF811200DF112000A228DF8103002F017
:10A0A000ADFFCFE78C4F3B78032B04D8012B24D88E
:10A0B0007BD008259FE0072BFBD1894D82786B79F7
:10A0C00002F00F029A422AD100F1080105F1660060
:10A0D00000F04DFC18B3E3782A7903F007039A42A5
:10A0E00004D31CD163682A689A4218D263682B6033
:10A0F000E378C3F302032B7143E0794E717906F1E3
:10A10000660200F02FFD354606F16601002843D0B7
:10A11000E378327903F00703934206DC01D000258F
:10A1200069E0626833689A42F9D9A378C3F30302FD
:10A130006A71224603F00F0352F8080FC5F8660053
:10A140005068486012890A8121884FF6FD72914259
:10A1500007D1E278520704D0A27802F00F029A42A7
:10A1600002D0072000F017FE63682B60E378C3F38A
:10A1700002032B71E378C3F3C00385F87130032326
:10A180003B706B79013BDBB2032B96BF554A002035
:10A19000D05CFFF777FAC2E7A278737902F00F027A
:10A1A0009A4206D0E3785B07B9D02046FFF70AFB56
:10A1B0004BE704F1080000F0F0FB0028AFD1F1E715
:10A1C000474A4168136899427FF448AF424B1E7872
:10A1D000082E13D100F0E8FC0028A0D1314620461B
:10A1E000FFF734FB6123054603A8CDE904468DF84B
:10A1F0000C30FEF759FC28460DB0F0BD3A4E4188B0
:10A200000023374636F82300884237D106EB830611
:10A210007388591C072B718081D963889068012B42
:10A220001EBF03F1FF3320F00F0000EB03101022DC
:10A2300005A900F0F7FA30B34FF6FA73ADF80C3019
:10A24000E278A37843EA0223ADF80E306368049302
:10A250000322182103A8FFF7D3FA0546A0B956B97F
:10A26000224B1E78721C1A7006F00303628827F8CE
:10A27000232007EB830600237380BCE70133042B04
:10A28000C0D10026C9E70525002EF4D1B3E7124B53
:10A290001B78082B1BD1019100F086FC00287FF46D
:10A2A0003EAF0F48B0F86420B0F86200ADF812205D
:10A2B000531C1B1A24208DF80C0003A8ADF8103095
:10A2C000FEF7F2FB01992046FFF7C0FABDE62046F3
:10A2D000FFF700FBB9E600BF00FD0320C4FD03202B
:10A2E00010FE03202CD30F00FEFD03200EFE0320E2
:10A2F00070B50220FEF7FCFD06460420FEF7F8FDCF
:10A3000004461020FEF7F4FD05461220FEF7F0FD8E
:10A3100076B1328862B1BCB12278D20703D4012071
:10A3200011E004200FE025B12A6812680132F6D04E
:10A3300014B122785307F4D528B103681B680133A0
:10A3400014BF0020042070BD002DEDD1F4E710B53E
:10A350000220FEF7CDFD04461220FEF7C9FD74B1C0
:10A3600050B103685A1C0AD01B68013307D0D4F8D7
:10A370000A0008B100F0C9FB00F0010010BD002088
:10A38000FAE7000030B54D4D4D4C2968ABB00E22B8
:10A39000684602F033FED4E902329A4241D0542298
:10A3A000FF210DEB020002F0C3FE627904F16601A9
:10A3B00017A800F0CDFAA3691693E36815934FF43C
:10A3C0007F43ADF86630E3699BB1402204F1200180
:10A3D0001AA802F013FE01238DF866305422637927
:10A3E000022B17D0042B06D0012B16D115A9212042
:10A3F00003E01422F3E715A92420FEF7B9FD314B41
:10A4000006221A70FEF794FD034638B100F0C3FC33
:10A41000002303E015A92220EFE70B2318462BB0F9
:10A4200030BD2B6913B90E2000F0B5FC0422296958
:10A4300015A802F0E3FD6279022A31D0042A15D072
:10A44000012A20D00020E3691BB11F494022FEF7FA
:10A450008FFD0E2269460220FEF78AFD0422286045
:10A4600015A91046FEF784FD2861C8E717490A229E
:10A4700001A802F0C3FD9DF8543043F004038DF8A9
:10A4800054301C20DFE711490222684602F0B6FD75
:10A490009DF8543043F001038DF854301A20D2E770
:10A4A0000A490DF1020002F0A9FD9DF8543043F075
:10A4B00002038DF854301B20C5E700BFC4FD032004
:10A4C00010FE032000FD032030FE032076FE032053
:10A4D00030B5314B1B78013BA7B0072B11D8DFE813
:10A4E00003F00408080A121059590120FEF7E4FA93
:10A4F00007E00520FAE7294B587903F16601FFF7D9
:10A50000BDF927B030BD264D6A69002A32D0234CF0
:10A51000E369002B3CD00AA801F00AFF0122611D6B
:10A520000AA801F035FF042204F110010AA801F085
:10A530002FFF042204F118010AA801F029FF0023CB
:10A5400001220DF107010AA88DF8073001F020FF64
:10A550006379022B11D8CBB90AA800F0DDF90022EB
:10A5600002A90AA801F037FF0E4A686902A901F0A2
:10A57000B3FC68B1FFF706FFC3E7042BECD10A2256
:10A5800004F166010AA801F003FFE5E70222F7E7FC
:10A590000420ABE70020A9E700FD032010FE032004
:10A5A000C4FD032030FE0320FFF7FAB800B5114BBD
:10A5B0001B78062B8BB01AD1FEF744FDB8B10E49BB
:10A5C00025234A798DF80430663101230DF10A0004
:10A5D0008DF808308DF8092000F0BAF901A8FEF7CF
:10A5E00063FA00F0A7F9FFF717F8FFF74FFC0BB07D
:10A5F0005DF804FB00FD032010FE032010B5054CA0
:10A6000030220021204602F093FD4FF6FF73238590
:10A6100010BD00BF88FE03202DE9F04104460D4621
:10A620001E461746FFF7EAFF45EA0403C3F30B0390
:10A630002BBB1448DFF85480002D08BF254607F6D1
:10A64000FF7101402840C8F80450FEF757FAE1199D
:10A65000C8F8004021F00F0124F00F0400230C1B68
:10A660000022C8E904232409074BA8F8084088F809
:10A670000A60C8F80C70C8F82830BDE8F0811020D6
:10A68000FBE700BF00F0FFFF0000FFFF88FE032094
:10A690002DE9F74F9246624A138D4FF6FF77BB4282
:10A6A0008346104638D01BF00F0F40F0B28015687B
:10A6B0005D4500F2AE80D4680AEB0B062C44A6423E
:10A6C00000F2A780BAF1100F00F2A5801AF0030C77
:10A6D00040F0A180B2F82AE0BE4540F09E8025F00F
:10A6E0000F04ABEB040424090134A4B2A34215D334
:10A6F0001B1B402B10DCD2E90472C3F1200CA3F128
:10A70000200627FA03F502FA0CFC45EA0C0522FAAA
:10A7100006F63543ED0767D4082036E0E31A9BB20E
:10A720000120A3F12008C3F1200600FA08F520FA61
:10A7300006F600FA03F717F1FF3745EA060545F17B
:10A74000FF30C3F1400CC3F12009D2E9046507FAD8
:10A7500009F9019000FA0CF040EA090027FA08F81C
:10A7600040EA080007FA0CFC0CEA060800EA0509B2
:10A7700058EA0900A3F1200CC3F1200008D00320FF
:10A78000A2F828E0FEF798F9052003B0BDE8F08FA5
:10A790009D4006FA0CFC06FA03F31F4345EA0C053C
:10A7A000019B148526FA00F005431D4327F001079D
:10A7B000C2E904751A4D524605F118006C8502F085
:10A7C0001DFC2946686851F8183BC01A5246584487
:10A7D000FEF77FF90028D8D04FF6FF7307202B85AE
:10A7E000FEF76AF90320D0E79BB20126A3F120050A
:10A7F000C3F1200C06FA05F526FA0CFC45EA0C0517
:10A8000006FA03F327EA030322EA0502C0E9043249
:10A81000D0E71020B9E70920B7E71120B5E700BF5E
:10A8200088FE0320F8B50E461B490C8D03464FF6F3
:10A83000FF7084420F464FF000002CD00D6825F0C9
:10A840000F0CA3EB0C031B0901339BB29C4222D3D8
:10A85000E41A402C10DCD1E9045EC4F1200CA4F110
:10A8600020010EFA0CFC25FA04F42EFA01F144EA58
:10A870000C040C43E1070ED466B15AB17968012B80
:10A880001EBF03F1FF3321F00F0101EB031130462E
:10A8900002F0B4FB0120F8BD88FE03202DE9F74F3C
:10A8A0001C4B1F8D4FF6FF74A74230D0D3F800C069
:10A8B0001C69D3F814E001942CF00F083F234FF0EB
:10A8C0000009019CC3F12006A3F12005DC400EFA2B
:10A8D00006F634432EFA05F52C4304F0010ACB4664
:10A8E0005AEA0B0411D0FC1AA4B2012C1ABF04F1CD
:10A8F000FF3408EB04146446A04206D810230C6011
:10A900000120136003B0BDE8F08F013BD9D20020D5
:10A91000F8E700BF88FE0320054B198D4FF6FF7244
:10A92000914203D0DA68596801F032BD08207047BF
:10A9300088FE0320FFF762BE044B03F11802824237
:10A9400004BF4FF6FF725A85704700BF88FE032090
:10A95000022A30B408D0042A05D0012A01D10B887C
:10A96000038030BC70470A2230BC02F047BB022A89
:10A9700038B506D0042A03D0012A08D0002038BDFB
:10A980000A2202F00BFBB0FA80F04009F7E70088DA
:10A990000B88C31A58425841F1E7022A12D0042A00
:10A9A00003D0012A0BD00020704782888B889A42FE
:10A9B000F9D100680B68C31A5842584170470088A3
:10A9C0000B88F8E700780B78F5E7022A0ED0042A06
:10A9D00003D0012A07D000207047D0F80600D1F834
:10A9E0000630C01A704700880B88FAE700780B78A9
:10A9F000F7E701281EBF00F1FF3021F00F0101EB46
:10AA000000110846704770B5054602200E46FEF755
:10AA10006FFA04460420FEF76BFA022E1CD0042EB7
:10AA200003D0012E2CD0002015E0002CFBD0A988EB
:10AA300022899142F7D1296862689142F3D1D5F811
:10AA40000610D4F80A20914218D820B1007880F07E
:10AA50000400C0F3800070BD002CE4D02978A278F7
:10AA60009142E0D16978E278914207D80028F2D08B
:10AA7000007880F00200C0F34000ECE70120EAE734
:10AA800064B129882288914208D120B1007800F071
:10AA90000100C0F1010000F00100DCE70020FAE74E
:10AAA00010B504460220FEF723FA90B1A28803896C
:10AAB0009A420CD1226843689A4208D1D0F80A0021
:10AAC000D4F80630834294BF0020012010BD00203E
:10AAD000FCE70120FAE707B5ADF804000220FEF715
:10AAE00007FA80B19DF8042083789A4209D1C07892
:10AAF0009DF80530834294BF0020012003B05DF82B
:10AB000004FB0020FAE70120F8E708B50420FEF76F
:10AB1000EFF930B1007800F00700C31F58425841E8
:10AB200008BD0120FCE70000044A1378591C11708D
:10AB300003F00703024A42F82300704724FF032072
:10AB400004FF0320064A002352F8041B814204D06C
:10AB50000133082BF8D1002070470120704700BF57
:10AB600004FF032037B583780D4603F00F03AB4293
:10AB70000446114600D0A5B901916068FFF7E2FFD5
:10AB800078B9083401992A462046FFF706FF30B10C
:10AB900001992A462046FFF718FFC043C00F03B0B3
:10ABA00030BD0020FBE7000030B5094B01880022D2
:10ABB0001C888C4203D15D884488A54206D00132AE
:10ABC000102A03F10403F3D1002030BD0120FCE77B
:10ABD000C0FE032030B50749074A0B68058803F01B
:10ABE0000F04013322F8245002EB84024088508085
:10ABF0000B6030BD00FF0320C0FE032008B54022DB
:10AC00000348002102F094FA024B00221A6008BDAA
:10AC1000C0FE032000FF0320904204D3134483426C
:10AC200007D8904207D10144914234BF002001204F
:10AC300070470120704700207047000010B5094A96
:10AC400010680023012404FA03F1014205D0C2F880
:10AC50008010BFF34F8FBFF36F8F0133202BF2D1E2
:10AC600010BD00BF00E100E081682023013B21FA14
:10AC700003F2D207FAD5012202FA03F3836000231C
:10AC8000C0E90333704770B50446F9B1EFF310859E
:10AC900072B6D0E9020622690244B24203D105B974
:10ACA00062B604250DE0236862680138304002FB7B
:10ACB000003063693BB19847E3680133E3603DB915
:10ACC00062B6284670BD02F099F9F5E70E25F8E75F
:10ACD0000025F6E738B504460846EFF3108572B64E
:10ACE000D4E90331994203D105B962B60E250FE0CC
:10ACF00048B1D4E90123013B0B40216802FB031159
:10AD000063693BB198472369013323612DB962B66A
:10AD1000284638BD02F072F9F5E70025F8E7F8B5E6
:10AD20000446084611B90E252846F8BDEFF31085F4
:10AD300072B6D4E90376BF1BBA4203D3002DF2D119
:10AD400062B6F0E7D4E901732168013B1644334051
:10AD500007FB031163691BB198472DB962B6E3E79E
:10AD60003A4602F04BF9F8E70025DDE70022FFF74D
:10AD7000D6BFD0E90320101A704703698268C06803
:10AD800013441B1A584258417047D0E90302131A62
:10AD900058425841704772B600BEFEE772B600BE18
:10ADA000FEE7000008B54FF08043D3F8082442B90D
:10ADB00001221A60D3F80021002AFBD00022C3F838
:10ADC00000214FF08043D3F8142442B901229A6045
:10ADD000D3F80421002AFBD00022C3F804214FF04D
:10ADE000804301221A61D3F80C21002AFBD00022F3
:10ADF000C3F80C210E4B402283F816234FF4800237
:10AE00001A6062B6FDF71AFBFEF7E8FB70B94FF067
:10AE100080431C46D3F81C250AB9FDF7D7FB002355
:10AE2000C4F81C35FDF75EFB20BFFDE720BFEBE754
:10AE300000E100E00023044A19460133202B02F808
:10AE4000011BFAD1704700BF500600200D4A30B5F3
:10AE5000014600231546EFF3108472B612F8010B79
:10AE600048B9094A0120E854282505FB03230B6053
:10AE700004B962B630BD04B962B60133202BEAD101
:10AE80000020F7E7500600205001002070B50E4C5E
:10AE9000001BB0F5A06F15D22824B0FBF4F4EFF33B
:10AEA000108672B6094D2B5D013BDBB2FD2B02D93A
:10AEB0000420FFF770FF2B5D01332B5506B962B6F6
:10AEC000012000E0002070BD50010020500600204D
:10AED000104BC01AB0F5A06F10B501D3002010BD03
:10AEE0002823B0FBF3F0EFF3108472B60A4B1A5C20
:10AEF00032B90820FFF74FFF002CEFD162B6EDE723
:10AF0000013A1A5404B962B6185C003818BF01201F
:10AF1000E5E700BF5001002050060020064BC01A94
:10AF2000B0F5A06F3FBF2823B0FBF3F0034B185CD4
:10AF300028BF0020704700BF5001002050060020AD
:10AF400010B5084904460622033002F057F84FF0C6
:10AF500080530020D3F8A020237862F38613237057
:10AF600010BD00BFA400001010B5034660B14278C8
:10AF7000D11F1E2908D80332093013444FF6E4616B
:10AF8000984201D202780AB9002010BD4478162CEC
:10AF900005D1141F1B2C02D844888C42F5D00132F5
:10AFA0001044EDE7F0B54FF0805402262369226982
:10AFB0009BB2013B0B4492B20021B3FBF2F3104A67
:10AFC000DBB20F46CDB2AB4200D8F0BDC2F804658B
:10AFD000D2F80054002DFBD0C2F80805D2F8005476
:10AFE000002DFBD0C2F80475D2F80054002DFBD020
:10AFF0002569C5F38D0500EB85000131E2E700BF4F
:10B0000000E0014023F003032DE9F041184400243F
:10B01000164F174B0A442646A6464FF001089142A8
:10B0200001D1BDE8F08111F801CB07F806C0751C0D
:10B03000EDB264EA0C04042DE4B215D18CB1C3F86E
:10B040000485D3F80044002CFBD03C680460D3F89E
:10B050000044002CFBD0C3F804E5D3F80044002CD6
:10B06000FBD00024043025462E46D8E77006002089
:10B0700000E00140384B2DE9F04700240F46904690
:10B0800001210322C3F8FC4FC3F8FC1FC3F80C4591
:10B09000C3F810250222C3F808252522C3F8542539
:10B0A0008E22C3F8242506462C4A2D48C3F81C25B9
:10B0B0000568D3F82425280E42EA0022C3F8242587
:10B0C0002D02284AC3F82055C3F82C45C3F8301583
:10B0D000C3F81425244AC3F8182540F25B62C3F86C
:10B0E000382540F20312C3F83425204AC3F83C2522
:10B0F0001F4D9422C3F844252A78032A08D11D48FD
:10B100001D4A44610823C0E900238360FFF7ACFDBA
:10B1100002242C70104B194D0022C3F80C21C5F8E5
:10B1200080412C60164BDFF860901F60154B114872
:10B13000C9F80060C3F80080FFF727FE20B1D9F8F6
:10B140000030BDE8F047184700F028FA08B1C5F80C
:10B150000041BDE8F08700BF0010004000D6BE8966
:10B160000400002006010200250003025555550089
:10B1700008000020780600209006002000E100E092
:10B18000D0060020D40600207406002038B5014601
:10B19000C0B1437913B90379012B15D80C48FFF7D7
:10B1A00072FD044690B9EFF3108572B600F0F6F91F
:10B1B00018B1084B0222C3F800210DB962B62C4623
:10B1C000204638BD0E24FBE71024F9E70424F7E7F6
:10B1D0007806002000E100E0074B00224FF0FF312D
:10B1E000C3F80022C3F8081301211961C3F804252C
:10B1F000024B02221A707047001000400800002025
:10B200002DE9F041624CD4F80C3186B02146002B78
:10B210006DD0D4F80064D4F80C74D4F81C31002B31
:10B220005FD00023C4F81C31D4F84845E4B20023B1
:10B23000C1F80C31574803A9FFF74CFD08B1FFF7DF
:10B24000AAFD9DF811300398013B012B4BD8524BBE
:10B25000311E1D683A46234618BF0121A8474F4BAF
:10B2600002221A704B4801A9FFF780FD002840F028
:10B270008A80474C1323C4F800329DF80A300A2B09
:10B2800064D89A1C5200C4F8082503F07F02404B92
:10B290004349C3F85425019AC3F804250822C3F88A
:10B2A00004230022C3F80C210968D3F82425080ED2
:10B2B00042EA0022C3F824250A02C3F820259DF89B
:10B2C000094036481A46002C4ED19DF80820C3F894
:10B2D0002C259DF80B20C3F80C2501221A60027062
:10B2E00013E06424A3E72F4B1B689847B7E729486E
:10B2F000284F294EFFF73DFDA0460546012D07D8F2
:10B30000264B1B78023B012BACD906B0BDE8F0817F
:10B3100003A93846FFF72AFD01460028F0D19DF821
:10B320001130022BECD13846FFF7D4FCFFF754FF65
:10B33000D8F850150029FBD1C8F80C1103983468CF
:10B3400064234FF0FF32A047013DD7E7242B01D8FB
:10B35000DA1C97E7144A07CA06AD05E9070005EBB2
:10B36000830252F8A02C8EE7104B994218BF03219C
:10B370004FF001030CBFC2F83035C2F830155360EE
:10B3800000230370C1E70A4B1B689847BDE700BF65
:10B390000010004078060020D006002008000020A1
:10B3A00004000020D406002030D30F00D6BE898EC2
:10B3B0007406002010B5D0E900238468C168A2EBB0
:10B3C000731283EAF43303600C4413441144446061
:10B3D0008160C360184610BD0A4B012210B51A6087
:10B3E000002219B901225A60084610BDD3F8004165
:10B3F000002CFBD0013989B2D3F808454454C3F876
:10B400000021EEE700D0004037B5042100230546B7
:10B410000DEB01000193FFF7DFFF044658B9074B1E
:10B420002B60019BEB60C5E9013314242846FFF72C
:10B43000C1FF013CFAD1204603B030BDED5EEAF118
:10B44000F0B5164B1648D3F80425531E23F07F435E
:10B4500019460024056855B147688D1ABE1A26F0B2
:10B460007F4625F07F45AE4238BF27F07F4101344B
:10B47000082C00F11000EDD19942084B4FF48030B8
:10B480001FBFC3F804030020C3F84001C3F84015F0
:10B4900016BF044BC3F808031A60F0BD00B00040AB
:10B4A0008C0700208807002007B5019061B108488B
:10B4B00001A9FFF7E8FB38B9064B4FF48012C3F837
:10B4C000002103B05DF804FB0198FFF701FDF8E7E8
:10B4D000F006002000E100E007B5022368468DF881
:10B4E0000530FFF7B3FC78B100238DF804306846CF
:10B4F00025238DF80630FFF749FE10B16846FFF7A7
:10B50000E7FC03B05DF804FB014B1870F9E700BFDE
:10B51000E8060020024B1B780BB1FFF7DDBF704738
:10B52000E8060020F8B5837B8768457B0646C3B9EB
:10B5300040F6CD4303FA05F20135AB409D1A15489C
:10B54000A2F6CD421744FFF735FFC5F35603B0FB13
:10B55000F3F202FB13023B44134423F07F43736076
:10B56000F8BD022B0B480CBF0A240124FFF722FF71
:10B5700040F6CD4161430F4441F69A136C4303FBFF
:10B580000474B0FBF1F303FB11010C4424F07F447D
:10B590007460E5E7D8060020FFF732BE012070474F
:10B5A000174B10B500241C70164B1860164B17482B
:10B5B0001C802146802201F0BBFD1548154B03601D
:10B5C00004222023C0E901234461FFF74DFBFFF76C
:10B5D00031FC1148FFF718FF08B1FFF7DCFB0F4BF8
:10B5E000402283F814234FF480121A60002283F85B
:10B5F0000123BDE810400A4A0A490B48FFF73ABD4B
:10B60000E8060020EC060020600A00208C070020DD
:10B61000F006002008070020D806002000E100E026
:10B6200055B80F00A9B40F0015B50F00034B1A78D9
:10B630001AB901221A70FFF74FBF7047E8060020C1
:10B6400073B50F4D0F4E01A92846FFF743FB044683
:10B6500030B10D4B1B780BB9FFF7E8FF02B070BD9E
:10B660000198FFF75BFC012802D02046FFF793FB0F
:10B670000198336898470198FFF72AFCE3E700BF79
:10B68000F0060020EC060020E80600202DE9F04737
:10B69000044617461E460BB90C2A28D83CB3072986
:10B6A00025D8EFF3108872B6124B0D0103EB011988
:10B6B00058599A4608B1FFF70BFC2046FFF7E6FB06
:10B6C0000AEB050300225A734AF805400A4A1F7321
:10B6D000D2F804259A609E734846FFF723FFFFF7D0
:10B6E000AFFEB8F1000F00D162B6012000E00020EB
:10B6F000BDE8F0878C07002000B0004038B50F4B44
:10B700004FF400620446C3F88020BFF34F8FBFF3AD
:10B710006F8F07280CD80301094DE858FFF7D8FBB5
:10B720001022002105EB041001F002FDFFF788FE56
:10B73000024B4FF400621A6038BD00BF00E100E028
:10B740008C0700202DE9F7432D4B2E4CD3F80465D0
:10B75000DFF8B480002502362F464FF02509216816
:10B7600049B36368F31A23F07F42D8F80030F31A24
:10B7700023F07F439A421ED8E37B0091022BADF861
:10B7800004708DF8077020D9637BE7735A1CD2B21E
:10B79000FF2B627307D1A36803F5CC1303F5D053D5
:10B7A00023F07F43A360237B9A4201D3FF2B1ED15A
:10B7B0002046FFF7B7FE0135082D04F11004CED165
:10B7C000FFF73EFE03B0BDE8F0838DF806906846B3
:10B7D000FFF7DCFC10B92068FFF758FB9DF8063036
:10B7E0000133DBB2272B8DF80630F0D9CCE7206887
:10B7F000FFF76EFB10220021204601F099FCDAE7EA
:10B8000000B000408C07002088070020074AA0F500
:10B810007F400123F03803FA00F0138819B1034385
:10B820009BB21380704723EA0003FAE7600A002006
:10B830004FF6EF73984281BF054BA0F57F401B8800
:10B84000F03886BF43FA00F000F001000020704796
:10B85000600A002010B588B00446FFF785FB88B168
:10B8600082884FF6EF7390B298420BD9FFF7E0FF52
:10B8700040B14BF203636846ADF80220ADF80030EA
:10B8800000F0C4FE2046FFF723FB08B010BD031FE5
:10B8900000221C3043F8042F8342FBD17047031F62
:10B8A0001C3053F8042F1AB98342FAD10120704793
:10B8B000002070474A11012350F8220001F01F01B7
:10B8C00003FA01F108407047002351F8232040F8A3
:10B8D00023200133082BF8D1704710B500F1200365
:10B8E000203153F8044D51F8042D944204D805D367
:10B8F0008342F6D1002010BD0120FCE74FF0FF305D
:10B90000F9E700F120030022834200D1704753F889
:10B91000041D42EA51021A60CA07F5E7002370B518
:10B920000546184651F8236052F823403444044435
:10B93000A64202D08CBF0120002045F823400133ED
:10B94000082BEFD170BD0023F0B50546184651F81D
:10B95000236052F82370341AE41BA64202D034BF8D
:10B960000120002045F823400133082BEFD1F0BD22
:10B9700001F11C0304381A688B4212BA40F8042FF4
:10B98000A3F10403F7D1704770B50646A0B008468E
:10B990001446FFF784FF20B13046FFF778FF20B050
:10B9A00070BD6846FFF790FF214608A8FFF78CFF9F
:10B9B00010A8FFF76CFF012318A81093FFF767FF8B
:10B9C00008A96846FFF789FF20B910A93046FFF79C
:10B9D0007BFFE4E7009BDA0716D46846FFF791FF88
:10B9E000109810F0010505D010A922460846FFF76F
:10B9F00095FF054610A8FFF784FF002DE0D0179BA8
:10BA000043F000431793DBE7089BDB0716D408A835
:10BA1000FFF777FF189810F0010505D018A9224606
:10BA20000846FFF77BFF054618A8FFF76AFF002DC1
:10BA3000C6D01F9B43F000431F93C1E700281BDDC6
:10BA400008AA69466846FFF77EFF6846FFF759FF78
:10BA500018A910A8FFF741FF002804DA10A9224610
:10BA60000846FFF75BFF10A918AA0846FFF76BFF0F
:10BA7000109B13F00105B6E708A96A460846FFF7D0
:10BA800062FF08A8FFF73DFF10A918A8FFF725FFE0
:10BA9000002804DA18A922460846FFF73FFF18A934
:10BAA00010AA0846FFF74FFF189B13F00105B4E7F3
:10BAB00010B50446FFF747FF30B121462046034A40
:10BAC000BDE81040FFF72ABF10BD00BF9CD30F0098
:10BAD00010B50446FFF722FF28B907492046FFF7B3
:10BAE000FCFE002806DB21462046034ABDE8104044
:10BAF000FFF729BF10BD00BF9CD30F0002460723EC
:10BB000052F8230028B1024600202AB900EB431066
:10BB100001E0013BF4D2704752080130F5E72DE90E
:10BB2000F04F002487B08E462546234602EB83065D
:10BB3000AA46A1F1040C254601960024CDE902A5F0
:10BB4000019E56F804790196DDE902AB5CF8046FBA
:10BB5000A7FB066716EB0A0857EB0B092CBF01255C
:10BB60000025E6452C44C2464D46E7D140F82380E7
:10BB70000133082B0EF1040ED8D102F12006AE4697
:10BB8000A3F1070C25460196002451F82C6002967B
:10BB9000CDE904E5019E56F8047D0196DDE904AB8C
:10BBA000029EA6FB076716EB0A0857EB0B090CF180
:10BBB000010C2CBF01250025BCF1080F2C44C64602
:10BBC0004D46E2D140F8238001330F2BD5D1C0F888
:10BBD0003C9007B0BDE8F08F2DE9304298B0814627
:10BBE00008A8FFF79CFF08A94846FFF76DFE139BC6
:10BBF0000393149B0493159B0593169B06930025B2
:10BC0000179B07936A4669466846CDE9015500953A
:10BC1000FFF784FE6A46044649464846FFF77EFE23
:10BC2000149B0393159B0493169B0593179B044445
:10BC30006A4669466846CDE90635FFF76FFE494614
:10BC400004446A464846FFF769FE109B0093119B27
:10BC50000193129B0293169B06930444179B079330
:10BC60006A464846CDE904550395FFF757FE119BF8
:10BC70000093129B169A0193139B02930492159BB7
:10BC8000179A0393CDE905230444109B07936A4652
:10BC90004846FFF743FE139B0093149B0193159BAB
:10BCA0000293109B06930444129B07936A464846EE
:10BCB000CDE904550395FFF746FE149B0093159BB1
:10BCC0000193169B0293179B0393119B0693241ACF
:10BCD000139B07936A464846CDE90455FFF733FEA8
:10BCE000159B0093169B0193179B0293109B039344
:10BCF000119B0493129B241ACDE905356A46149BC7
:10BD000007934846FFF71FFE169B0093179BCDE94C
:10BD10000135119B0393129B0493139B241ACDE9C5
:10BD200005356A46159B07934846FFF70CFE241A13
:10BD30000ED40C4D2CB949462846FFF7CEFD0128FC
:10BD40000DD02A4649464846FFF7FDFD241AF1E783
:10BD5000044A49464846FFF7E1FD2418F9D418B0D3
:10BD6000BDE830829CD30F0070B588B006460D4602
:10BD7000684611461446FFF72FFF6A4631463046A3
:10BD8000FFF72AFF224669466846FFF725FF6A4605
:10BD900029462846FFF720FF08B070BDF0B51446CD
:10BDA00089B006460F460246214668461D46FFF703
:10BDB0007FFE6A4669466846FFF70EFF6A463146CF
:10BDC0003046FFF709FF6A4621462046FFF704FF89
:10BDD0003A4629462846FFF76BFE2A46294668461A
:10BDE000FFF7FAFE324669466846FFF761FE2246D3
:10BDF00069466846FFF75CFE324621462046FFF75B
:10BE000057FE224639463846FFF7E6FE6A46314677
:10BE10002046FFF74DFE224629462846FFF7DCFE66
:10BE20003A4629462846FFF743FE69462046FFF773
:10BE30004BFD09B0F0BD00002DE9F041B2B022ABDE
:10BE4000054602A800930190FFF769FE21491AA850
:10BE5000FFF73AFD12A8FFF71AFD40F20116012480
:10BE600032AAC4F1010302EB830312A853F8C8CC31
:10BE700002EB8403002253F8C8EC13465EF82370EB
:10BE800050F8048BB91AA1EB08018F4202D034BFDD
:10BE9000012200224CF823100133102BEED1131B8A
:10BEA0005C4212A85C41FFF72CFDDDE919321AA8AB
:10BEB00043EAC2731993FFF724FD013ED0D132ABA0
:10BEC00003EB8404284654F8C81CFFF7FDFC32B08D
:10BED000BDE8F0817CD30F002DE9F047ADF5067D7C
:10BEE00046AF0DF5CC79064600258A460146484600
:10BEF0001446FD615595FFF73BFD06F120016EA844
:10BF0000FFF736FD21463846FFF732FD04F12001E8
:10BF10004EA8FFF72DFD3846FFF7C1FC0646002866
:10BF200040F05E814EA8FFF7BAFC0446002840F0BE
:10BF30005981AD483946FFF7D0FC012840F09C807C
:10BF4000A9484EA9FFF7C9FC0128804640F094801B
:10BF5000A54AA64E4EA916A8FFF716FD514606A8FB
:10BF60000D94FFF705FD06A9084616AAFFF764FF22
:10BF700076AD16AA39460EA8FFF75EFF4946284659
:10BF8000FFF7A2FC6EA97EA8FFF79EFC31462EA803
:10BF9000FFF79AFC06F1200136A8FFF795FC294629
:10BFA0002EAA16A8FFF784FD7EAB2A4636A92EA836
:10BFB000FFF7F4FE16A908468D4AFFF7E5FC16AA1E
:10BFC0007EA92846FFF7D0FE06A8CDE90495CDE965
:10BFD0000246FFF793FD05460EA8FFF78FFD854249
:10BFE000B8BF0546691E06A80191FFF763FC0199D9
:10BFF000DFF8FC91061E0EA818BF0126FFF75AFCB9
:10C00000002814BF0220002002AB06431EA853F8EC
:10C010002610FFF759FC26AE20313046FFF754FCBE
:10C0200016A8FFF734FC023DCDF85880002D28DA21
:10C0300016A908466E4A1EADFFF7A6FC16AA26A949
:10C040002846FFF791FE68482946FFF746FC01287D
:10C0500004D0654A29462846FFF775FC072355F8A2
:10C06000232057F82310013B82EA010244EA02042C
:10C07000F5D2B4FA84F4640920460DF5067DBDE8D6
:10C08000F08716A8FFF70BFC002870D13246314626
:10C0900056A8FFF7A1FD56AA1EA95EA8FFF79CFDB2
:10C0A00056AA11461046FFF797FD16AA31463046AC
:10C0B000FFF792FD16AA11461046FFF78DFD1EA947
:10C0C000084616AAFFF704FD16AA11461046FFF708
:10C0D000FFFC16AA10461EA9FFF7EAFC1EA9084697
:10C0E00016AAFFF779FD1EAA114616A8FFF7F0FC65
:10C0F0001EA916AA0846FFF7EBFC1E9BDB076BD5B3
:10C100001EA94A460846FFF709FC80461EA8FFF70D
:10C11000F8FB259B43EAC87325931EAA114616A86F
:10C12000FFF75AFD16A908465EAAFFF7C1FC16A93B
:10C1300008465EAAFFF7BCFC5EA9084616AAFFF7F0
:10C14000B7FC1EA908465EAAFFF746FD56AA104690
:10C150001EA9FFF7ADFC16A91EA8FFF7B5FB3146D7
:10C1600016A8FFF7B1FB56A93046FFF7ADFB2946ED
:10C1700006A8FFF79FFB2946B0F100080EA818BFDC
:10C180004FF00108FFF796FB002814BF02200020A3
:10C1900048EA000802AB53F82810D9B12EA8FFF7DF
:10C1A00093FB36A82031FFF78FFB16AA36A92EA8DD
:10C1B000FFF7DAFD2EAA1EA93EA8FFF779FC1EAAFA
:10C1C00036A92EA83346FFF7E9FD16A93EAA084670
:10C1D000FFF702FD013D29E71EA8FFF792FB9CE750
:10C1E0002C4649E7344647E77CD30F003CD30F0089
:10C1F0009CD30F002DE9F04FC9B008AA01F140050A
:10C2000014464B780E781B0443EA0663CE7833431A
:10C210008E78043143EA06238D4244F8043BF0D182
:10C220001024916B16464FEAF14383EA714383EA87
:10C230009123716A366852F8045F31440B444FEA27
:10C24000B54181EAF51181EAD50101340B44402C56
:10C25000D363E6D1D0E914E30093836D0193C36DFA
:10C260000293036E0393436E0493836E0593C36E30
:10C270000693DDE9057BDDE9031CDDE901592B4B64
:10C28000009E079374464FF00008079B53F8042B59
:10C2900007934FEAF12383EAB11383EA716A08AB8B
:10C2A00053F828301A440AEB020327EA010A01EA8C
:10C2B0000C028AEA02021A444FEA743A86EA05033B
:10C2C0005A448AEAB40A06EA050B234083EA0B03C0
:10C2D0008AEAB45A08F101089A44B8F1400F02EB17
:10C2E0000903BB465244A94619D172440265009A1B
:10C2F00022444265019A32448265029A2A44C26508
:10C30000039A1A44049B02660B444366059B6344EC
:10C310008366069B3B44C36649B0BDE8F08F674621
:10C3200035468C46264619461446AEE7BCD30F0068
:10C3300030B5E0B10F4A104900240025C0E912458C
:10C34000C0E914120D4C0E4A0E4DC0E916420E4AB9
:10C35000C0E918520D4A826602F17452A2F5230216
:10C360000023A2F692420364C266184630BD0E2036
:10C37000FCE700BF85AE67BB67E6096A72F36E3CF7
:10C380003AF54FA57F520E518C68059BABD9831FA0
:10C3900070B5F0B1DAB900201CE00C468D1800260B
:10C3A000AC42F8D0036C14F8012BC2540133402B7B
:10C3B0000364F5D10146FFF71DFFD0E9123213F5F2
:10C3C000007342F10002C0E912320664E8E7002976
:10C3D000E3D10E2070BD70B50D4616460446002808
:10C3E00075D0002973D0026C8021372A815402F164
:10C3F00001034FF0000240D8382B39D1D4E91201A3
:10C40000226C0823E3FB020103BAE3630B0A84F8FE
:10C410003A300B0C84F839300B0EC4E9120184F861
:10C420003B1084F8383021462046FFF7E3FE691EB2
:10C4300076B30023E26EDA4001F8012FA26EDA40F3
:10C440000A71626EDA400A72226EDA400A73E26D95
:10C45000DA400A74A26DDA400A75626DDA400A7633
:10C46000226DDA400833202B0A77E3D1002070BD1B
:10C47000E2540133C0E7E25401333F2BFBD921469C
:10C480002046FFF7B7FE3822002100F051FEB5E745
:10C490001823226DDA4001F8012F626DDA400A712B
:10C4A000A26DDA400A72E26DDA400A73226EDA4057
:10C4B0000A74626EDA400A75A26EDA400A76E26E9B
:10C4C000DA40083B13F1080F0A77E2D1CEE70E20DD
:10C4D000CDE70000074B1B7853B9074B1A78022AA7
:10C4E00006D002221A70054B4FF40012C3F8002147
:10C4F000704700BFC1080020C008002000E100E034
:10C5000010B50A4C0A482146FEF7E4FB60B9094B16
:10C5100062781A60084B0121C3F81C019960074931
:10C5200002340C60C3F81C2510BD00BFC2080020F7
:10C53000EC080020A009002000200040A4090020F1
:10C540002748284B70B50024042527268560036002
:10C5500046604461FEF788FB2348244B8560C0E9B0
:10C5600000364461FEF780FB214B22491C704FF0DE
:10C57000A0434FF48072C3F81C258022C3F81C2509
:10C580000C22C3F82027C3F81C274022C3F8082533
:10C59000C3F818252022C3F81825174B0622C3F824
:10C5A0000C250822C3F814250722C3F810250522FC
:10C5B000C3F808250122C3F86C25C3F8241584218B
:10C5C000C3F80055C3F80413C3F80841C3F81C416D
:10C5D0001A600A4BE02283F802231D6070BD00BF81
:10C5E000EC080020040900200C080020240800208A
:10C5F000C108002000E0D7010020004000E100E079
:10C600000148FEF7B6BB00BF0C08002010B5044679
:10C610008AB00D48FEF7B1FBA0B922788DF8000072
:10C62000013221460DF1010000F0E8FC06486946A0
:10C63000FEF729FB054B1B780BB9FFF74BFF0120D9
:10C640000AB010BD0020FBE7EC080020C008002065
:10C6500070B5334C88B0661C324BD3F808219AB9B8
:10C66000D3F81C1171B13049C3F81C210A68501E5F
:10C670000860002A44D02D490A68501C12780860CE
:10C68000C3F81C2508B070BD294D0022C3F808214D
:10C69000D3F808212A68D3F818151170531C627852
:10C6A0002B60272A01D92E60D6E79B1B262B04D8A6
:10C6B000012BD1D901329342CED31E482146FEF739
:10C6C000E2FAB8B148F20343ADF80030A3788DF830
:10C6D0000230684686238DF80330FFF797FF154830
:10C6E000FEF74BFB0028DED0134A012313700D4ADE
:10C6F0005360D8E7114B4FF48002C3F80021EEE7F6
:10C700000121D9600C4B0E481978012918BF1A7005
:10C71000FEF73BFB0028B5D1FFF7DCFEB2E700BF18
:10C72000A809002000200040A0090020A409002042
:10C730000C0000200C080020C008002000E100E0F0
:10C74000EC08002070B5EFF3108572B6064C074E6A
:10C750000122227033781BB9237005B962B670BD0F
:10C76000FFF776FFF6E700BFC1080020C0080020F1
:10C7700010B58AB0044669460D48FEF7ABFA90B989
:10C780009DF801202AB101320DF10101204600F08F
:10C7900035FC084B1878012807D100221A70064B87
:10C7A00018600AB010BD0020FBE70120F9E700BFC8
:10C7B0000C080020C008002000200040094B042283
:10C7C000C3F88020BFF34F8FBFF36F8F064B4FF03E
:10C7D000FF32C3F8082301225A60DA600022C3F84E
:10C7E0000025704700E100E000200040044B60227B
:10C7F00083F815234FF400121A60FFF7A1BE00BFA3
:10C8000000E100E000B589B048F20413ADF8003053
:10C8100001238DF802304FF08043D3F80034C3F386
:10C82000C0038DF80330FFF7EBFE8DF80400684677
:10C83000FFF7ECFE00280CBF0420002009B05DF8D3
:10C8400004FB000030B5564C97B0842506A8FFF7CE
:10C850008FFF08B917B030BD9DF81930762B3CD04A
:10C860001BD8022B25D00E2B1BD1FFF76BFF4FF0EF
:10C8700080434FF0FF32C3F800240122C3F81C2587
:10C88000BFF34F8F4749484BCA6802F4E062134335
:10C89000CB60BFF34F8F00BFFDE7772B3ED0782BE7
:10C8A00061D08DF83A3048F20343ADF83830822336
:10C8B0002FE09DF818208DF838208223012A8DF86A
:10C8C000393006D9013A0DF11A010DF13A0000F0A4
:10C8D00095FB0EA8FFF79AFEB8E78DF83A309DF861
:10C8E000183048F20342052BADF8382002D08DF8FD
:10C8F0003B50EEE79DF81C30012B0DD19DF81D102B
:10C90000BDF81A00003918BF0121FEF77FFF002390
:10C91000E35C8DF83B30DCE70723F9E78DF83A302C
:10C920009DF8183048F20742042BADF83820DED1CC
:10C930009DF81C00A8B101280FD1BDF81A00FEF720
:10C9400077FF0023BDF81A20ADF83C209DF81C208D
:10C950008DF83E208DF83F00DAE703238DF838305C
:10C9600000200723EEE78DF83A3002238DF80030DF
:10C970000DF11A0301939DF8183048F20542013B6E
:10C9800068460293ADF83820FBF71DFEBDF81A305B
:10C99000ADF83C30112894BF235C8023B9E700BF79
:10C9A000BCD40F0000ED00E00400FA05034B18684A
:10C9B000A0F1080358425841704700BF30010010F1
:10C9C000064B1B68082B06D1054B1B68032B02D8AE
:10C9D000044AD05C70470020704700BF300100104F
:10C9E00034010010CED40F0008B5FFF7DFFF40B1CF
:10C9F0004FF080430022C3F80C21C3F81021C3F884
:10CA00003825FFF7D3FF002846D04FF080525E4B09
:10CA1000D2F80414C3F82015D2F80814C3F824156A
:10CA2000D2F80C14C3F82815D2F81014C3F82C153A
:10CA3000D2F81414C3F83015D2F81814C3F834150A
:10CA4000D2F81C14C3F84015D2F82014C3F84415CA
:10CA5000D2F82414C3F84815D2F82814C3F84C159A
:10CA6000D2F82C14C3F85015D2F83014C3F854156A
:10CA7000D2F83414C3F86015D2F83814C3F864152A
:10CA8000D2F83C14C3F86815D2F84014C3F86C15FA
:10CA9000D2F84424C3F87025FFF792FF10B13B4B46
:10CAA0003B4A1A60FFF78CFF18B13A4BFB22C3F8E0
:10CAB0001825FFF785FF48B13749384B0A681B68CE
:10CAC00022F00F0203F00F0313430B60FFF778FF10
:10CAD00018B1334B4FF400721A60FFF767FF48B18B
:10CAE0004FF08043D3F80024D20744BF6FF0010217
:10CAF000C3F800242B4AD2F8883043F47003C2F8FC
:10CB00008830BFF34F8FBFF36F8F4FF01023D3F8F0
:10CB10000022002A03DBD3F80432002B2FDA224B49
:10CB20000122C3F80425D3F80024002AFBD04FF0DB
:10CB300010221221C2F80012D3F80024002AFBD0E0
:10CB40004FF010231222C3F80422174B1A46D3F8D1
:10CB500000140029FBD00021C3F80415D2F80034DA
:10CB6000002BFBD0BFF34F8F0E49104BCA6802F465
:10CB7000E0621343CB60BFF34F8F00BFFDE70C4B68
:10CB80000C4A1A6008BD00BF00C000408C5600402F
:10CB90004881030000F00040E40E004058020010FD
:10CBA0004096024000ED00E000E001400400FA057C
:10CBB000100000200090D0030649074A074B9B1A3B
:10CBC00003DD043BC858D050FBDCFFF70DFFFBF73B
:10CBD0005FFB0000E4D40F00040000208000002070
:10CBE000FEE7FEE7FEE7FEE7FEE7FEE7FEE7FEE71D
:10CBF000FEE7FEE753B94AB9002908BF00281CBF69
:10CC00004FF0FF314FF0FF3000F06EB9ADF1080C7E
:10CC10006DE904CE00F006F8DDF804E0DDE902235A
:10CC200004B070472DE9F047089D04468C46002B60
:10CC300040F083808A42174647D9B2FA82F242B165
:10CC4000C2F1200024FA00F09140974040EA010C24
:10CC500094404FEA1748230CBCFBF8F61FFA87FEF6
:10CC600008FB16C143EA014306FB0EF1994209D9BC
:10CC7000FB1806F1FF3080F01981994240F21681CD
:10CC8000023E3B445B1AA4B2B3FBF8F008FB10333E
:10CC900044EA034400FB0EFEA64509D93C1900F105
:10CCA000FF3380F00581A64540F2028102383C4402
:10CCB00040EA0640A4EB0E0400261DB1D440002338
:10CCC000C5E900433146BDE8F08702B9FFDEB2FA9C
:10CCD00082F2002A50D1CB1B4FEA174E1FFA87F879
:10CCE0000126B3FBFEFC210C0EFB1C3341EA034181
:10CCF00008FB0CF38B4207D979180CF1FF3002D2F4
:10CD00008B4200F2E9808446C91AA3B2B1FBFEF05F
:10CD10000EFB101143EA014408FB00F8A04507D9B7
:10CD20003C1900F1FF3302D2A04500F2D980184629
:10CD3000A4EB080440EA0C40BFE78B4209D9002D60
:10CD400000F0B1800026C5E9000130463146BDE85B
:10CD5000F087B3FA83F6002E4AD18B4202D3824287
:10CD600000F2B880841A61EB030101208C46002D8B
:10CD7000A8D0C5E9004CA5E7C2F1200320FA03F6CC
:10CD8000974001FA02F04FEA174ED9403043030CA6
:10CD9000B1FBFEF61FFA87F80EFB161143EA0143BA
:10CDA00006FB08F1994204FA02F409D9FB1806F1CE
:10CDB000FF3C80F08D80994240F28A80023E3B44E5
:10CDC0005B1A81B2B3FBFEF00EFB103341EA034164
:10CDD00000FB08F38B4207D9791800F1FF3C73D2AE
:10CDE0008B4271D902383944CB1A40EA064678E7BB
:10CDF000C6F1200C03FA06F422FA0CF31C4320FAC5
:10CE00000CF701FA06F34FEA144E21FA0CF11F4316
:10CE10003B0CB1FBFEF91FFA84F80EFB191143EA33
:10CE2000014109FB08FA8A4502FA06F200FA06F304
:10CE300008D9611809F1FF3048D28A4546D9A9F1CD
:10CE400002092144A1EB0A01BFB2B1FBFEF00EFBC7
:10CE5000101147EA014700FB08F8B84507D9E71960
:10CE600000F1FF312ED2B8452CD90238274440EAD0
:10CE70000940A7EB0807A0FB02894F45C646494673
:10CE80001AD317D05DB1B3EB0E0267EB010707FAB7
:10CE90000CFCF2404CEA0202F740C5E900270026EC
:10CEA0003146BDE8F0872E4628460BE70646E9E600
:10CEB0001846FDE64345E5D2B8EB020E69EB0401E6
:10CEC0000138DFE70846D2E760468DE78146B9E7DB
:10CED000664675E730464AE7ACF1020C394413E781
:10CEE00002383C4424E700BF704700BF00230146DE
:10CEF0001A46184600F06CB908B5074B044613B142
:10CF0000002100F0B5F9054B1868836A03B1984712
:10CF1000204600F0FBF900BF71D20F00D4D40F00FF
:10CF200038B50A4C0A4D641BA4100AD004F18043A2
:10CF3000013B05EB8305013C55F804399847002C6B
:10CF4000F9D1BDE8384000F0E9B900BF8000002009
:10CF50007C00002070B50D4E0D4D761BB61006D02E
:10CF60000024013455F8043B9847A642F9D1094EF4
:10CF7000094D761B00F0CCF9B61006D00024013420
:10CF800055F8043B9847A642F9D170BD78000020BF
:10CF9000780000207C00002078000020032A70B474
:10CFA00012D940EA0105AD0704460B4620D11946C7
:10CFB000204653F8045B54F8046BAE4218D1043A8F
:10CFC000032A20461946F2D8541E72B103780A7813
:10CFD0009A4208BF241806D00CE010F8013F11F85F
:10CFE000012F934206D1A042F7D1002070BC7047B8
:10CFF000541EEBE7981A70BC704700BF844641EAA4
:10D00000000313F003036DD1403A41D351F8043BC0
:10D0100040F8043B51F8043B40F8043B51F8043B12
:10D0200040F8043B51F8043B40F8043B51F8043B02
:10D0300040F8043B51F8043B40F8043B51F8043BF2
:10D0400040F8043B51F8043B40F8043B51F8043BE2
:10D0500040F8043B51F8043B40F8043B51F8043BD2
:10D0600040F8043B51F8043B40F8043B51F8043BC2
:10D0700040F8043B51F8043B40F8043B51F8043BB2
:10D0800040F8043B51F8043B40F8043B403ABDD221
:10D09000303211D351F8043B40F8043B51F8043BC3
:10D0A00040F8043B51F8043B40F8043B51F8043B82
:10D0B00040F8043B103AEDD20C3205D351F8043B52
:10D0C00040F8043B043AF9D2043208D0D2071CBF1E
:10D0D00011F8013B00F8013B01D30B880380604647
:10D0E000704700BF082A13D38B078DD010F00303BD
:10D0F0008AD0C3F10403D21ADB071CBF11F8013B2D
:10D1000000F8013B80D331F8023B20F8023B7BE77B
:10D11000043AD9D3013A11F8013B00F8013BF9D2A6
:10D120000B7803704B7843708B7883706046704740
:10D13000F0B4860746D0541E002A3CD0CAB203463B
:10D1400002E014F1FF3436D303F8012B9D07F8D128
:10D15000032C29D9CDB245EA05250F2C45EA054512
:10D1600033D9A4F11006360903F1200707EB06179F
:10D1700003F1100242E9045542E902551032BA4265
:10D18000F8D1721C14F00C0F03EB021204F00F061E
:10D1900013D0331F23F003030433134442F8045B1A
:10D1A0009342FBD106F003042CB1C9B21C4403F82E
:10D1B000011B9C42FBD1F0BC704734461346002C47
:10D1C000F3D1F8E714460346C2E71A462646E0E7DD
:10D1D0002DE9F843224C25680DB36C681F2C3BDC0D
:10D1E000984691460F46064688B1D5F8880028B380
:10D1F000D0F8003140F824900122A24000EB8401D5
:10D200001343022EC0F80031C1F8808010D0A31C57
:10D2100001346C6045F823700020BDE8F883114E9E
:10D22000114D2560002ED8D03468C5F88840D4E769
:10D23000D0F804311A43C0F80421E8E70B4B5BB186
:10D240004FF48470AFF3008030B100236C68C0E904
:10D250004033C5F88800CDE74FF0FF30DDE700BF71
:10D260005C0A002000000000D0090020000000003F
:10D270002DE9F04FDFF8908083B0D8F8005001908E
:10D280000F464FF0010A8DB16C68D5F88860013CFB
:10D290000CD405F1080B67B12EB106F1800353F8E9
:10D2A0002430BB4205D014F1FF34F4D203B0BDE802
:10D2B000F08F6B685BF82420013BA34216BF00236C
:10D2C0006C604BF82430002AEDD0D5F80490B6B14C
:10D2D000D6F800110AFA04F30B4210D0D6F8040174
:10D2E00056F8241003420CD1019890476B68D8F887
:10D2F00000204B4501D1AA42D5D01546C3E790473F
:10D30000F4E708469047F1E75C0A0020FEE700BF1B
:10D31000F8B500BFF8BC08BC9E467047F8B500BF22
:10D32000F8BC08BC9E467047FFFF000002030001E6
:10D33000020000001A0000005000000096C298D8B9
:10D340004539A1F4A033EB2D817D0377F240A4632E
:10D35000E5E6BCF847422CE1F2D1176BF551BF3737
:10D360006840B6CBCE5E316B5733CE2B169E0F7C0A
:10D370004AEBE78E9B7F1AFEE242E34F512563FCA6
:10D38000C2CAB9F3849E17A7ADFAE6BCFFFFFFFF40
:10D39000FFFFFFFF00000000FFFFFFFFFFFFFFFF99
:10D3A000FFFFFFFFFFFFFFFF000000000000000085
:10D3B0000000000001000000FFFFFFFF982F8A42DD
:10D3C00091443771CFFBC0B5A5DBB5E95BC25639D7
:10D3D000F111F159A4823F92D55E1CAB98AA07D8EF
:10D3E000015B8312BE853124C37D0C55745DBE7212
:10D3F000FEB1DE80A706DC9B74F19BC1C1699BE492
:10D400008647BEEFC69DC10FCCA10C246F2CE92D21
:10D41000AA84744ADCA9B05CDA88F97652513E9845
:10D420006DC631A8C82703B0C77F59BFF30BE0C64C
:10D430004791A7D55163CA0667292914850AB727DA
:10D4400038211B2EFC6D2C4D130D385354730A6577
:10D45000BB0A6A762EC9C281852C7292A1E8BFA24E
:10D460004B661AA8708B4BC2A3516CC719E892D1B6
:10D47000240699D685350EF470A06A1016C1A41939
:10D48000086C371E4C774827B5BCB034B30C1C3938
:10D490004AAAD84E4FCA9C5BF36F2E68EE828F74F7
:10D4A0006F63A5781478C8840802C78CFAFFBE9011
:10D4B000EB6C50A4F7A3F9BEF27871C600838380A9
:10D4C0008690828583848585848085868586010013
:0CD4D00000000000180000200000000018
:08D4DC00ACADFF7F0100000070
:10D4E400D6BE898E03000000A90900200090D00355
:10D4F40018000020000000000000000000000000F0
:10D504000000000000000000000000000000000017
:10D514000000000000000000000000000000000007
:10D5240000000000000000000000000000000000F7
:10D5340000000000000000000000000000000000E7
:10D5440000000000000000000000000000000000D7
:0CD554000000000069820F0041820F00FF
:020000020000FC
:020000041000EA
:0410140000800F0049
:0410180000700F0055
:04000003F000CBB985
:00000001FF
