:020000022000DC
:1070000000FD03209D980400C5980400C798040063
:10701000C9980400CB980400CD980400000000003B
:10702000000000000000000000000000CF980400F5
:10703000D198040000000000D3980400D598040003
:10704000D7980400D7980400A9790200D7980400C3
:10705000D7980400D79804008DA80200D7980400A0
:10706000D7980400D7980400557C0400D7980400F2
:10707000D7980400D7980400D7980400D798040044
:10708000D7980400DD8F040095160400D7980400FB
:10709000C5900400D79804001DB30200D7980400DF
:1070A000D7980400D7980400D7980400D798040014
:1070B000D7980400D79804000000000000000000EA
:1070C000D7980400D7980400D7980400D7980400F4
:1070D000D7980400D7980400D7980400D7980400E4
:1070E000D7980400D7980400D79804000000000047
:1070F00000000000D798040000000000D7980400AA
:10710000000000000000000000000000000000007F
:10711000000000000000000000000000000000006F
:10712000000000000000000000000000000000005F
:10713000000000000000000000000000000000004F
:10714000000000000000000000000000000000003F
:10715000000000000000000000000000000000002F
:10716000000000000000000000000000000000001F
:10717000000000000000000000000000000000000F
:1071800000000000000000000000000000000000FF
:1071900000000000000000000000000000000000EF
:1071A00000000000000000000000000000000000DF
:1071B00000000000000000000000000000000000CF
:1071C00000000000000000000000000000000000BF
:1071D00000000000000000000000000000000000AF
:1071E000000000000000000000000000000000009F
:1071F000000000000000000000000000000000008F
:107200000348044B834202D0034B03B11847704735
:10721000DC2E0020DC2E002000000000054806497E
:107220000B1AD90F01EBA301491002D0034B03B194
:1072300018477047DC2E0020DC2E002000000000E4
:1072400010B5064C237843B9FFF7DAFF044B13B1AE
:107250000448AFF300800123237010BDE02E00200E
:1072600000000000B0FE040008B5044B1BB1044947
:107270000448AFF30080BDE80840CFE700000000FD
:10728000E42E0020B0FE0400A3F5803A704700BF52
:10729000154B002B08BF114B9D46FFF7F5FF002152
:1072A0008B460F461148124A121A26F09FFA0C4BD1
:1072B000002B00D098470B4B002B00D098470020A4
:1072C000002104000D000B4826F05EF926F090F92D
:1072D0002000290000F0D2F926F05CF90000080037
:1072E000000000000000000000FD0320E02E002050
:1072F000BC720020BDD5040041DF70470378232B0A
:1073000000D0704700B51A4B1B685B0483B003D5EF
:10731000184B1B68032B09DC0322C8210F2003F044
:10732000F5F803B05DF804EB14F0AABB12482F2166
:1073300026F054FC70B12F210F4826F04FFC411C61
:107340000E4B0F4AD3F8043500920420B1221BF0F3
:1073500061FAE1E708485C2126F040FC28B15C2195
:10736000054826F03BFC411CEAE70349E8E700BF7B
:107370004C2E0020482E002044DE04000010014066
:1073800094DE040070B50378093B88B00446042BF2
:107390005ED8DFE803F0878D975F5F00AC4E3368FF
:1073A0005D0418D5AB4B1B68032B14DDAA482F21B5
:1073B00026F014FC002800F02B812F21A64826F08F
:1073C0000DFC411CA54BA64AD3F8043500920420BD
:1073D0004F221BF01FFAB4F81320B4F809309A4278
:1073E0003FD1D4F80F20D4F805309A4239D1D4F8DF
:1073F0001520D4F80B309A4233D204A903A814F014
:107400004FFB002840F0AF80039B9649964A0B44FF
:107410005D08B2EB530F336894BF05F6FF7502F6B3
:10742000FF7525F47F655A0425F00F0504D5894BB7
:107430001B68032B00F3A18020792A46611D13F0FD
:1074400059FF002840F0948000210F2003F03EF8FF
:1074500008B070BD0379022B5FD0042B9ED0012BA6
:107460003ED004A814F0A0F80028F1D19DF81C30FB
:107470005A1E012A02D9083B012BE9D8744B1B681C
:107480005B0404D5734B1B68032B00F38B802079BE
:10749000611D13F097FF0028DAD06F4A952122F082
:1074A0002BFAD5E70121052003F010F808B070BDD4
:1074B00000210F2003F00AF80121032003F006F851
:1074C00008B070BD0F20002103F000F8207914F0FF
:1074D00045F80028BCD0604AA62122F00DFAB7E793
:1074E0005B4B1B685904BCD55A4B1B68032BB8DD9A
:1074F00059482F2126F072FB00287ED02F215648B4
:1075000026F06CFB411C554B584AD3F804350092C9
:1075100004205A221BF07EF9A3E74D4E336858042D
:1075200017D54C4B1B68032B13DD4B482F2126F03E
:1075300055FB002856D02F21474826F04FFB411C11
:10754000464B4B4AD3F804350092042055221BF0D9
:1075500061F9E27B63799A4283D1227CA3799A42D2
:10756000FFF44BAF7DE73C4A6A2122F0C5F94BE7B7
:10757000394A7D2122F0C0F966E737482F2126F0ED
:107580002DFB20B32F21344826F028FB411C394A1B
:10759000324B0420D3F80435CDE900257B221BF0C3
:1075A00039F949E72C482F2126F018FB00283CD058
:1075B0002F21294826F012FB411C284B2E4AD3F8D4
:1075C00004350092042094221BF024F95FE722483E
:1075D0005C2126F003FB30B35C211F4826F0FEFA45
:1075E000411CD4E71C485C2126F0F8FA40B35C212A
:1075F000194826F0F3FA411CA2E717485C2126F04F
:10760000EDFAF8B15C21144826F0E8FA411C7AE75B
:1076100011485C2126F0E2FAB0B15C210E4826F058
:10762000DDFA411CCEE60C49B1E70B485C2126F09F
:10763000D5FA58B15C21084826F0D0FA411CBCE7C5
:1076400005497DE704495EE70349BBE60249B4E723
:107650004C2E0020482E002044DE04000010014083
:10766000B0DE04000070020068020500E0DE0400E5
:10767000C8DE0400F8DE040024DF040000B58DB08D
:1076800021F0BAFE002840F09580AD4DAD4C02F0DF
:10769000A9FFAD4A04214CF287001BF0ABF82B6820
:1076A0005A0403D52368032B00F3F68003F084FC0F
:1076B0002422002103A826F099F80123072106229D
:1076C0008DF80C308DF80F10A04BA1498DF81420C7
:1076D00003A8079314F0E6F8002845D00B2840F0E3
:1076E000F1802B685B043FD52368032B3CDD994870
:1076F0002F2126F073FA28B196482F2126F06EFA32
:1077000001300BE093485C2126F068FA002800F075
:10771000158190485C2126F061FA01308E4B8F4A2A
:10772000D3F8043500920146CC2204201BF072F8F5
:107730002B68580418D52368032B15DD85482F21A5
:1077400026F04CFA002800F0EE8082482F2126F027
:1077500045FA0130804B824AD3F804350092014645
:10776000CD2204201BF056F8002002F03FFD002837
:1077700077D17C487C4B036018F02CFA2B685904B5
:1077800028D4734B1B78002B40D002F04FFDE0B99A
:1077900014F0CEF903F0FAFA14F0DCF878B92B689B
:1077A0005B0402D52368032B60DCFFF7A5FDFFF720
:1077B000A3FDFAE7674ADF2122F09EF865E7654AF4
:1077C0004FF4827122F098F8E9E7624AFF2122F033
:1077D00093F8DDE72368032BD3DD5E482F2126F0E5
:1077E000FDF9002800F092805A482F2126F0F6F982
:1077F0000130594B5D4AD3F8043500920146E92225
:1078000004201BF007F8524B1B7873B90023CDE915
:107810000333CDE90533564A0793564B03A8CDE908
:10782000082302F09FFD002851D12B685A04ACD5E3
:107830002368032BA9DD47482F2126F0CFF9002824
:1078400055D044482F2126F0C9F90130424B4A4A0D
:10785000D3F8043500920146FE2204201AF0DAFF24
:1078600093E73C4AD62122F047F882E739482F2196
:1078700026F0B4F980B337482F2126F0AFF9013054
:10788000354B3E4AD3F80435009201464FF48372DB
:1078900004201AF0BFFF88E72E482F2126F09EF91A
:1078A000002871D02B482F2126F098F901302A4B5F
:1078B000334AD3F8043500920146E32204201AF03B
:1078C000A9FFF3E6234AD22122F016F84CE7214A19
:1078D000FA2122F011F8A8E71E485C2126F07EF973
:1078E00080B11C485C2126F079F90130C8E71948BD
:1078F0005C2126F073F938B116485C2126F06EF948
:107900000130A3E71348BBE712489FE711485C2109
:1079100026F064F928B10F485C2126F05FF90130A8
:1079200067E70C4865E70B485C2126F057F948B338
:1079300008485C2126F052F901300BE70548EDE6D6
:107940004C2E0020482E0020C9270400FD720200A2
:10795000FC2E002044DE0400001001405CDF040027
:10796000ACDF0400002F002085730200E8DF040074
:1079700004E0040054E004001CE004003CE00400C7
:1079800034DF04000748E5E606485C2126F026F9C6
:1079900028B104485C2126F021F9013087E701482D
:1079A00085E700BF44DE04002DE9F041184E194D73
:1079B000194C00272B78326863B1E2B9164BD3F823
:1079C000081139B1C3F80821D3F80811D3F8081108
:1079D0000029F7D1104BD3F81C2152B10F4A0021D6
:1079E000C3F81C111268D3F81C3112B1BDE8F04184
:1079F0001047BDE8F081D4F80831002BEAD0C4F874
:107A00000871D4F80831D4F81805C0B29047D1E70E
:107A1000102F00200C2F002000200040142F0020E9
:107A200000283BD0002939D01D4A1E4B70B41E4D92
:107A300010604FF0A04229600C2003214025C2F8BD
:107A400020070626C2F81C07C2F818170820C2F83B
:107A50000855C2F8141705250722C3F80C65012143
:107A6000C3F81405114CC3F810251148C3F8085584
:107A700004228425C3F86C15C3F82405C3F8002537
:107A80000020C3F80453C025C3F80801C3F81C0143
:107A9000196084F80253226070BC70470E20704752
:107AA000102F002000200040142F002000E100E0F3
:107AB00000E0D701014B1870704700BF0C2F002069
:107AC00038B50D4C23780BB1012038BD0B4D0C4857
:107AD000294616F08BF90028F6D12A68094B0A4985
:107AE000157901222270C3F81C550A80C3F81C01C5
:107AF0009A60012038BD00BF383100205433002087
:107B00004433002000200040182F002070B51C4C8A
:107B1000237893B11B4D2968B1B11B4E0A79338884
:107B2000501C83421AD0934206DC1944174A097943
:107B300001333380C2F81C1570BD7846114D13F027
:107B400083FE29680029E8D1104A114B0120D0603A
:107B500018682170BDE8704019F064BC01330D480D
:107B6000338016F0D1F90949094A002301202B601E
:107B7000C86010682370BDE8704019F053BC00BFA6
:107B80003831002054330020182F002000200040FE
:107B90001C2F00204433002010B5124912484FF426
:107BA000027215F0F9FF114911484FF4027215F0F5
:107BB000F3FF10491048FFF733FF78B90120FFF7B2
:107BC00079FF0E4C0E490F4A0F48002323700B809B
:107BD000138019F007FC0D4B186010BD784613F0A8
:107BE00033FEEBE73C31002044330020242F0020FB
:107BF0002C3100200D7B0200957C020038310020E2
:107C00003A310020182F0020C17A02001C2F0020DA
:107C100030B5421C83B004460D46064892B201A915
:107C200016F048F818B9019B1A1D2A601C7103B0A0
:107C300030BD00BF4433002038B5044608B314F803
:107C4000023C012BA4F1040502D0784613F0FCFDA0
:107C5000227834F8043C9A420FD819F04DFB0B4BB4
:107C6000186819F0DFFB34F8042C0948294616F08F
:107C700079F8BDE8384019F083BB784613F0E4FD8D
:107C8000EBE7784613F0E0FDD9E700BF1C2F00209A
:107C9000443300202DE9F041304C238882B023B1D9
:107CA000013B238002B0BDE8F0812D4E33880546AC
:107CB000B3B12C4C2168CA18013315710A799BB2F3
:107CC000013293423380EDD1002BEBD00A88264855
:107CD000002516F047F8256000F0D2FC3580E1E77A
:107CE000DFF89080B8F8007007B9471C012F07D95A
:107CF0001D4815F03DFF874202D8B7F5807F10D9A7
:107D00000422013F194827800DEB020115F0D2FF34
:107D10000028C7D10198164B40F8043FFFF78CFFAD
:107D2000C0E7104C104821463A4615F0C3FF78B919
:107D3000B8F8003013B933882168BCE7338821686C
:107D4000A8F80000CA18013F013317719BB2B2E7CF
:107D50000020A8F80070FFF7ADFEA3E7202F002059
:107D600058330020503300202C31002044330020B1
:107D7000038400843A31002010B582B0044601A982
:107D80000B4816F033F810B1002002B010BD019975
:107D9000204631F8042B25F08FFC0199044816F099
:107DA000B3F80120FFF786FE012002B010BD00BF2E
:107DB0002C31002070B50446084659B915461E46B8
:107DC00000F078FC334601462A462046BDE8704064
:107DD00000F0A0BC00F06EFC002301461A462046CD
:107DE000BDE8704000F096BC70B44678E2B10C4635
:107DF000002303E09A4204F1080415D011F833502F
:107E0000B54203F10103F5D163780278934204D2BD
:107E1000A17801330B449A420DDD002330461A4607
:107E200070BC842100F076BC002330461A4670BC3A
:107E3000822100F06FBC636870BC184730B5ADF5A7
:107E40003F7D7D2305460DF106024088ADF80630E2
:107E500041A905F06DFD044608B1092816D1BDF809
:107E60000630ADF8083041A95A000DF10A0025F09E
:107E700023FC20466D7800F01DFC02AA0146FC237D
:107E8000284600F047FC0DF53F7D30BD6C7800F0D2
:107E900011FC002301461A46204600F03BFC0DF57C
:107EA0003F7D30BD10B582B0416804460DF1060239
:107EB000408805F00BFDBDF80630ADF804300146F2
:107EC0000223607801AAFFF775FF02B010BD00BF62
:107ED00010B582B0044601A9408805F0D7FC019B8B
:107EE00000930146042360786A46FFF763FF02B0FF
:107EF00010BD00BF10B582B0044601A9408805F04E
:107F0000B9FC01AA014601236078FFF753FF02B0D4
:107F100010BD00BF10B582B0044601A9408805F02D
:107F20009DFC01AA014601236078FFF743FF02B0E0
:107F300010BD00BF10B582B004460DF106014088A7
:107F400005F080FCBDF80630ADF804300146022390
:107F5000607801AAFFF72EFF02B010BD10B50446ED
:107F60008188408805F042FC647800F0A3FB002380
:107F700001461A462046BDE8104000F0CBBB00BFCA
:107F800010B582B0044601A9408805F019FC01AA89
:107F9000014601236078FFF70DFF02B010BD00BF5E
:107FA00010B504460179408805F0CCFB647800F0F8
:107FB00081FB002301461A462046BDE8104000F030
:107FC000A9BB00BF10B582B004460DF10601408880
:107FD00005F070FBBDF80630ADF804300146022311
:107FE000607801AAFFF7E6FE02B010BD10B50446A6
:107FF0008188408805F022FB647800F05BFB002359
:1080000001461A462046BDE8104000F083BB00BF81
:1080100030B5ADF53F7D7D2305460DF10602408864
:10802000ADF8063041A905F087FA044608B10928E1
:1080300016D1BDF80630ADF8083041A95A000DF14F
:108040000A0025F039FB20466D7800F033FB02AAC8
:108050000146FC23284600F05DFB0DF53F7D30BD59
:108060006C7800F027FB002301461A46204600F0FA
:1080700051FB0DF53F7D30BD10B504468188408829
:1080800005F00EFA647800F015FB002301461A464D
:108090002046BDE8104000F03DBB00BF10B50446CF
:1080A0008188408805F0B4F9647800F003FB002370
:1080B00001461A462046BDE8104000F02BBB00BF29
:1080C00030B5ADF53F7D7D2305460DF106024088B4
:1080D000ADF8063041A905F057F9044608B1092862
:1080E00016D1BDF80630ADF8083041A95A000DF19F
:1080F0000A0025F0E1FA20466D7800F0DBFA02AACA
:108100000146FC23284600F005FB0DF53F7D30BD00
:108110006C7800F0CFFA002301461A46204600F0A2
:10812000F9FA0DF53F7D30BD10B5044681884088D1
:1081300005F0DEF8647800F0BDFA002301461A4627
:108140002046BDE8104000F0E5BA00BF10B5044677
:108150008188408805F07AF8647800F0ABFA002353
:1081600001461A462046BDE8104000F0D3BA00BFD1
:1081700010B582B0044601A90DF10502408804F053
:10818000BFFF01AA014602236078FFF713FE02B089
:1081900010BD00BF10B5044642790179408804F053
:1081A00057FF647800F086FA002301461A462046FD
:1081B000BDE8104000F0AEBA10B582B004460DF133
:1081C0000601408804F0B2FEBDF80630ADF8043078
:1081D00001460223607801AAFFF7ECFD02B010BD52
:1081E00010B504468188408804F064FE647800F08D
:1081F00061FA002301461A462046BDE8104000F00F
:1082000089BA00BF10B54378F42B044606D820463F
:108210000449BDE810401522FFF7E6BD784613F08B
:1082200013FBF4E764E0040010B504464078A0F1C5
:10823000400386B0142B0CD8DFE803F0122F121283
:1082400012120B0B0B0B0B0B0B0B0B0B0B0B0B1962
:108250002400DBB21F2B03D9784613F0F5FA6078BF
:1082600000231A46822100F055FA06B010BD23788B
:10827000112B1DD000231A468421532000F04AFA06
:1082800006B010BD2378012B1CD000231A46842190
:10829000542000F03FFA06B010BD2378012B1FD008
:1082A00000231A468421412000F034FA06B010BDA4
:1082B000A01C13F015FC002360781A46194600F044
:1082C00029FAD2E713F034FC1022014602A825F067
:1082D000F3F9607802AA1023002100F01BFAC4E72A
:1082E00068461FF06FFB9DF800300DF10101C3F3EC
:1082F000460306220DF109008DF8083025F0DCF95F
:10830000607802AA0723002100F004FAADE700BF5D
:1083100010B504464078782806D00023BDE8104008
:108320001A46822100F0F6B92046002210F8021BFE
:10833000013912F0BDFD647800F0BCF9002301465C
:108340001A462046BDE8104000F0E4B92DE9F0419E
:108350004C4BDFF86C814C4F4C4E0022C4B01A706D
:1083600004A8FFF709FD78B19DF811401F2C71D9C1
:10837000A4F140031F2B0AD8454B04A8984704A832
:10838000FFF7FAFC0028EFD144B0BDE8F0816F2C74
:1083900022D98F2C6BD9BF2C6BD9CF2C22D8202C73
:1083A00008BF4346E9D03B4B1B681B0403D53A4B3F
:1083B0001B68012B20DC394D2B78022BD0D103A96F
:1083C0000320FFF725FC042841D009283FD058B3EB
:1083D000784613F039FAC3E7A4F160030F2BDCD819
:1083E0002F4BCAE7DF2C46D9F42C46D9FB2CDAD91F
:1083F000FF2CD8D03B46C0E72A482F2125F0EEFBC2
:1084000050B32F21274825F0E9FB411C9DF81100AE
:10841000254AD6F80435CDE90020812202201AF041
:10842000F9F99DF81140C6E7039A2B788421517021
:10843000039A9470039A8221D170022B039C02D07C
:10844000784613F001FA2046FFF7F6FB88E701F0C3
:10845000C3FE85E7154B90E712485C2125F0BEFB73
:1084600068B15C210F4825F0B9FB411CCEE7104BE9
:1084700083E7104B81E7104B7FE7104B7DE70949FD
:10848000C4E700BF5A330020559E0200001001408F
:10849000298202004C2E0020482E00205B33002051
:1084A000F98C02000CE1040060E10400B5A10200B7
:1084B000118302005D9C02003991020005820200D6
:1084C0003DA2020038B5054D2C780CB1082038BD0E
:1084D000FFF762FB012320462B7038BD5B33002081
:1084E00070B54A4E3378012B84B023D0484B1B68BB
:1084F0001A0403D40824204604B070BD454B1B6801
:10850000012BF7DD44482F2125F068FB00286DD0B2
:108510002F21414825F062FB411C404B404AD3F8D3
:1085200004350092022099221AF074F9082420469A
:1085300004B070BD022503A904203570FFF768FB65
:108540000428044627D0092825D038B3784613F0EC
:108550007BF92F4B1B681B0418D52E4B1B68002B77
:1085600014DD2D482F2125F039FB002833D02F2191
:10857000294825F033FB411C2A4A284B0120D3F817
:108580000435CDE90024A3221AF044F90123204642
:10859000337004B070BD01F01FFEDAE7039B327840
:1085A0008121597003994FF080438D70D3F80034C6
:1085B000039903F00803CB70039CFE23022A237166
:1085C00002D0784613F040F92046FFF735FB00242F
:1085D000204604B070BD10485C2125F0FFFA90B130
:1085E0005C210D4825F0FAFA411CC5E70A485C21D8
:1085F00025F0F4FA28B15C21074825F0EFFA411C78
:108600008BE7054989E70449B6E700BF5B330020E3
:108610004C2E0020482E00200CE1040000100140E8
:1086200078E104008CE1040010B50C4B1B78022BA0
:1086300002D00824204610BDFFF7EAFA04280446B9
:1086400008D0092806D00028F4D0784613F0FCF8AA
:10865000204610BD01F0C0FD204610BD5B33002058
:1086600010B5064B1B78022B044602D0784613F057
:10867000EBF82046BDE81040FFF7DEBA5B33002080
:1086800038B5094C25781DB9084B1B78022B00D052
:1086900038BD012306482370294618F005FE00283E
:1086A000F6D0257038BD00BF5A3300205B33002060
:1086B0004D830200112811D80138102821D8DFE895
:1086C00000F00B0B160909091E0B180B14181A16CB
:1086D00009141C008E2070478320704743F2010369
:1086E000984214BF80208E207047872070478120D9
:1086F00070478420704793207047862070478520FC
:1087000070470020704700BF014B1878704700BFCA
:108710005B3300202DE9F041074682B088461C46B5
:1087200015463AB143B1204E3378022B0BD002B03C
:10873000BDE8F081002BF6D078461B4E13F084F88C
:108740003378022BF3D1E01C80B201A9FFF760FA65
:10875000042824D0092822D028B1784613F074F8D0
:1087600002B0BDE8F081019B84225A70019B9F708A
:10877000019B83F803802DB10198224629460430DD
:1087800024F09AFF3378019C022B02D0784613F034
:108790005BF82046FFF750FA02B0BDE8F08101F027
:1087A0001BFD02B0BDE8F0815B33002030B50378DB
:1087B00083B004460C2B39D8DFE813F044006D0079
:1087C00077000D008100AC00DE001001380042018E
:1087D0008201CF013A0001A90320FFF725FF28BB42
:1087E000019AB54BC4215170626801999A4200F018
:1087F000E78103F59A70824200F0F98103F51A705F
:10880000824200F0F68103F56770824200F0D78162
:1088100003F59A639A4208BF042000F0D181FF2338
:108820008B70237ACB700198FFF71AFF03B030BD2D
:1088300001A90320FFF7F8FE0028F7D1019A9E4B0B
:10884000C921D0E79D4B1B78002BEFD001A91A203E
:10885000FFF7EAFE0028E9D1019BC0225A70019D72
:10886000211D1022A81C24F027FFE36993F90D3085
:10887000AB74237DEB74E3699B7BC3F346032B75D9
:10888000E16905F115000F31062224F015FF01986A
:10889000FFF7E6FECAE701A90220FFF7C5FE0028A0
:1088A000C4D1019A844BC12112E001A90320FFF732
:1088B000BBFE0028BAD1019A7F4BC22193E701A9E0
:1088C0000220FFF7B1FE0028B0D1019A7A4BCA21ED
:1088D0005170626801999A4200F0758103F59A70AF
:1088E000824200F0888103F51A70824200F085818F
:1088F00003F56770824200F0658103F59A639A423E
:1089000008BF042000F05F81FF238B700198FFF700
:10891000A7FE8BE701A91320FFF786FE002885D16B
:10892000019A654BC8215170626801999A4200F022
:10893000668103F59A70824200F0658103F51A7032
:10894000824200F06C8103F56770824200F043813F
:1089500003F59A639A4208BF042300F03D81FF2388
:108960008B70237ACB70627A081DE16824F0A4FE34
:108970000198FFF775FE59E701A90520FFF754FE9E
:1089800000287FF453AF019A4B4BC62151706268A7
:1089900001999A4200F01D8103F59A70824200F01D
:1089A000368103F51A70824200F0378103F5677053
:1089B000824200F00D8103F59A639A4208BF0420B9
:1089C00000F00781FF2303228B70CA70237A0B719A
:1089D000637A01984B71FFF743FE27E701A9052051
:1089E000FFF722FE00287FF421AF019A324BC62107
:1089F0005170626801999A4200F0F18003F59A7013
:108A0000824200F0068103F51A70824200F00D8167
:108A100003F56770824200F0E18003F59A639A42A1
:108A200008BF042000F0DB80FF2301228B70CA7096
:108A30001023002201980A714B71FFF711FEF5E631
:108A400001A90B20FFF7F0FD00287FF4EFAE019A9B
:108A5000194BC32151706168019A994200F0B680A8
:108A600003F59A70814200F0CC8003F51A708142C0
:108A700000F0D78003F56770814200F0A68003F50F
:108A80009A63994208BF042000F0A080FF239370EE
:108A9000237AD370E37A1371237B5371637B9371D1
:108AA000E389A2F80730237C5372B4F8113001989F
:108AB0005381FFF7D5FDB9E6643C0020B4420020A5
:108AC00001A92C20FFF7B0FD00287FF4AFAE019A7A
:108AD000584BC52151706268019D9A4200F0858013
:108AE00003F59A718A4200F0908003F51A718A4268
:108AF00000F09D8003F567718A4275D003F59A6393
:108B00009A4208BF042070D0FF23AB70E368D3F80B
:108B10001230C5F80330E368DB8AA5F80930E36852
:108B20001B8AA5F80730E3681B7EC3F30003EB72D2
:108B3000E3681B7EC3F340032B73A168102205F189
:108B40000D0024F0B9FDE16805F11D00102224F0AC
:108B5000B3FD0198FFF784FD68E601A96220FFF7E5
:108B600063FD00287FF462AE019A324BC721517039
:108B70006268019D9A4235D003F59A718A424AD0C3
:108B800003F51A718A424ED003F567718A4228D0E4
:108B900003F59A639A4208BF042023D0FF23AB70E9
:108BA000A1684022E81C24F087FDE16805F143003C
:108BB000202224F081FD0198FFF752FD36E60320C4
:108BC000C3B22DE60320C3B29FE60320C3B25EE723
:108BD0000320C3B2F7E60323DBB2C1E60320C3B22E
:108BE00023E70320C3B2DAE70320C3B28DE70120F5
:108BF000E6E70220E4E70120E5E70220E3E7034699
:108C0000EAE70120E2E70123E6E70120EDE70120A2
:108C1000DFE70120E3E70120E4E70220D9E70223B0
:108C2000DAE70220D2E70220DCE70220D7E70220C1
:108C3000DBE700BF643C002070B5264B1B681B04BB
:108C400082B003D5244B1B68032B21DC2349244825
:108C50000EF0BCFBC0B9234C234D04F6E8062046B9
:108C600010F08CFC014628460EF09AFB40B904F542
:108C7000E474B44205F59A75F1D1002002B070BDDC
:108C8000784612F0E1FDF2E7784612F0DDFDE2E70A
:108C900016482F2124F0A2FF78B12F21134824F089
:108CA0009DFF411C124B134AD3F804350092042057
:108CB00040F20B1219F0AEFDC8E70C485C2124F01D
:108CC0008DFF28B15C21094824F088FF411CE9E7A9
:108CD0000649E7E74C2E0020482E0020443C0020A7
:108CE000744200205C330020643C0020C4E1040096
:108CF0000010014024E204002DE9F0414378613B7B
:108D00008AB004460A2B13D8DFE803F023333D4B27
:108D100012606C06788C15008578042D40F2B680C0
:108D20000B21012303AA68208DF80C50FFF742F8AD
:108D30000AB0BDE8F0818078042800F2A080904B52
:108D40004FF49A7202FB003000F597700222E11C8A
:108D50005DE08C4B1A78002A40F08A8001228A4814
:108D60001A700EF0ABFC002853D0784612F06CFD60
:108D70004FE0844A1378002B6FD11A46832162207A
:108D8000FFF7C8FCD4E78678042E40F2AD800B21B3
:108D900003AD2A46012363208DF80C60FFF70AF823
:108DA000C6E7794B0093794A794B7A4974480EF0BB
:108DB000DBFA002800F091806478FFF77BFC002349
:108DC00001461A462046FFF7A5FCB1E78578042D39
:108DD00076D90B21012303AA66208DF80C50FEF7EB
:108DE000E9FFA5E78578042D5BD90B21012303AAB0
:108DF00067208DF80C50FEF7DDFF99E7811C2022DB
:108E0000624824F059FC6348402204F1220124F016
:108E100053FC002360781A461946FFF77BFC0AB022
:108E2000BDE8F0815A4A83781370002393700121C2
:108E3000E57800795170217AD57011721071B4F80B
:108E40000910A2F8091061795171E188D180607828
:108E50001A461946FFF75EFC6AE7002515700EF00A
:108E600035FC60782B462A462946FFF753FC5FE71E
:108E700000231A4683216120FFF74CFC58E70023AA
:108E80001A4683216B20FFF745FC51E73C4B4FF41A
:108E90009A7000FB0530E11C0EF008FCA578014635
:108EA0003FE70146364B11F8032B4FF49A70023A14
:108EB00000FB0530D2B20EF035FBA578014695E7F0
:108EC0002F49437902794FF49A7000FB0510E1783D
:108ED0000EF01CFBA57801467CE702460146012303
:108EE00027480EF075FA67E703AD0023102204F15E
:108EF00013012846C5E90233C5E904336B600393C7
:108F00002B7624F0D9FB022204F1230107A824F0D8
:108F1000D3FB042204F125010DF11E0024F0CCFB4B
:108F200094F82A6094F829209DF82430A078144FF2
:108F300015490091760002F0010206F00206164380
:108F400023F003034FF49A781249104A1E4308FB9A
:108F500000700F4B8DF824600EF006FA014608B140
:108F6000A67816E7A07894F82B2001230093E11C43
:108F700008FB00702B460EF0A7FA0146F0E700BF91
:108F8000643C0020B4420020AD870200443C002035
:108F9000684200207442002010B50378073B82B07D
:108FA0000446062B29D8DFE803F03351617B98048F
:108FB0002A0001A91620FFF737FBF0B9019BA52273
:108FC0005A70019B22799A702346019A53F8051F23
:108FD0005868C2F80700C2F803101B89A2F80B30CA
:108FE00054F80F3F01986268C0F81120C0F80D30A6
:108FF0002389A0F81530FFF733FB02B010BD01A99B
:109000001620FFF711FB0028F7D1019BA622D7E716
:1090100001A90D20FFF708FB0028EED1019BA0223B
:109020005A70019B22799A702346019A53F8051FC2
:109030005868C2F80700C2F803101B89A2F80B3069
:109040000198E37B4373FFF70BFBD6E701A90220EE
:10905000FFF7EAFA0028D0D1019BA1225A70019BA8
:1090600022799A700198FFF7FBFAC6E701A90D2053
:10907000FFF7DAFA0028C0D1019BA2225A70019BA7
:1090800022799A70019B6279DA7054F8063F019850
:1090900062688260436023898381FFF7E1FAACE76D
:1090A00001A90E20FFF7C0FA0028A6D1019BA32238
:1090B0005A70019B22799A70019B6279DA7023467B
:1090C000019853F8062F5968816042601B8983819B
:1090D000237C8373FFF7C4FA8FE701A91520FFF7FC
:1090E000A3FA002889D1019BA4225A70019B2279FE
:1090F0009A702346019A53F8051F5868C2F8070072
:10910000C2F803101B89A2F80B3001982369C0F83C
:109110000D306369C0F81130237E4375FFF7A0FA64
:109120006BE700BF0248034B036016F053BD00BF5E
:10913000B8420020998F020030B504464078A0F173
:10914000D003062B8BB004D8524A2178D25C9142CE
:1091500008D1062B00F28D80DFE803F01522292EBE
:1091600031570B0000231A468421FFF7D3FA0BB0C6
:1091700030BD2378012B52D000231A468421D620FB
:10918000FFF7C8FAF3E711F06BFE6478FFF792FA85
:10919000002301461A462046FFF7BCFA0BB030BD4B
:1091A000D4F80D20A078E11C12F0A4F8EDE7A07827
:1091B000E11C12F007F9E8E712F070F9E5E76946FB
:1091C000A07812F09FF901460028DED19DF800201A
:1091D000DDF80150BDF809306078DDF805408DF804
:1091E0001420CDF815509DF80B20039DCDF81940A3
:1091F000ADF81D30049C8DF81F2014230DEB0302E5
:10920000CDE90854FFF786FAB1E72378022B2CD07A
:1092100000231A468421D520FFF77CFAA7E7002116
:109220000A220DF1020024F0E1FA684612F0BCF9BE
:1092300001460028A9D1DDF80230DDF8062060786B
:10924000BDF80040BDF80A50ADF81440CDF8163016
:10925000BDF80C40CDF81A200E2305AAADF81E501B
:10926000ADF82040FFF756FA81E7A07812F076F9C2
:109270008BE700F13003DBB20F2B05D800231A4631
:109280008221FFF747FA72E7784612F0DDFA60783C
:10929000F4E700BF48E20400F0B5037883B0044669
:1092A000052B3DD8DFE803F00356687A3C3E07897A
:1092B000514EEB2F384628BFEB20143080B2314698
:1092C000FFF7B2F960BB35682389A5F81330237D19
:1092D000012B76D1D0236B70E38AAB80E3896B805E
:1092E000206A06F0D3FFE880E06906F02BFF2881B2
:1092F00094F82430AB72A36A9B7BC3F34603EB72F2
:10930000A16A06220F3105F10C0024F0D5F9A36AF9
:1093100093F90D30AB74002F60D13068FFF7A0F9DE
:1093200003B0F0BD344D07202946FFF77DF9002832
:10933000F6D12B68D8225A702B6822799A702B6844
:109340006279DA702868E38883802389C380FFF715
:1093500087F9E5E7284D05202946FFF765F900283C
:10936000DED12B68D2225A702B686268C3F80220C3
:109370002868FFF775F9D3E71F4D05202946FFF749
:1093800053F90028CCD12B68D3225A702B68E2689D
:10939000C3F802202868FFF763F9C1E7164D0420DF
:1093A0002946FFF741F90028BAD12B68D4225A7018
:1093B0002B68A2885A802868237B0371FFF750F935
:1093C000AEE7D1236B700DF1060104F1140006F035
:1093D000BDFC68B9BDF80630AB807FE7EB2F3A469D
:1093E000616828BFEB2205F1150024F065F994E7C8
:1093F000784612F029FAEDE7D442002030B585B066
:10940000D0F80630D0F802200092002504466846C5
:10941000CDE9023501951CF055F82B4601462A4648
:109420006078FEF7C7FC05B030BD00BF0023407870
:109430001A460821FEF7BEBC00B583B01023ADF874
:1094400004304078022301AA0021FEF7B3FC03B0E8
:109450005DF804FB00B583B00123ADF8043040781B
:10946000022301AA0021FEF7A5FC03B05DF804FB6E
:1094700000B583B00823ADF804304078022301AA78
:109480000021FEF797FC03B05DF804FB00B583B044
:109490000423ADF804304078022301AA0021FEF72E
:1094A00089FC03B05DF804FB30B587B0C2788378DF
:1094B000044680680390B4F80F006568217B02952C
:1094C00043EA0223D4F80D20ADF804308DF81010D3
:1094D000CDF8122006F008FE4FF6FF73984207D130
:1094E0000B21002360781A46FEF764FC07B030BDFC
:1094F00001A81CF05DF80146F3E700BF30B58BB062
:10950000044605A94FF480201CF0DCFDC8B903A96E
:109510004FF440301CF0D6FD059B9DF81820BDF897
:109520001950079301468DF820206078039CADF810
:1095300021500B2307AACDF82340FEF73BFC0BB0CC
:1095400030BD002301461A466078FEF733FC0BB0AD
:1095500030BD00BF10B5044640880CF0BBFD0023B1
:1095600001461A466078BDE81040FEF723BC00BFF4
:1095700010B5044612F076FA002360781A46BDE86A
:1095800010401946FFF7C6B810B582B004466846C9
:1095900005F0E2FB009B0193042360780DEB0302CE
:1095A0000021FEF707FC02B010BD00BF30B58DB042
:1095B00004462422002103A824F018F916F016FB13
:1095C000D4F80230024603A960890192029306F0A2
:1095D0006FFA014630B16078082301AAFEF7EAFB72
:1095E0000DB030BD684605F0B7FB2389BDF80020FB
:1095F000934236D3BDF802100A44934231DAE1882F
:1096000009AA4FF6FF7008F05DFA01460028E2D182
:10961000637B2078227A657A003B18BF01230F28EC
:1096200088BFA0F10F0142EA052288BF89B2ADF8D8
:1096300014208DF81730227BA37B8DF816208DF82F
:10964000183098BF0A46019BADF8201088BF04F17E
:109650001002002103A807920B9316F0B9FA0146F5
:10966000B9E71021B7E700BF30B5ADF53F7D7E23E8
:109670000446694640A8009306F054FA009B05464C
:109680007BB15A0040A901A824F016F8009B60782D
:109690005B009BB201AA2946FEF78CFB0DF53F7DCE
:1096A00030BD01461A466078FEF784FB0DF53F7D1C
:1096B00030BD00BF30B589B004466946408806F029
:1096C000F7F90023CDE90233CDE9043305460693CB
:1096D000ADF81C3030B1607802AA2946FEF76AFB6B
:1096E00009B030BDA378E2789DF800108DF80A101B
:1096F00043EA02236846ADF8083009F0CFFA019931
:10970000BDF802308DF80B00ADF80C3031B11022ED
:109710000DF10E0023F0D0FF1623DCE70623DAE775
:1097200010B5044682B0408805F022FEA378E278A6
:109730000146607843EA0224022301AAADF80440FE
:10974000FEF738FB02B010BD10B582B004460DF133
:109750000601023005F0B4FCBDF80630ADF8043067
:1097600001460223607801AAFEF724FB02B010BD77
:1097700010B582B004460DF10601408805F0FCFAF0
:10978000BDF80630ADF8043001460223607801AA26
:10979000FEF710FB02B010BD10B5044682B0408841
:1097A00006F03EF9A378E2780146607843EA0224A5
:1097B000022301AAADF80440FEF7FCFA02B010BD86
:1097C00010B582B004460DF10601023005F0A8FF85
:1097D000BDF80630ADF8043001460223607801AAD6
:1097E000FEF7E8FA02B010BD10B582B004460DF1E4
:1097F0000601408805F010FEBDF80630ADF80430D3
:1098000001460223607801AAFEF7D4FA02B010BD27
:1098100010B5044682B0D4F80230019301A805F0D7
:1098200053FA002301461A466078FEF7C3FA02B0E5
:1098300010BD00BF10B5044682B0408807F0A6FDF9
:10984000A378E2780146607843EA0224022301AA61
:10985000ADF80440FEF7AEFA02B010BD10B582B00C
:1098600081880446821D0DF10603408807F03EFC06
:10987000BDF80630ADF8043001460223607801AA35
:10988000FEF798FA02B010BD70B5ADF53E7D7D23B0
:10989000044601AA4088019341A908F067F8019B9A
:1098A00005463BB901461A466078FEF783FA0DF586
:1098B0003E7D70BDA078E6785A0041A940EA0623B3
:1098C0000DF10A00ADF8083023F0F6FE019B607838
:1098D00001335B009BB202AA2946FEF76BFA0DF535
:1098E0003E7D70BD10B5044682B0408808F016F881
:1098F000A378E2780146607843EA0224022301AAB1
:10990000ADF80440FEF756FA02B010BD10B5011DC7
:1099100082B00446408807F08BFFA378E2780146C6
:10992000607843EA0224022301AAADF80440FEF75E
:1099300041FA02B010BD00BF10B582B08188044664
:10994000821D0DF10603408807F046FDBDF8063084
:10995000ADF8043001460223607801AAFEF72AFA26
:1099600002B010BD30B5ADF53F7D7E23054669469A
:1099700040A8009307F074FB009B04463BB90146E6
:109980001A466878FEF716FA0DF53F7D30BD5A008D
:1099900040A901A823F090FE009B68785B009BB271
:1099A00001AA2146FEF706FA0DF53F7D30BD00BF46
:1099B00010B5044682B0408807F026FAA378E27812
:1099C0000146607843EA0224022301AAADF804406C
:1099D000FEF7F0F902B010BD10B5011D82B00446CB
:1099E000408806F0DBFEA378E2780146607843EA1F
:1099F0000224022301AAADF80440FEF7DBF902B00D
:109A000010BD00BF10B582B00446011D0DF1060265
:109A1000408806F00FFDBDF80630ADF80430014671
:109A20000223607801AAFEF7C5F902B010BD00BF9D
:109A300010B5447816F0B4F8002301461A462046C3
:109A4000BDE81040FEF7B6B910B5447816F040F8FE
:109A5000002301461A462046BDE81040FEF7AAB989
:109A600030B583B0019148B9BDF8043033B9BDF8C1
:109A70000630032B144619D0042B01D003B030BD9F
:109A8000144D08202946FEF7CFFD0028F6D12B689B
:109A9000D9225A702B682268C3F8022028682379DB
:109AA0008371B4F80530A0F807300EE0094D0520A9
:109AB0002946FEF7B9FD0028E0D12B68DA225A705A
:109AC0002B682268C3F80220286803B0BDE8304044
:109AD000FEF7C6BDD042002030B585B005461BF06C
:109AE0005FFD028812B14188044669B901AC204685
:109AF0000A22002123F07AFE687822460A230021F8
:109B0000FEF708FE05B030BD4368ADF80420ADF89F
:109B1000061043B1B3F5004F23D94FF6FF729342BD
:109B20001AD1FF2200E01A46A3688DF8092063B11C
:109B3000B3F5803F20D85B0823D00022511C5B087E
:109B40001046CAB2FAD1831CDBB2E268CDF80A2013
:109B50008DF8083001ACCFE7784611F075FE102281
:109B6000E2E75B080FD00021481C5B080A46C1B23F
:109B7000FAD10232D2B2D7E7784611F065FE11234E
:109B8000E3E70123E1E70122CEE700BF70B584B02F
:109B900004461BF009FD43680288ADF80420012B40
:109BA000054636D9B3F5004F29D94FF6FF729342D7
:109BB00031D0784611F048FE1023AA688DF806309F
:109BC00062B1B2F5803F28D852082BD00023581C30
:109BD00052081946C3B2FAD18A1CD2B260782E7BE1
:109BE000D5F80E408DF80720092301AA00218DF831
:109BF0000860CDF80940FEF78DFD04B070BD013B53
:109C00005B0811D00022511C5B081046CAB2FAD181
:109C1000C31CDBB2D1E7FF23CFE7784611F014FE77
:109C20001122DBE70122D9E70223C6E700B583B0A2
:109C30000823ADF804304078022301AA0021FEF782
:109C4000B9F803B05DF804FB0248034B036015F05C
:109C5000C1BF00BFC44200209992020070B5044603
:109C6000407800F17003DBB22F2B31D8B32828D80D
:109C70001A4DA0F1900615F83630834210D105EB4D
:109C8000C60325785A78AA4213D29878511C024606
:109C90000A4495420DDC20465B68BDE870401847D9
:109CA000784611F0D1FD05EBC60325785A78AA4213
:109CB000EBD3002360781A46BDE870408421FEF79C
:109CC00029BD0023BDE870401A468221FEF722BD5F
:109CD000784611F0B9FD6078C8E700BF58E204008B
:109CE00070B5C0B005466946408803F0CFFD044614
:109CF00090B91E4E736873B104223146684623F052
:109D0000ABFCB0B1336933B16846042206F10C01F3
:109D100023F0A2FC60B1052420466D78FEF7CAFC52
:109D2000002301461A462846FEF7F4FC40B070BDF9
:109D3000012404EB440406EB84040022A3688DF89C
:109D4000042001A9A81C98479DF804300446002B64
:109D5000E2D06C78FEF7AEFC9DF80430014601AA13
:109D600020460133FEF7D6FCE0E700BFD8420020D2
:109D700030B51B4DC1B00446FA2201A8002123F0E2
:109D800035FD6B6843B3042229460DF1060023F02C
:109D900093FCBDF804302A6901339BB2ADF804305E
:109DA000D2B13D2B1AD801AA02EB830005F10C01B8
:109DB0000230042223F080FCBDF8043001339BB252
:109DC000ADF8043000219B00023360789BB201AAF9
:109DD000FDF7F0FF41B030BD0021F4E70C21F2E7C0
:109DE000D842002070B51A4C636882B005467BB13A
:109DF000861C04222146304623F02EFC98B12369AC
:109E000033B1042204F10C01304623F025FCE8B103
:109E10000023ADF8043005216878022301AAFDF77C
:109E2000C9FF02B070BD03465800184404EB80041B
:109E300000226368ADF804200DF106013046984712
:109E4000BDF80630ADF804300146E5E70123EBE745
:109E5000D842002010B54378FF2B044606D0204698
:109E60000449BDE810400322FDF7BEBF784611F05B
:109E7000EBFCF4E778E3040010B50422044600216B
:109E8000054823F0B3FC002360781A46BDE8104073
:109E90001946FEF73FBC00BF2C44002010B5042239
:109EA00082B0044600210DEB020023F09FFC054B1D
:109EB00060781B68019301AA04230021FEF72AFCA5
:109EC00002B010BD2C44002000B583B00A23ADF8C9
:109ED00004304078022301AA0021FEF71BFC03B0E6
:109EE0005DF804FB002340781A468221FEF712BC7D
:109EF00030B5857883B004465DB107206478FEF7FD
:109F0000D9FB002301461A462046FEF703FC03B0A6
:109F100030BDD0F805101A481DF0F6FC2946052280
:109F2000684623F063FC22799DF8033012F00101AA
:109F300007D002A919442520013301F8080CDBB22F
:109F40000121900712D502A919442620013301F8F6
:109F5000080C5107DBB206D502AA1A4427210133A7
:109F6000DBB202F8081C8DF8033003E05207F3D48B
:109F70000029F8D1024869461DF046FC0020BDE7E3
:109F8000F442002070B5857804462DB90E4E337822
:109F9000012B0DD0082000E007206478FEF78AFB33
:109FA000002301461A462046BDE87040FEF7B2BBCA
:109FB000301D1DF0F7FCA2784FF49E7303FB02F3F3
:109FC0002846F554E9E700BFF04200202DE9F041B2
:109FD000857804465DB107206478FEF76BFB0023AB
:109FE00001461A462046BDE8F041FEF793BB0778CC
:109FF000DFF84480023F394608F104001DF064FB9D
:10A000000646B8B1FF2303713A46E11C113023F034
:10A0100053FBA0784FF49E7707FB00800430314655
:10A020001DF092FBA37807FB03F7012308F8073024
:10A030002846D1E70420CFE7F042002010B50446BF
:10A04000012015F02DFE002360781A46BDE810406F
:10A050008E21FEF75FBB00BF10B582B0044601A998
:10A060000078FEF7E1FA08B102B010BD019B822230
:10A070005A70019810F8022BA11C013A23F01CFB26
:10A080000198FEF7EDFA02B010BD00BF70B58278FE
:10A0900082B00546002A46D1384E8DF8002096F849
:10A0A0007B008DF8022048B396F87830A3F12501A3
:10A0B000CBB2022B3FD801238B401343DBB20128E4
:10A0C0008DF802301AD996F87920A2F12501CAB28A
:10A0D000022A46D801228A401343DBB202288DF8B7
:10A0E00002300BD996F87A20A2F12501CAB2022AD1
:10A0F0002DD801228A4013438DF80230746F204B13
:10A1000096F82C208DF8012004F5FA74A3FB043492
:10A110006878A40907236A460021CDF80340FEF7BA
:10A12000F9FA02B070BD002340781A468521FEF787
:10A13000F1FA02B070BD784611F086FB96F87830DF
:10A140009DF8022096F87B00A3F12501B3E778463D
:10A1500011F07AFB96F87A209DF80230A2F12501E1
:10A16000C7E7784611F070FB96F879209DF8023029
:10A1700096F87B00A2F12501ACE700BFF042002079
:10A18000D34D6210002340781A468221FEF7C2BAEE
:10A1900008B5064A9C23101D0021A0321DF0E6F9E7
:10A1A000BDE8084002481DF055BA00BFF04200204B
:10A1B000F442002010B543781F2B044606D82046F1
:10A1C0000449BDE810400B22FDF70EBE784611F0A1
:10A1D0003BFBF4E790E30400034A1368591C1CBFDF
:10A1E00001331360704700BF2C44002038B505468A
:10A1F000FEF78AFAB0B9FEF71FFD044608B1204603
:10A2000038BDFEF75FF904460028F8D1FFF7C0FF1C
:10A21000FFF71AFDFEF786FF002DF0D0284600F06C
:10A2200007F8ECE70824204638BD00BFFEF758B910
:10A23000014B1860704700BF3044002010B50B4B35
:10A240001B6804465BB110F8021B013998470023D4
:10A2500060781A46BDE810401946FEF75BBABDE8C3
:10A26000104040781A468E21FEF754BA3044002040
:10A2700003781F2B02D1024B01221A70704700BFD6
:10A280003644002010B50378023B082B0FD8DFE8D6
:10A2900003F00F442B0E0E380E0E0500D0E902100D
:10A2A00011F05AFB00284CD1274B01221A7010BD27
:10A2B000254B1B78002B3DD1244C226912B1244937
:10A2C0000B709047234B1B78002BF0D12249234879
:10A2D0000DF07CF80028EAD161690246BDE8104023
:10A2E0001F4801230DF074B8184BDB68002BDED03B
:10A2F000174A11780029DAD000211170BDE810400A
:10A300001847124B1648996910220DF00BF90028D6
:10A31000CDD0BDE810401FF0DFBA0C4B9B68002B7E
:10A32000C5D0007A0028C2D0094A01211170BDE8C9
:10A3300010401847054B5B68002BB8D0BDE81040B3
:10A3400018471FF0C9FAAFE7354400203844002011
:10A35000344400203644002054440020704700203C
:10A360003C460020F0B5214B214F044693E80700FE
:10A3700087B003AE03C64FEA124C26F8022B0FCC6F
:10A380003D460FC594E8070085E80700BB6986F8DD
:10A3900000C033B3174B0093174A1849184803AB52
:10A3A0000CF0E2FF08B107B0F0BD16480FF0E6F878
:10A3B000014613480CF0F4FF0028F4D1124815F0C0
:10A3C00009FC124B1B787BB90B490C480CF0FEFFC3
:10A3D0000028E8D102467969094801230CF0F8FF0A
:10A3E000E1E7072007B0F0BD0820DCE7E8E3040060
:10A3F0003844002085A20200544400207047002009
:10A400003C46002074440020002E002036440020EA
:10A410002DE9F047DFF8ACA0DAF8000058B3254D7D
:10A42000DFF898802F68DFF8A0900024012606FA54
:10A4300004F33B4211D014F808001F288ABF4B4692
:10A440004FF0A04300F01F02D3F8043598BF024636
:10A45000D340DA070CD500F009FA0134042CE6D118
:10A46000DAF80040013CCAF800403CB1BDE8F08792
:10A4700000F0ECF9F1E71FF02FFAD0E70E480F4F8C
:10A480000F4E1FF093F84FF001082B6808FA04F202
:10A490001A4206D03368E05DE340DB0706D500F0E2
:10A4A000E5F90134042CF0D1BDE8F08700F0CEF9D5
:10A4B000F7E700BFB4470020B8470020F8E30400E6
:10A4C000D8470020B047002000030050F8B50E4FD9
:10A4D000054661B90C46012606FA04F32B4202D068
:10A4E000385D00F0B3F90134042CF5D1F8BD002437
:10A4F000012606FA04F32B4202D0385D00F0B6F9CB
:10A500000134042CF5D1F8BDF8E30400002A4FD043
:10A5100013294DD9F8B552002D4B2E4D013A1A6032
:10A5200010F00103286007D04FF0A043D3F80435A2
:10A530006FEA533303F00103860709D54FF0A042B9
:10A54000D2F804256FEA9232520002F0020213435D
:10A55000440709D54FF0A042D2F804256FEAD23261
:10A56000920002F004021343020709D54FF0A04203
:10A57000D2F804256FEA1242D20002F00802134317
:10A58000154A4FF4004013604FF4FA720023E0FBC9
:10A590000123104619464FF47A72002322F078FE08
:10A5A000002201460D481EF0A7FF044608B1F8BD81
:10A5B00070470B4F2E68012505FA04F3334202D091
:10A5C000385D00F053F90134042CF5D1F8BD00BF1B
:10A5D000B0470020B4470020D8470020B8470020EB
:10A5E000F8E3040030B583B000F088F8E0B1144C13
:10A5F00000230122ADF804308DF80630251D8DF8BA
:10A60000052014F8010B01A900F082F848B9AC420A
:10A61000F7D10C4A0C4801211EF05CFF58B903B079
:10A6200030BD1FF059F9F2E700F010F80028DED035
:10A630001FF052F9DBE71FF04FF903B030BD00BF48
:10A64000F8E3040011A40200F4E30400F0B5264C82
:10A6500094F86A3083B0002B42D14FF6FF70FF258B
:10A660005A09012A0CBF02464FF0FF3203F01F01C6
:10A67000CA40D20748BFE21803F1010348BF82F87D
:10A680003050302BECD14FF0FF334FF0FF364FF00E
:10A69000FF370622002115482366C4E90233C4E9C6
:10A6A0000433C4E90633C4E90833C4E90A33C4E90E
:10A6B000006723F09BF80E4BC02283F8062340224C
:10A6C0001A600C4B0C4A002018601B680193012192
:10A6D0004FF00043019D84F86A10C2F8043300E093
:10A6E000082003B0F0BD00BFE04700204448002030
:10A6F00000E100E07C61004000600040034B93F803
:10A700006A00003818BF0120704700BFE0470020F2
:10A7100070B44B4B1A1892F93040013402D0082023
:10A7200070BC70478C78E4B11A6801327DD05A68E9
:10A7300001327CD09A6801327BD0DA68013272D063
:10A740001A69013277D05A69013276D09A6901329A
:10A7500033D0DA69013208BF07222FD0042070BC41
:10A760007047FE2382F830304B78012B4ED01F28E3
:10A7700087BF344A00F01F0101464FF0A042012379
:10A780008B40C2F80C351F288BBF00F01F03034617
:10A790002C4A4FF0A04203F5E073032142F8231046
:10A7A000C208294900F007008C5C012303FA00F07D
:10A7B00020438854002070BC70470622940004F1A6
:10A7C000804404F5C0441D18002643F8226085F833
:10A7D0003020D4F810350A784D7823F4991323F4F7
:10A7E000F85312042D05C4F8103505F4801502F451
:10A7F000403203022A4303F47C53D4F81055134328
:10A800002B43C4F810354B78012BB0D11F2887BFDC
:10A810000C4A00F01F0101464FF0A04201238B407B
:10A82000C2F80835AFE70322C8E70022C6E70122D5
:10A83000C4E70222C2E70422C0E70522BEE700BF48
:10A84000E047002000030050444800201F2886BF36
:10A85000054A00F01F004FF0A042012303FA00F068
:10A86000C2F80805704700BF000300501F2886BFCC
:10A87000054A00F01F004FF0A042012303FA00F048
:10A88000C2F80C05704700BF000300502DE9F047E7
:10A89000002384B0CDE90233D54A1168012900F0C4
:10A8A00040821E46D34B1A68012A00F02C82D24BFC
:10A8B0001A68012A00F01982D04B1A68012A00F0A8
:10A8C0000682CF4B1A68012A00F0F381CD4B1A683B
:10A8D000012A00F0E081CC4B1A68012A00F0CD81FA
:10A8E000CA4B1A68012A00F0A181C94B1A68012AD3
:10A8F00020D0E6B1C74F01250024A30003F1804317
:10A90000354203F5C0434FEA45050BD0D3F8100597
:10A9100057F82420D3F81015C0F30520C1F30141E6
:10A9200002B190470134082CE7D1002E17DB04B0A8
:10A93000BDE8F08700221A601B6801934FF0A04227
:10A94000019BD2F82015B44B0291C2F82015D3F820
:10A9500020250392C3F82025002E40F08B81AD4CBA
:10A96000AD4E01254FF0A04794F96000431C46D03E
:10A97000C0F3C20204AB1A4400F0070312F8082C1B
:10A9800005FA03F31A42C1B200F03F0037D01F2886
:10A9900000F2258102464FF0A04909EB820304EB47
:10A9A000000ED3F800C7D3F8008728F44038C3F866
:10A9B0000087CCF3014C9EF93080D3F800E754F8BF
:10A9C0002880BCF1020F0CBF4FF4403A4FF4003A1C
:10A9D00005FA02F24EEA0A0EC3F800E7C9F820258C
:10A9E000B8F1000F0BD08909032900F0B381BCF145
:10A9F000020F00F0BE81BCF1030F00F0A88194F9B2
:10AA00006100411C46D0C0F3C20204AB1A4400F0FE
:10AA1000070312F8082C05FA03F31A42C1B200F03A
:10AA20003F0037D01F2800F2DE8002464FF0A049D9
:10AA300009EB820304EB000ED3F800C7D3F80087BC
:10AA400028F44038C3F80087CCF3014C9EF93080DD
:10AA5000D3F800E754F82880BCF1020F0CBF4FF484
:10AA6000403A4FF4003A05FA02F24EEA0A0EC3F8F1
:10AA700000E7C9F82025B8F1000F0BD08909032998
:10AA800000F06D81BCF1020F00F06B81BCF1030F8F
:10AA900000F0628194F96200421C46D0C0F3C20209
:10AAA00004AB1A4400F0070312F8082C05FA03F36C
:10AAB0001A42C1B200F03F0037D01F2800F2AE802A
:10AAC00002464FF0A04909EB820304EB000ED3F8D5
:10AAD00000C7D3F800879EF930E028F44038C3F867
:10AAE0000087CCF3014CD3F800A754F82E80BCF1BA
:10AAF000020F0CBF4FF4403E4FF4003E05FA02F245
:10AB00004EEA0A0EC3F800E7C9F82025B8F1000F95
:10AB10000BD08909032900F01381BCF1020F00F06A
:10AB20002481BCF1030F00F0088194F96300431CF9
:10AB300045D0C0F3C20204AB1A4400F0070312F878
:10AB4000082C05FA03F31A42C1B200F03F0036D0D8
:10AB50001F2867D802464FF0A04909EB820304EB97
:10AB6000000ED3F800C7D3F8008728F44038C3F8A4
:10AB70000087CCF3014C9EF93080D3F800E754F8FD
:10AB80002880BCF1020F0CBF4FF4403A4FF4003A5A
:10AB900005FA02F24EEA0A0EC3F800E7C9F82025CA
:10ABA000B8F1000F0BD08909032900F0CE80BCF169
:10ABB000020F00F0E280BCF1030F00F0C380D7F871
:10ABC00020250292C7F82025D6F820350393C6F831
:10ABD000203513437FF4C8AE04B0BDE8F08701F020
:10ABE0001F02B146D9E601F01F02B14620E700BFBF
:10ABF0000061004004610040086100400C610040B9
:10AC00001061004014610040186100401C61004068
:10AC10007C610040E04700200003005001F01F026B
:10AC2000B14650E701F01F02B14696E7554AD2F807
:10AC3000042312067FF559AE00221A6019680091AC
:10AC4000196E0098012903F1600346F080067FF435
:10AC500050AE1A601B6801934FF0A042019BD2F8DE
:10AC60002015494B0291C2F82015D3F820250392F4
:10AC7000C3F8202546F000463CE6424AD2F80423B9
:10AC800051067FF52DAE00221A601B680093009BD1
:10AC900046F0400624E63B4AD2F8042390067FF5AE
:10ACA0001AAE00221A601B680093009B46F0200633
:10ACB00011E6344AD2F80423D4067FF507AE002209
:10ACC0001A601B680093009B46F01006FEE52D4AB3
:10ACD000D2F8042315077FF5F4AD00221A601B6833
:10ACE0000093009B46F00806EBE5264AD2F80423C1
:10ACF00057077FF5E1AD00221A601B680093009BA7
:10AD000046F00406D8E51F4AD2F8042392077FF5DF
:10AD1000CEAD00221A601B680093009B46F002062D
:10AD2000C5E51849D1F8046316F001063FF4BAAD41
:10AD3000136013680093009BB4E502297FF4F5AE1D
:10AD4000C047F2E602297FF43AAFC04737E702294D
:10AD50007FF455AEC04752E602297FF49BAEC04750
:10AD600098E601297FF496AEF9E701297FF4DDAE7C
:10AD7000E6E701297FF443AEECE701297FF41FAF3A
:10AD8000E3E700BF0060004000030050002800F02F
:10AD9000ED80F0B57D4E33685A04CFB040F1D980D4
:10ADA0007B4F3B68032B40F3D4800278794B41788A
:10ADB0001B68044610090DAD185C287002F00F02E4
:10ADC00008099A5C6A70185CA278A87001F00F01FB
:10ADD0001009595CE970185CE178287102F00F02E3
:10ADE00008099A5C6A71185C2279A87101F00F0158
:10ADF0001009595CE971185C6179287202F00F0240
:10AE000008099A5C6A72185CA279A87201F00F01B5
:10AE10001009595CE972185CE179287302F00F029D
:10AE200008099A5C6A73185C227AA87301F00F0112
:10AE30001009595CE973185C617A287402F00F02FA
:10AE400008099A5C6A74185CA27AA87401F00F0170
:10AE50001009595CE974185CE17A287502F00F0258
:10AE600008099A5C6A75185C227BA87501F00F01CD
:10AE70001009595CE975195C297602F00F024FF050
:10AE8000000C995C627B6976100902F00F011A5C74
:10AE9000AA76A27B595CE976100902F00F011A5CD0
:10AEA0002A77E27B595C6977110902F00F02595C3D
:10AEB000A9779B5C3848EB772F2185F820C022F0DA
:10AEC0008DFE002847D02F21334822F087FE411CF9
:10AED0003248334B334AD3F804350092CDE90105AB
:10AEE0004222042017F096FC33685B0431D53B689E
:10AEF000032B2EDD28482F2122F070FE002838D0A9
:10AF00002F21254822F06AFE411CE588A288244BA7
:10AF10002668D3F804356DBAADB252BA039592B231
:10AF2000E07A029236BAA27A0196657A0790207A80
:10AF30000692CDE904051C4A0092E27BA07B657B6A
:10AF4000247B0B920A9043220420CDE9084517F098
:10AF500061FC4FB0F0BD10485C2122F03FFE30B1E3
:10AF60005C210D4822F03AFE411CB1E770470A49C6
:10AF7000AEE709485C2122F031FE28B15C21064889
:10AF800022F02CFE411CC0E70349BEE74C2E0020F6
:10AF9000482E0020502E0020FCE304005CE4040056
:10AFA0000010014070E4040078E4040060DF7047A2
:10AFB00069DF704714F012BE10B588B000F022F9B6
:10AFC000002854D1324B0393039B04930C2200219D
:10AFD00005A822F00BFC0023049A8DF8143005A973
:10AFE0000120FFF7E5FF00283ED10C22002105A833
:10AFF00022F0FCFBF823049A059305A9A120FFF792
:10B00000D7FF70BB04A8FFF7D1FF039B049A9A42B5
:10B01000044603D01F4B1B685B0402D4E4B908B09C
:10B0200010BD1D4B1B68012BF8DD1C482F2122F0A1
:10B03000D5FDF8B12F21194822F0D0FD411C04980C
:10B04000174A184BD3F80435CDE90020AB22022073
:10B0500017F0E0FB002CE2D020461EF03DFC08B0CB
:10B0600010BD1EF039FCCDE71EF036FCBDE71EF02A
:10B0700033FCA7E709485C2122F0B0FD28B15C2130
:10B08000064822F0ABFD411CD9E70449D7E700BFD1
:10B09000002E00204C2E0020482E0020B8E4040092
:10B0A00020E504000010014070B4EFF3108472B684
:10B0B0000D4B9A68AAB90D490D4E01259D60D1F836
:10B0C000805035401D60C1F88060D1F884505D60CB
:10B0D0004FF0FF33C1F88430027004B962B670BC1F
:10B0E000704701230370F8E73872002000E100E0A8
:10B0F000FC06FFBD094B9A687AB170B910B4EFF342
:10B10000108172B6064A1C6814605C6854609860CE
:10B1100001B962B65DF8044B704770473872002081
:10B1200000E100E001600B6843604A68934204BF9D
:10B1300000234360704700BF436843B102689168D1
:10B140000B4443605268934204BF0023436070473E
:10B150004BDF704710B5114C84B001A8FFF7F8FF22
:10B16000A8B9214602A8FFF7DDFF039B002BF4D00E
:10B17000D3E900210198904702A8FFF7DDFF039B68
:10B18000002BF5D101A8FFF7E3FF0028E9D005283F
:10B1900001D01EF0A1FB04B010BD00BF5CE50400AF
:10B1A00061DF7047144B1B782BB330B5134D91B052
:10B1B00034240DF1020103A8ADF80240FFF7F0FFBF
:10B1C00088B9294601A8FFF7ADFF029B002BF0D0FC
:10B1D000D3E9002103A8904701A8FFF7ADFF029B28
:10B1E000002BF5D1E5E7052801D111B030BD1EF0E7
:10B1F00073FB11B030BD70474C48002068E5040077
:10B2000010DF704770B53C4D2B7884B0002B66D1B1
:10B210003A4E3B49012302A83370FFF783FF039B9B
:10B2200023B90EE0FFF788FF039B53B1D3E9002158
:10B2300000209047044602A8002CF3D1204604B019
:10B2400070BD304902A8FFF76DFF039B4BB1D3E9F6
:10B2500000210020904702A8FFF76EFF039B002B00
:10B26000F5D1294A002312688DF8083002A801920E
:10B27000FFF71AFF254901A8FFF7C2FFB0FA80F3D4
:10B2800004465B099DF808002B70FFF733FF002C84
:10B29000D4D11F4B1F491C70347091F81623EC2336
:10B2A00052091341DB071ED51B4B9A6802B31A687B
:10B2B00042F480021A60134902A8FFF733FF039B90
:10B2C000002BBBD0D3E900210120904702A8FFF753
:10B2D00033FF039B002BF5D1204604B070BD08243A
:10B2E000204604B070BD42F202001EF0F5FAE2E71B
:10B2F0004FF480030B60DEE74E4800204D480020ED
:10B3000078E5040090E5040074E50400FDB5030051
:10B310004F48002000E100E03872002000B583B003
:10B3200008496846FFF7FEFE019B43B1D3E90020C0
:10B3300090476846FFF700FF019B002BF6D103B052
:10B340005DF804FB84E5040038B5817801F003035F
:10B350000546032B30D8DFE803F027211C028908BB
:10B3600041F2707202FB01F2164B1748196803682C
:10B370001144A960002423B91BE0DA681C46AAB175
:10B3800013469A688A1A002AF7DA94B1E560EB60EE
:10B3900038BD8908642202FB01F2E5E701F0FC02F6
:10B3A00002EB91014A00DFE78A08DDE7DD60EA6031
:10B3B00038BDEB60056038BD784610F045FA0022D4
:10B3C000D2E700BF68480020704800202DE9F04116
:10B3D0006C4D2B78002B37D16B4C226892B36B4E9F
:10B3E0003378907800F003019942C0F3010740F3ED
:10B3F00091806748032B046800F2C0809068DFF8F2
:10B400009C81644A001B022902FB00F258F82300C9
:10B41000B2FBF0F265D0032942D0012952D015F0D9
:10B42000B9F93378032B044600F2988058F823309A
:10B430001C442B78002B65D021465748BDE8F041CD
:10B4400015F070B8BDE8F081534B504E5F6815F0B1
:10B45000A1F93378032B04466AD8504A52F82320C6
:10B460004B49E01B10443BB94CF25032904203D997
:10B470000A6801320A6007E0494C0A684009A4FBE7
:10B48000004002EBD01008603F4C2268002AA8D18F
:10B490002B78002BD6D0BDE8F0413F4814F0F6BF22
:10B4A000002B53D0012B5DD13E483F4B00FB02F2F5
:10B4B000B3EBF20FB3D315F06DF93C4C0323044406
:10B4C0003370B6E73A4B3B4903FB02F2B1EB720F24
:10B4D000A5D315F05FF900F5742404F510743770E6
:10B4E000A7E75BB3012B9AD13148324B00FB02F244
:10B4F000B3EB720F93D315F04DF92F4C0223044494
:10B50000337096E72448012344602B70BDE8F04176
:10B5100014F04EBF15F03EF92368204A9B7803F0E3
:10B520000301C3F3010352F821403370044480E760
:10B53000784610F089F93378002291E71F48204BB4
:10B5400000FB02F2B3EBB20FD5D268E71D481E4BE9
:10B5500000FB02F2B3EB321FADD260E7784610F089
:10B5600073F966E7022B7FF45AAF1848184B00FBBB
:10B5700002F2B3EBB20FFFF452AF9CE7784610F043
:10B5800063F9FFDE6C480020704800206D48002001
:10B5900068480020A0860100504800209CE5040077
:10B5A000C55A7C0A63C92F96063A6D000046C3232C
:10B5B000CDCCCCCC9999991980969800295C8FC2F2
:10B5C000285C8F024728A3B733EC0A00EFEEEEEEBB
:10B5D000444444042DE9F041294B1B7882B0032BED
:10B5E00049D8DFE803F03E393402264D2B6803F5D5
:10B5F000BB5310332B60244E244A3468002313704D
:10B60000002C33D01F4D984607E063680199984796
:10B610002046FFF799FE346844B3A3682A68934232
:10B6200001A903D02A689B1A002B1FDA2788E36838
:10B6300033603846CDF8048002F0ACF90346384652
:10B64000002BE2D0784610F0FFF83846DDE70D4DCC
:10B650002B6864332B60CEE70A4D2B680A332B60CE
:10B66000C9E7084D2B6801332B60C4E7FFF7AEFE36
:10B6700002B0BDE8F081784610F0E6F8BBE700BF05
:10B680006D48002068480020704800206C48002069
:10B6900010B5084C18220021204622F0A7F8064BCE
:10B6A00006480749074AA360002303600B60137034
:10B6B00010BD00BF50480020D5B5020068480020EA
:10B6C000704800206C48002038B50B4C237873B9C3
:10B6D0000A4D18220021284622F088F8084B094913
:10B6E000094AAB6000230B601360237038BD034828
:10B6F00014F0CCFEECE700BF6C480020504800205E
:10B70000D5B502006848002070480020F8B50D4605
:10B710001746044600283CD0234E15F0EDFD336853
:10B7200043B19C4202D124E09C420DD01A46DB6812
:10B73000002BF9D105F0030545EA8705A57067B927
:10B74000BDE8F84015F01CBE05F00305E36845EAC6
:10B750008705A570D360002FF2D02046FFF7F4FDD7
:10B7600033689C42ECD1FFF731FEBDE8F84015F09C
:10B7700007BE05F00305E368336045EA8705A57059
:10B78000002FF0D02046FFF7DFFD33689C42D7D171
:10B79000E9E77846044E10F057F815F0ADFD336830
:10B7A000002BC3D1C6E700BF7048002070B5884C9D
:10B7B000B4F860300546002B63D094F8393005F5B5
:10B7C0007A7623B1236B9B1B002BC0F2978094F8F1
:10B7D0005D30002B48D0636D9B1B002B5FDB94F822
:10B7E0003930002B31D194F85D30002B32D1B4F8D0
:10B7F00060304FF6FF72A4F86220002B31D07846FB
:10B8000010F022F8B4F8623003EBC30304EB8303B7
:10B810001B6B5A1B48BFEA1AE26070BD784610F0F5
:10B8200013F894F85C30013BDBB284F85C30002BF9
:10B8300000F08880D4E915321344636594F83930F8
:10B84000002BD0D094F85D3093B1236B626DD21A87
:10B85000002A1ADAB4F860300122A4F86220002B22
:10B860005FD10023E36070BD94F83930002BBAD06B
:10B87000B4F860300022A4F86220002BF1D0236BD2
:10B88000C7E778460FF0E0FF97E7B4F860200021A3
:10B89000A4F86210002ABCD10023E360E3E7B4F807
:10B8A0005030E26C4B49012000F0D6FF1028B5D88B
:10B8B00001A353F820F000BF23B802001DB8020016
:10B8C0001DB802001DB8020023B8020045B90200ED
:10B8D0001DB8020045B9020023B8020045B90200B4
:10B8E0001DB802001DB802001DB802001DB80200FC
:10B8F0001DB8020023B8020045B90200A38DA26A58
:10B900003549002000F0A8FF10280CD8DFE800F02F
:10B910000E0B0B0B0E330B330E330B0B0B0B0B0EF3
:10B920003300636D75E778460FF08EFF94F838307A
:10B93000013BDBB284F83830EBB1D4E90C2313447B
:10B94000236344E794F85D30002B3CD0B4F86030BA
:10B950009BB3013B9BB20022A4F8603084F85D20C9
:10B960001BB94FF6FF73A4F86230E06C1BF05AFC71
:10B970000023E36462E794F83930D3B1B4F860305F
:10B980008BB1013B9BB20022A4F8603084F83920CF
:10B990001BB94FF6FF73A4F86230A06A1BF042FC9B
:10B9A0000023A36213E778460FF04EFFB4F860302F
:10B9B000E7E778460FF048FFE0E778460FF044FFEE
:10B9C000B4F86030C5E778460FF03EFFBEE700BF31
:10B9D00074480020B04800208C48002010B5064C68
:10B9E00064222046002121F001FF044BA3604FF6A2
:10B9F000FF73A4F8623010BD74480020ADB7020098
:10BA00002DE9F84F0128BDF828A0064688461746BC
:10BA100099466DD8B8F1000F00F0A380002F00F018
:10BA2000A68098F800305B0769D0B9F1000F00F0EC
:10BA30009480BAF1000F00F08880564D06EBC603E3
:10BA400005EB8303F40093F83930002B5ED114F03A
:10BA5000A1FE844697E80F00344405EB840404F10A
:10BA6000180787E80F00C4F82890A4F82CA098F8CD
:10BA70000030B5F86020C3F3020384F8383098F83A
:10BA800000000123C10884F839304CF2503001FB2A
:10BA9000000095F8391060631A446044A5F86020EE
:10BAA000206395F85D20B9B122B16A6D296B521AF5
:10BAB000002A00DB0023B5F862108B421A4648D0FA
:10BAC000A5F8622003EBC30305EB83053148296B1E
:10BAD000BDE8F84F14F026BD002AECD1B5F862306D
:10BAE0004FF6FF72934246D19E4246D0BDE8F88F92
:10BAF00078460FF0A9FEB8F1000F8FD131E07846FB
:10BB00000FF0A2FEB9F1000F93D126E0B5F8603036
:10BB1000002B38D0A219013B05EB82029BB2002119
:10BB2000A5F8603082F839101BB94FF6FF73A5F8FD
:10BB3000623004EB060B05EB8B0BDBF828001BF0E7
:10BB400071FB0023CBF8283081E778460FF07CFEAC
:10BB500073E79642B6D0BDE8F88F78460FF074FED2
:10BB600067E778460FF070FE002F7FF45AAF7846F3
:10BB70000FF06AFE55E7A5F8622078460FF064FEE4
:10BB8000B5F862309EE778460FF05EFEB5F860309B
:10BB9000C0E700BF74480020C0F30F43A3F5405333
:10BBA0009BB2012B17D80D4A107810F0040001D079
:10BBB0000020704730B40A4A0C6812F8331002EBC8
:10BBC000C30582B0E44321F0060102F833106C6033
:10BBD00002B030BC70470520704700BFA849002064
:10BBE000AC490020000CB0F5804F82B005D1044B69
:10BBF0000A781A70002002B07047052002B0704722
:10BC00000C2E002010B5030C82B0012B0C460190C5
:10BC100002D078460FF018FE024B23600222A28069
:10BC200002B010BD0200010010B5030C82B0012B60
:10BC30000C46019002D078460FF006FE6388012B77
:10BC40000DD1A388022B0AD12388022B07D1054AE4
:10BC50001378002043F00103137002B010BD0B20D5
:10BC600002B010BDA849002030B5C0F30F44A4F5C0
:10BC7000405483B0A4B2012C0D46019002D97846FD
:10BC80000FF0E2FD034B03EBC4046368DB432B605E
:10BC900003B030BDAC49002010B5030C82B0B3F541
:10BCA000804F0C46019002D078460FF0CDFD024B3C
:10BCB0001B78237002B010BD0C2E002030B5040C90
:10BCC00083B0B4F5805F0D46019002D078460FF046
:10BCD000BBFDA4F580540649A4B204EB44042846F5
:10BCE00001EB4401022203B0BDE8304021F0E4BC86
:10BCF0001C49002030B5C0F30F44A4F5005483B0B4
:10BD0000A4B2012C0D46019002D978460FF09CFD9B
:10BD10000549C4EBC404284601EBC401142203B056
:10BD2000BDE8304021F0C8BC34490020F0B5C0F374
:10BD30000F43A3F5005383B09BB2012B019020D891
:10BD40001748007810F0040418D116488F89C3EB07
:10BD5000C30300EBC305DB00AE89B7420BD1C35A66
:10BD60000888984207D148886B88984203D1CA89CD
:10BD7000EB899A4208D00B2003B0F0BD002003B03D
:10BD8000F0BD052003B0F0BD1422284621F094FC3C
:10BD900095F8343023F00603204685F83430EEE77A
:10BDA000A8490020344900202DE9F04FD7B00446BF
:10BDB000BDF88051894F049509A80E461D4693464B
:10BDC00002F0CAFFC4EBC40307EBC303BDF826109F
:10BDD000B3F80C80414540F2DE80BDF82410069196
:10BDE000E200BBF1000F00F0AD80DBE903019BF83E
:10BDF0001C90BBF81E3005930DF1280A8AE8030059
:10BE0000BBF824B0B9F1000F40F0AC80002D00F079
:10BE1000B780049B002B00F0BA800CAC24220021D8
:10BE2000204621F0E3FC0599584612AA05F04AFE87
:10BE3000074618B1384657B0BDE8F08F9AE80300BE
:10BE4000069B96F80AE096F80BC0F26884F80A9010
:10BE500084E8030098443946049BA4F808802046EF
:10BE60002561A38284F80BE084F80CC0226213F0F1
:10BE7000AFFE07460028DDD1594C23689A04D9D576
:10BE8000DFF87C81D8F80030042BD3DD55482F2112
:10BE900021F0A4FE002800F090802F21514821F0CD
:10BEA0009DFE411C3088504A504BD3F80435CDE9F3
:10BEB000002040F2A912052016F0ACFC23689B0478
:10BEC000B8D5D8F80030042BB4DD049B802B1E4677
:10BED00028BF8026002B7DD0454B15ACD3F800C081
:10BEE0002146681E034610F8012F4FEA121E023346
:10BEF0001CF80EE081F800E002F00F025B1B1CF85A
:10BF000002204A709E4201F10201EBD8002335481D
:10BF100004F816302F2121F061FE002842D02F2195
:10BF2000304821F05BFE411C3248304B324AD3F896
:10BF300004350092CDE901044FF4D572052016F0C6
:10BF400069FC77E70DF1280AD8889B88079251464B
:10BF5000059303F0ADFD18BBBAF80230DBB1079AC8
:10BF60004FF6FF7B141B07EBC40797F81190B9F14C
:10BF7000FF0F04BF214B93F80090002D7FF449AFD1
:10BF800078460FF061FC049B002B7FF446AF7846A7
:10BF90000FF05AFC41E71027384657B0BDE8F08F44
:10BFA000052747E70F485C2121F018FE80B15C218E
:10BFB0000C4821F013FE411CB6E70A485C2121F031
:10BFC0000DFE48B15C21074821F008FE411C69E7DD
:10BFD0000449A9E715AC99E7024963E73449002011
:10BFE0004C2E0020ACE5040000E6040000100140E7
:10BFF000502E002014E6040070E404000C2E0020F3
:10C00000482E0020000CB0F5805F82B012D10C4B9E
:10C01000187810F004000AD10A4B09881A88914256
:10C020000BD15A7922F006025A7102B070470020F3
:10C0300002B07047052002B070470B2002B0704775
:10C04000A84900201C490020012870B5324D044643
:10C050000DD9C60078460FF0F7FB00221146301BC1
:10C0600005EBC0001430BDE87040FFF74FBBC0EBDC
:10C07000C00205EBC202C60092F8341011F00101B3
:10C08000E8D09369002BE5D0937C928C03F00300F9
:10C0900002284FEA930331D0032816D141F2707081
:10C0A00000FB03F0B0FBF2F23F2A17D940F27623EF
:10C0B0009A421AD941F69C039A4223D8174BA3FB04
:10C0C0000232C2F347120221C9E7012813D103EB60
:10C0D00083004000B0FBF2F23F2A06D8CBB1012A20
:10C0E00038BF0122D2B20021B9E70D4BA3FB0232C7
:10C0F000C2F3C702B3E7B3FBF2F2EFE7642000FB41
:10C1000003F0CFE7074BA3FB0232C2F3C7120321B0
:10C11000A5E71A461946A2E7344900201F85EB51CE
:10C12000CDCCCCCCF11976052DE9F04FA04E32786C
:10C1300042F0040212F0020585B0327040F0D38064
:10C14000D1079C4C13460CD5A3464FF6FF73BBF8A2
:10C150000C10994F99424CD10BF1380B002D40D067
:10C160003378954D29784A075DD55A0700F1A580A7
:10C170002A7A41F0040121F00601297051075FD5A8
:10C1800042F004028D4F22F006022A727A7990075B
:10C190006AD594F8341022F002027A718F0777D5AD
:10C1A00094F86C2021F0020184F83410910701D535
:10C1B00042F0020222F0020284F86C20DC0748BF41
:10C1C000002000F191807E480190022302A9029094
:10C1D000ADF80C3019F0E4FE002840F0E5800520B1
:10C1E00082E0BBF80C104FF6FF7399424FF0010547
:10C1F000B2D0BBF80600984203D002F039FF002805
:10C2000071D1BBF80E30022B06D0DB00043307EBF4
:10C21000030AF958002973D1EB005B1B04EBC3033D
:10C220000021997498E78F074DD5580700F1968043
:10C230002A7A41F0020121F00601297051079FD4AA
:10C24000910754D45D4F22F006022A727A79900742
:10C250000AD559079DD55B480290394619F0A0FED2
:10C26000002849D17A79337894F8341022F0020208
:10C270008D077A710CD5580792D553484D490290D5
:10C2800019F08EFE002840F08780337894F834103F
:10C2900094F86C2021F00201970784F8341089D5B6
:10C2A0005D0785D549484A49029019F079FE002872
:10C2B0006ED1337894F86C207CE74648029019F0F0
:10C2C0003FFF297833782A7A21F006015707297031
:10C2D000B6D558077FF554AF3F48029019F030FFAC
:10C2E0002A7A3378AEE70B2005B0BDE8F08F5F0700
:10C2F00042D442F0020245E778460FF0A5FAB1E7D2
:10C30000364A4B420B4002FB03F3DB0E344A12F871
:10C310000380B8F1180F3FF47FAF4FF0010940469A
:10C3200003F056FB08F1010309FA03F14942002822
:10C33000D9D1172B3FF670AFDAF800300B403FF43D
:10C340006BAF264A59420B4002FB03F3DB0E244A33
:10C3500012F80380B8F1180FE1D15DE76B681D4852
:10C360000290DB4301A9019319F01AFE0028A8D01E
:10C3700078460FF069FAA4E7EB6817480290DB43B0
:10C3800001A9019319F00CFE50B92A7A337859E7C4
:10C3900078460FF059FA8CE778460FF055FA74E7B3
:10C3A00078460FF051FAF0E778460FF04DFA16E7AD
:10C3B000A849002034490020AC4900201C49002035
:10C3C0000200010002000010020000200200012013
:10C3D0006C490020020000300200013031B57C07BA
:10C3E000A4E604002DE9F04F00F1140491B00546D5
:10C3F000204606F053FC0023099300287BD02B7DB8
:10C400004FF6FF72012B0746ADF83A2000F0A280EC
:10C41000EA8A4FF6FB739A4200F2BC8020460DF187
:10C420003A0103F093FC002840F08E80099B0A93A8
:10C43000002399460A9B644EDFF8A4A10B97A846F7
:10C44000002B53D0B788099BFF1AB7FA87F77F09EB
:10C45000B8F81E4096F82C50B18C306AB8F800C07D
:10C46000B8F802E06309012256F8233004F01F04F3
:10C4700002FA04F41C401540002976D0002300F194
:10C48000020B02E0013399426FD030F8332062454D
:10C49000F8D13BF833207245F4D1DDF82CB00D9380
:10C4A0000122DAF800309B0403D5484B1B68062BA9
:10C4B00024DC95B18FB184B1BBF1000F0DD098F899
:10C4C0001430012B1FFA89F066D00D99336AB26AD5
:10C4D00003EBC10341465B6898473836B9F1000F5A
:10C4E00009D10A9B4FF00109002BABD1F388012B36
:10C4F0003ED90A9FACE711B0BDE8F08F34480C92EA
:10C500002F2121F06BFB0C9A00284CD02F213048B2
:10C5100021F064FB0C9A411C2E4B36F8080CD3F822
:10C5200004350692221E18BF012236F806CC059269
:10C53000294A0092CDE9010CCDE903574FF48662F8
:10C54000072016F067F9B4E778460FF07DF9099BEC
:10C550000A936DE70FA802F0FFFBEB8ABDF83C20C1
:10C560009B1A9BB2CDE9093762E70022934698E710
:10C57000BDF83A20DB00510903EB810317490B4456
:10C5800002F01F025968012393400B4214BF012798
:10C5900000275DE70A904BE7B26A0C90414601F034
:10C5A00031FC0C9891E70A480C925C2121F016FBB3
:10C5B0000C9A30B15C21064821F010FB0C9A411C0A
:10C5C000AAE70349A8E700BF3C490020482E002005
:10C5D000ACE50400001001401CE60400AC4900205A
:10C5E0004C2E00202DE9F04701680B7803F0C002C3
:10C5F000802AD0B004464FD01CD8180643D5DFF8A7
:10C600002C82D8F8003013F4005600F0BF80804B25
:10C610001B68042B00F3C780E06903F037FE05AD0B
:10C620008246A06903F08EFD0023032226682B605A
:10C6300017463FE0C02AE2D18A7891F801909FB274
:10C6400049EA0229DFF8E481D8F80030990404D5DA
:10C650006F4B1B68042B00F3A980E06903F016FE02
:10C660008246A06903F06EFD4FF6FF73994505AD54
:10C6700026682F80A5F802901AD1FF2F40F2838000
:10C680000222174616E07F2B9FB218BF4FF6FF79A4
:10C69000D8D150B0BDE8F0874F78DFF8908147EAF5
:10C6A0000327D8F8003099044FF6FF79D5D5CFE7A6
:10C6B00003221746A388D8F8001094F808C094F80D
:10C6C00010E0A8841644E2682A61DB1B626A67896D
:10C6D00094F8200085F80CC09BB2B4F812C0EF812A
:10C6E0002A626769A5F81EA08A046E602B8185F80E
:10C6F00014E0A5F816C0AF6128773ED5444A126809
:10C70000042A3ADD802B1F4628BF8027002B7AD0D1
:10C71000404B0FACD3F800C02146701E034610F802
:10C72000012F4FEA121E02331CF80EE081F800E0E0
:10C7300002F00F029B1B1CF802204A709F4201F17D
:10C740000201EBD80023344804F817302F2121F0E0
:10C7500045FA00283FD02F212F4821F03FFA411CF5
:10C760002E482F4B2F4AD3F804350092CDE901040F
:10C770004FF48A72052016F04DF82846FFF732FE76
:10C7800050B0BDE8F0870122174693E7E06903F057
:10C790007DFD05AD8246A06903F0D4FC03222E6026
:10C7A0001746266886E74FF000094F461A482F21A2
:10C7B00021F014FAE0B12F21174821F00FFA411CA3
:10C7C000194A174B0520D3F80435CDE90027FD227F
:10C7D00016F020F841E710485C2121F0FFF928B15C
:10C7E0005C210D4821F0FAF9411CB9E70A49B7E785
:10C7F00009485C2121F0F2F938B15C21064821F0AA
:10C80000EDF9411CDCE70FAC9CE70349D8E700BF1A
:10C81000482E0020502E0020ACE5040088E60400DD
:10C820000010014070E4040074E604004C2E002067
:10C83000037833B1142B03D1C388022B04D0704783
:10C8400070470430FFF7CEBE024A137843F002036C
:10C8500013707047A849002079B172B16BB170B5FF
:10C860000C89B4F5BE7F82B002D3092002B070BD3E
:10C87000012804D9052002B070BD0E2070471C4C61
:10C88000C0EBC00504EBC50494F83450ED07F1D5B6
:10C89000A589002DEED1A6884FF6FF75AE421DD0BA
:10C8A000E488AC421AD04E880C88AE4218D114F4F9
:10C8B0007F4F0ED004F44044A4F50044B4FA84F44D
:10C8C00064095CB1009313460022FFF76DFA02B0D1
:10C8D00070BD24F07F050DB97F2CF3D10720C5E78B
:10C8E00024F03F04A4F1C004B4FA84F46409E8E736
:10C8F0003449002070B5164C164D01F0CFFAFEF702
:10C90000E3FE20467022002120F070FF0622002165
:10C91000114820F06BFF10220021104820F066FF24
:10C920000F48104A0378E26023F0030303704FF0CE
:10C93000FF31012304266160E1636264A384A4F8EB
:10C940005C302E700220BDE8704019F067BC00BF5B
:10C95000344900200C2E00201C490020AC49002046
:10C96000A8490020FFFF020038B5174C174D702270
:10C970000021204620F03AFF06220021144820F032
:10C9800035FF10220021134820F030FF4FF0FF3315
:10C99000114812496360E3630123114AA384A4F898
:10C9A0005C300423E26062640B70056013F012F9DE
:10C9B00001F060FAFEF76CFEFFF710F8094A1378F1
:10C9C00023F00703137038BD3449002031C802003A
:10C9D0001C490020AC490020284900200C2E0020D2
:10C9E000FFFF0200A8490020002800F007812DE980
:10C9F000F0470E4682B0002900F0FC80C368044670
:10CA00001BB18368002B00F0F5804FF6FF73338075
:10CA1000E3681BB9A368002B40F08780B4F804805A
:10CA2000B8F1000F5BD106F0CBF9002840F0E880A8
:10CA3000A288DFF840E202EB42030EEB4303997851
:10CA4000DB78D9425ED1D4E90270E8B1DFF82892F0
:10CA5000002207F1020C4FF6FF753CF8321037F850
:10CA60003230A9423FD113F47F4F03EA090A23F081
:10CA70007F0140D0AAF50043B3FA83F35B09002B92
:10CA80003CD001329042E8D83288784D4FF6FF739F
:10CA90009A424ED0D3009B1A05EBC30322691A6356
:10CAA0003388A268C3EBC30305EBC30300209A627B
:10CAB0003388E268C3EBC30305EBC3039A8533886D
:10CAC0006269C3EBC30305EBC3039A613288C2EB0F
:10CAD000C20305EBC305AA8202B0BDE8F0870520BA
